{
    "contractName": "A",
    "abi": [
        {
            "anonymous": false,
            "inputs": [
                {
                    "indexed": false,
                    "internalType": "string",
                    "name": "",
                    "type": "string"
                },
                {
                    "indexed": false,
                    "internalType": "uint256",
                    "name": "",
                    "type": "uint256"
                },
                {
                    "indexed": false,
                    "internalType": "address",
                    "name": "",
                    "type": "address"
                },
                {
                    "indexed": false,
                    "internalType": "bytes",
                    "name": "",
                    "type": "bytes"
                }
            ],
            "name": "checkEvent",
            "type": "event"
        },
        {
            "stateMutability": "nonpayable",
            "type": "fallback"
        },
        {
            "inputs": [],
            "name": "checkBal",
            "outputs": [
                {
                    "internalType": "uint256",
                    "name": "",
                    "type": "uint256"
                }
            ],
            "stateMutability": "view",
            "type": "function"
        },
        {
            "stateMutability": "payable",
            "type": "receive"
        }
    ],
    "bytecode": "608060405234801561001057600080fd5b506101cf806100206000396000f3fe6080604052600436106100225760003560e01c80632058ad6b1461010a576100b2565b366100b2576040805160808082526012908201527168656c6c6f2066726f6d207265636569766560701b60a08201523460208201527317f6ad8ef982297579c203069c1dbffe4348c3729181019190915260c0606082018190526000908201527f41f5baa90fb622fcb42100376092e9ea2ed5f210903ab730ba5add29402d006b9060e0015b60405180910390a1005b3480156100be57600080fd5b507f41f5baa90fb622fcb42100376092e9ea2ed5f210903ab730ba5add29402d006b60007317f6ad8ef982297579c203069c1dbffe4348c3726000366040516100a8949392919061012a565b34801561011657600080fd5b504760405190815260200160405180910390f35b60808152601360808201527268656c6c6f2066726f6d2066616c6c6261636b60681b60a082015284602082015260018060a01b038416604082015260c060608201528160c0820152818360e0830137600081830160e090810191909152601f909201601f19160101939250505056fea2646970667358221220978df4e2301853a4c5a2cfbb9157ba78e42db9aeb0514dcc93f443046ddcb5a764736f6c63430008110033",
    "sourcePath": "d:/Blockchain Development/Solidity/intro_to_solidity/fallbackreceive.sol",
    "compiler": {
        "name": "solc",
        "version": "0.8.17+commit.8df45f5f"
    },
    "functionHashes": {
        "checkBal()": "2058ad6b"
    },
    "gasEstimates": {
        "creation": {
            "codeDepositCost": "92600",
            "executionCost": "141",
            "totalCost": "92741"
        },
        "external": {
            "": "infinite",
            "checkBal()": "148"
        }
    }
}