{
    "contractName": "A",
    "abi": [
        {
            "inputs": [
                {
                    "internalType": "uint256[]",
                    "name": "arr10",
                    "type": "uint256[]"
                }
            ],
            "name": "CALLDATA",
            "outputs": [
                {
                    "internalType": "uint256[]",
                    "name": "",
                    "type": "uint256[]"
                }
            ],
            "stateMutability": "pure",
            "type": "function"
        },
        {
            "inputs": [
                {
                    "internalType": "uint256",
                    "name": "",
                    "type": "uint256"
                }
            ],
            "name": "arr",
            "outputs": [
                {
                    "internalType": "uint256",
                    "name": "",
                    "type": "uint256"
                }
            ],
            "stateMutability": "view",
            "type": "function"
        },
        {
            "inputs": [],
            "name": "mem",
            "outputs": [],
            "stateMutability": "view",
            "type": "function"
        },
        {
            "inputs": [],
            "name": "stor",
            "outputs": [],
            "stateMutability": "nonpayable",
            "type": "function"
        }
    ],
    "bytecode": "61014060405260016080908152600360a052600460c052600560e0526006610100819052604e6101205261003591600091610048565b5034801561004257600080fd5b506100ad565b828054828255906000526020600020908101928215610088579160200282015b82811115610088578251829060ff16905591602001919060010190610068565b50610094929150610098565b5090565b5b808211156100945760008155600101610099565b610279806100bc6000396000f3fe608060405234801561001057600080fd5b506004361061004c5760003560e01c806371e5ee5f1461005157806385883d8c146100775780638a81deb514610081578063b28175c4146100a1575b600080fd5b61006461005f366004610166565b6100a9565b6040519081526020015b60405180910390f35b61007f6100ca565b005b61009361008f36600461017f565b9091565b60405161006e9291906101f4565b61007f61013f565b600081815481106100b957600080fd5b600091825260209091200154905081565b600080546040805160208084028201810190925282815291839183018282801561011357602002820191906000526020600020905b8154815260200190600101908083116100ff575b505050505090506103e8816002815181106101305761013061022d565b60200260200101818152505050565b6000610384816002815481106101575761015761022d565b60009182526020909120015550565b60006020828403121561017857600080fd5b5035919050565b6000806020838503121561019257600080fd5b823567ffffffffffffffff808211156101aa57600080fd5b818501915085601f8301126101be57600080fd5b8135818111156101cd57600080fd5b8660208260051b85010111156101e257600080fd5b60209290920196919550909350505050565b6020808252810182905260006001600160fb1b0383111561021457600080fd5b8260051b80856040850137919091016040019392505050565b634e487b7160e01b600052603260045260246000fdfea2646970667358221220dbd5f726dc983a81af3a741f67e569bac47d638c77d4a0351d94ee5c12864c6464736f6c63430008110033",
    "sourcePath": "d:/Blockchain Development/Solidity/intro_to_solidity/memorystoragecalldata.sol",
    "compiler": {
        "name": "solc",
        "version": "0.8.17+commit.8df45f5f"
    },
    "functionHashes": {
        "CALLDATA(uint256[])": "8a81deb5",
        "arr(uint256)": "71e5ee5f",
        "mem()": "85883d8c",
        "stor()": "b28175c4"
    },
    "gasEstimates": {
        "creation": {
            "codeDepositCost": "126600",
            "executionCost": "infinite",
            "totalCost": "infinite"
        },
        "external": {
            "CALLDATA(uint256[])": "infinite",
            "arr(uint256)": "4542",
            "mem()": "infinite",
            "stor()": "24485"
        }
    }
}