{
    "contractName": "A",
    "abi": [
        {
            "inputs": [
                {
                    "internalType": "uint256",
                    "name": "x",
                    "type": "uint256"
                },
                {
                    "internalType": "string",
                    "name": "name",
                    "type": "string"
                },
                {
                    "internalType": "address",
                    "name": "add",
                    "type": "address"
                }
            ],
            "name": "keccak",
            "outputs": [
                {
                    "internalType": "bytes32",
                    "name": "",
                    "type": "bytes32"
                }
            ],
            "stateMutability": "pure",
            "type": "function"
        },
        {
            "inputs": [
                {
                    "internalType": "uint256",
                    "name": "x",
                    "type": "uint256"
                },
                {
                    "internalType": "string",
                    "name": "name",
                    "type": "string"
                },
                {
                    "internalType": "address",
                    "name": "add",
                    "type": "address"
                }
            ],
            "name": "keccak2",
            "outputs": [
                {
                    "internalType": "bytes32",
                    "name": "",
                    "type": "bytes32"
                }
            ],
            "stateMutability": "pure",
            "type": "function"
        },
        {
            "inputs": [
                {
                    "internalType": "uint256",
                    "name": "x",
                    "type": "uint256"
                },
                {
                    "internalType": "string",
                    "name": "name",
                    "type": "string"
                },
                {
                    "internalType": "address",
                    "name": "add",
                    "type": "address"
                }
            ],
            "name": "ripemd1",
            "outputs": [
                {
                    "internalType": "bytes20",
                    "name": "",
                    "type": "bytes20"
                }
            ],
            "stateMutability": "pure",
            "type": "function"
        },
        {
            "inputs": [
                {
                    "internalType": "uint256",
                    "name": "x",
                    "type": "uint256"
                },
                {
                    "internalType": "string",
                    "name": "name",
                    "type": "string"
                },
                {
                    "internalType": "address",
                    "name": "add",
                    "type": "address"
                }
            ],
            "name": "ripemd2",
            "outputs": [
                {
                    "internalType": "bytes20",
                    "name": "",
                    "type": "bytes20"
                }
            ],
            "stateMutability": "pure",
            "type": "function"
        },
        {
            "inputs": [
                {
                    "internalType": "uint256",
                    "name": "x",
                    "type": "uint256"
                },
                {
                    "internalType": "string",
                    "name": "name",
                    "type": "string"
                },
                {
                    "internalType": "address",
                    "name": "add",
                    "type": "address"
                }
            ],
            "name": "sha1",
            "outputs": [
                {
                    "internalType": "bytes32",
                    "name": "",
                    "type": "bytes32"
                }
            ],
            "stateMutability": "pure",
            "type": "function"
        },
        {
            "inputs": [
                {
                    "internalType": "uint256",
                    "name": "x",
                    "type": "uint256"
                },
                {
                    "internalType": "string",
                    "name": "name",
                    "type": "string"
                },
                {
                    "internalType": "address",
                    "name": "add",
                    "type": "address"
                }
            ],
            "name": "sha2",
            "outputs": [
                {
                    "internalType": "bytes32",
                    "name": "",
                    "type": "bytes32"
                }
            ],
            "stateMutability": "pure",
            "type": "function"
        }
    ],
    "bytecode": "608060405234801561001057600080fd5b50610481806100206000396000f3fe608060405234801561001057600080fd5b50600436106100625760003560e01c806326440a21146100675780634fca6acd1461009d578063696e2657146100be5780638b63a0d6146100d1578063967b2c58146100e4578063e76ba252146100f7575b600080fd5b61007a610075366004610298565b61010a565b6040516bffffffffffffffffffffffff1990911681526020015b60405180910390f35b6100b06100ab366004610298565b61016c565b604051908152602001610094565b6100b06100cc366004610298565b6101a2565b6100b06100df366004610298565b6101b9565b61007a6100f2366004610298565b610234565b6100b0610105366004610298565b61024d565b6000600384848460405160200161012393929190610387565b60408051601f198184030181529082905261013d916103d2565b602060405180830381855afa15801561015a573d6000803e3d6000fd5b50506040515160601b95945050505050565b600083838360405160200161018393929190610387565b6040516020818303038152906040528051906020012090509392505050565b6000838383604051602001610183939291906103ee565b600060028484846040516020016101d2939291906103ee565b60408051601f19818403018152908290526101ec916103d2565b602060405180830381855afa158015610209573d6000803e3d6000fd5b5050506040513d601f19601f8201168201806040525081019061022c9190610432565b949350505050565b60006003848484604051602001610123939291906103ee565b600060028484846040516020016101d293929190610387565b634e487b7160e01b600052604160045260246000fd5b80356001600160a01b038116811461029357600080fd5b919050565b6000806000606084860312156102ad57600080fd5b83359250602084013567ffffffffffffffff808211156102cc57600080fd5b818601915086601f8301126102e057600080fd5b8135818111156102f2576102f2610266565b604051601f8201601f19908116603f0116810190838211818310171561031a5761031a610266565b8160405282815289602084870101111561033357600080fd5b82602086016020830137600060208483010152809650505050505061035a6040850161027c565b90509250925092565b60005b8381101561037e578181015183820152602001610366565b50506000910152565b83815260606020820152600083518060608401526103ac816080850160208801610363565b6001600160a01b0393909316604083015250601f91909101601f19160160800192915050565b600082516103e4818460208701610363565b9190910192915050565b83815260008351610406816020850160208801610363565b60609390931b6bffffffffffffffffffffffff1916602092909301918201929092526034019392505050565b60006020828403121561044457600080fd5b505191905056fea26469706673582212200abe448013a13126a60164d692826b788fb8fabad968783d55ac00289464f0c164736f6c63430008110033",
    "sourcePath": "d:/Blockchain Development/Solidity/intro_to_solidity/hashfunctions.sol",
    "compiler": {
        "name": "solc",
        "version": "0.8.17+commit.8df45f5f"
    },
    "functionHashes": {
        "keccak(uint256,string,address)": "4fca6acd",
        "keccak2(uint256,string,address)": "696e2657",
        "ripemd1(uint256,string,address)": "26440a21",
        "ripemd2(uint256,string,address)": "967b2c58",
        "sha1(uint256,string,address)": "e76ba252",
        "sha2(uint256,string,address)": "8b63a0d6"
    },
    "gasEstimates": {
        "creation": {
            "codeDepositCost": "230600",
            "executionCost": "275",
            "totalCost": "230875"
        },
        "external": {
            "keccak(uint256,string,address)": "infinite",
            "keccak2(uint256,string,address)": "infinite",
            "ripemd1(uint256,string,address)": "infinite",
            "ripemd2(uint256,string,address)": "infinite",
            "sha1(uint256,string,address)": "infinite",
            "sha2(uint256,string,address)": "infinite"
        }
    }
}