{
    "contractName": "A",
    "abi": [
        {
            "inputs": [],
            "stateMutability": "nonpayable",
            "type": "constructor"
        },
        {
            "inputs": [
                {
                    "internalType": "string",
                    "name": "",
                    "type": "string"
                },
                {
                    "internalType": "address",
                    "name": "",
                    "type": "address"
                }
            ],
            "name": "errorThrowing",
            "type": "error"
        },
        {
            "inputs": [],
            "name": "age",
            "outputs": [
                {
                    "internalType": "uint256",
                    "name": "",
                    "type": "uint256"
                }
            ],
            "stateMutability": "view",
            "type": "function"
        },
        {
            "inputs": [],
            "name": "checkOwner",
            "outputs": [],
            "stateMutability": "nonpayable",
            "type": "function"
        },
        {
            "inputs": [],
            "name": "owner",
            "outputs": [
                {
                    "internalType": "address",
                    "name": "",
                    "type": "address"
                }
            ],
            "stateMutability": "view",
            "type": "function"
        }
    ],
    "bytecode": "6080604052601460015534801561001557600080fd5b50600080546001600160a01b03191633179055610161806100376000396000f3fe608060405234801561001057600080fd5b50600436106100415760003560e01c8063262a9dff146100465780638da5cb5b14610062578063cdbce03d1461008d575b600080fd5b61004f60015481565b6040519081526020015b60405180910390f35b600054610075906001600160a01b031681565b6040516001600160a01b039091168152602001610059565b610095610097565b005b6000546001600160a01b031633146100f157604080516369ee9dbb60e01b81526004810191909152601060448201526f4572726f722069732068617070696e6760801b606482015233602482015260840160405180910390fd5b6001546100ff906019610104565b600155565b8082018082111561012557634e487b7160e01b600052601160045260246000fd5b9291505056fea2646970667358221220c4b9ce2528bdaaddd1a3784b3a795fd74b88a6b52ff5ce88e951a2bc9e7a0dee64736f6c63430008110033",
    "sourcePath": "d:/Blockchain Development/Solidity/intro_to_solidity/revertandassert.sol",
    "compiler": {
        "name": "solc",
        "version": "0.8.17+commit.8df45f5f"
    },
    "functionHashes": {
        "age()": "262a9dff",
        "checkOwner()": "cdbce03d",
        "owner()": "8da5cb5b"
    },
    "gasEstimates": {
        "creation": {
            "codeDepositCost": "70600",
            "executionCost": "46464",
            "totalCost": "117064"
        },
        "external": {
            "age()": "2262",
            "checkOwner()": "26587",
            "owner()": "2337"
        }
    }
}