{
    "contractName": "advancedMap",
    "abi": [
        {
            "inputs": [],
            "name": "delCus",
            "outputs": [],
            "stateMutability": "nonpayable",
            "type": "function"
        },
        {
            "inputs": [
                {
                    "internalType": "address",
                    "name": "",
                    "type": "address"
                }
            ],
            "name": "emp_info",
            "outputs": [
                {
                    "internalType": "string",
                    "name": "name",
                    "type": "string"
                },
                {
                    "internalType": "uint256",
                    "name": "age",
                    "type": "uint256"
                },
                {
                    "internalType": "uint256",
                    "name": "etherAmount",
                    "type": "uint256"
                },
                {
                    "internalType": "address",
                    "name": "addOfCustomer",
                    "type": "address"
                }
            ],
            "stateMutability": "view",
            "type": "function"
        },
        {
            "inputs": [],
            "name": "retAdd",
            "outputs": [
                {
                    "internalType": "address",
                    "name": "",
                    "type": "address"
                }
            ],
            "stateMutability": "view",
            "type": "function"
        },
        {
            "inputs": [
                {
                    "internalType": "string",
                    "name": "name",
                    "type": "string"
                },
                {
                    "internalType": "uint256",
                    "name": "age",
                    "type": "uint256"
                },
                {
                    "internalType": "uint256",
                    "name": "etherAmount",
                    "type": "uint256"
                },
                {
                    "internalType": "address",
                    "name": "addOfCustomer",
                    "type": "address"
                }
            ],
            "name": "setter",
            "outputs": [],
            "stateMutability": "nonpayable",
            "type": "function"
        }
    ],
    "bytecode": "608060405234801561001057600080fd5b506105d9806100206000396000f3fe608060405234801561001057600080fd5b506004361061004c5760003560e01c8063249fe382146100515780638c70f04a1461005b5780639fd844ba1461006e578063acfc5eb11461009a575b600080fd5b6100596100a8565b005b6100596100693660046102ce565b6100e4565b61008161007c3660046103a3565b61018b565b60405161009194939291906103c5565b60405180910390f35b604051308152602001610091565b336000908152602081905260408120906100c28282610246565b50600060018201819055600282015560030180546001600160a01b0319169055565b6040805160808101825285815260208082018690523360009081529081905282902060020154909182019061011a908590610433565b81526001600160a01b03831660209182015233600090815290819052604090208151819061014890826104e3565b506020820151600182015560408201516002820155606090910151600390910180546001600160a01b0319166001600160a01b0390921691909117905550505050565b6000602081905290815260409020805481906101a69061045a565b80601f01602080910402602001604051908101604052809291908181526020018280546101d29061045a565b801561021f5780601f106101f45761010080835404028352916020019161021f565b820191906000526020600020905b81548152906001019060200180831161020257829003601f168201915b5050505060018301546002840154600390940154929390929091506001600160a01b031684565b5080546102529061045a565b6000825580601f10610262575050565b601f0160209004906000526020600020908101906102809190610283565b50565b5b808211156102985760008155600101610284565b5090565b634e487b7160e01b600052604160045260246000fd5b80356001600160a01b03811681146102c957600080fd5b919050565b600080600080608085870312156102e457600080fd5b843567ffffffffffffffff808211156102fc57600080fd5b818701915087601f83011261031057600080fd5b8135818111156103225761032261029c565b604051601f8201601f19908116603f0116810190838211818310171561034a5761034a61029c565b816040528281528a602084870101111561036357600080fd5b8260208601602083013760006020848301015280985050505050506020850135925060408501359150610398606086016102b2565b905092959194509250565b6000602082840312156103b557600080fd5b6103be826102b2565b9392505050565b608081526000855180608084015260005b818110156103f357602081890181015160a08684010152016103d6565b50600060a082850181019190915260208401969096526040830194909452506001600160a01b03919091166060820152601f909101601f19160101919050565b8082018082111561045457634e487b7160e01b600052601160045260246000fd5b92915050565b600181811c9082168061046e57607f821691505b60208210810361048e57634e487b7160e01b600052602260045260246000fd5b50919050565b601f8211156104de57600081815260208120601f850160051c810160208610156104bb5750805b601f850160051c820191505b818110156104da578281556001016104c7565b5050505b505050565b815167ffffffffffffffff8111156104fd576104fd61029c565b6105118161050b845461045a565b84610494565b602080601f831160018114610546576000841561052e5750858301515b600019600386901b1c1916600185901b1785556104da565b600085815260208120601f198616915b8281101561057557888601518255948401946001909101908401610556565b50858210156105935787850151600019600388901b60f8161c191681555b5050505050600190811b0190555056fea2646970667358221220035203db319109c630a85472e6fad5f12467d17f28d025f3c03a8fd9f61a13a064736f6c63430008110033",
    "sourcePath": "d:/Blockchain Development/Solidity/intro_to_solidity/mappingAdvancedMapping.sol",
    "compiler": {
        "name": "solc",
        "version": "0.8.17+commit.8df45f5f"
    },
    "functionHashes": {
        "delCus()": "249fe382",
        "emp_info(address)": "9fd844ba",
        "retAdd()": "acfc5eb1",
        "setter(string,uint256,uint256,address)": "8c70f04a"
    },
    "gasEstimates": {
        "creation": {
            "codeDepositCost": "299400",
            "executionCost": "337",
            "totalCost": "299737"
        },
        "external": {
            "delCus()": "infinite",
            "emp_info(address)": "infinite",
            "retAdd()": "220",
            "setter(string,uint256,uint256,address)": "infinite"
        }
    }
}