{
    "contractName": "array",
    "abi": [
        {
            "inputs": [],
            "stateMutability": "nonpayable",
            "type": "constructor"
        },
        {
            "inputs": [
                {
                    "internalType": "uint256",
                    "name": "",
                    "type": "uint256"
                }
            ],
            "name": "a",
            "outputs": [
                {
                    "internalType": "uint256",
                    "name": "",
                    "type": "uint256"
                }
            ],
            "stateMutability": "view",
            "type": "function"
        },
        {
            "inputs": [
                {
                    "internalType": "uint256",
                    "name": "x",
                    "type": "uint256"
                }
            ],
            "name": "addItemUsingLoop",
            "outputs": [
                {
                    "internalType": "uint256[5]",
                    "name": "",
                    "type": "uint256[5]"
                }
            ],
            "stateMutability": "nonpayable",
            "type": "function"
        },
        {
            "inputs": [
                {
                    "internalType": "uint256",
                    "name": "",
                    "type": "uint256"
                }
            ],
            "name": "ar",
            "outputs": [
                {
                    "internalType": "uint256",
                    "name": "",
                    "type": "uint256"
                }
            ],
            "stateMutability": "view",
            "type": "function"
        },
        {
            "inputs": [],
            "name": "delArr",
            "outputs": [],
            "stateMutability": "nonpayable",
            "type": "function"
        },
        {
            "inputs": [],
            "name": "length",
            "outputs": [
                {
                    "internalType": "uint256",
                    "name": "",
                    "type": "uint256"
                }
            ],
            "stateMutability": "view",
            "type": "function"
        },
        {
            "inputs": [
                {
                    "internalType": "uint256",
                    "name": "index",
                    "type": "uint256"
                },
                {
                    "internalType": "uint256",
                    "name": "value",
                    "type": "uint256"
                }
            ],
            "name": "settter",
            "outputs": [],
            "stateMutability": "nonpayable",
            "type": "function"
        }
    ],
    "bytecode": "61012060405260016080908152600260a052600360c052600460e052600561010081905261002f9160009161007d565b5034801561003c57600080fd5b506040805160a081018252600a815260146020820152601e91810191909152602860608201526032608082015261007790600090600561007d565b506100d5565b82600581019282156100b0579160200282015b828111156100b0578251829060ff16905591602001919060010190610090565b506100bc9291506100c0565b5090565b5b808211156100bc57600081556001016100c1565b6102bb806100e46000396000f3fe608060405234801561001057600080fd5b50600436106100625760003560e01c80631f7b6d32146100675780635768d1591461007d578063647f65aa1461009d5780638fafea71146100b0578063f0fdf834146100c5578063f3dd3e2d146100d8575b600080fd5b60055b6040519081526020015b60405180910390f35b61009061008b3660046101bb565b6100e2565b60405161007491906101d4565b61006a6100ab3660046101bb565b61015c565b6100c36100be366004610205565b610173565b005b61006a6100d33660046101bb565b61018d565b6100c36000600255565b6100ea61019d565b60005b600581101561012757610100818461023d565b6005826005811061011357610113610256565b01558061011f8161026c565b9150506100ed565b506040805160a081019182905290600590819081845b81548152602001906001019080831161013d5750505050509050919050565b6000816005811061016c57600080fd5b0154905081565b806000836005811061018757610187610256565b01555050565b6005816005811061016c57600080fd5b6040518060a001604052806005906020820280368337509192915050565b6000602082840312156101cd57600080fd5b5035919050565b60a08101818360005b60058110156101fc5781518352602092830192909101906001016101dd565b50505092915050565b6000806040838503121561021857600080fd5b50508035926020909101359150565b634e487b7160e01b600052601160045260246000fd5b8082018082111561025057610250610227565b92915050565b634e487b7160e01b600052603260045260246000fd5b60006001820161027e5761027e610227565b506001019056fea2646970667358221220fcdb609fd93afa40ded48780cdcbcc122bdf5cf30624553a4105bce1639afbdd64736f6c63430008110033",
    "sourcePath": "d:/Blockchain Development/Solidity/intro_to_solidity/fixed_array.sol",
    "compiler": {
        "name": "solc",
        "version": "0.8.17+commit.8df45f5f"
    },
    "functionHashes": {
        "a(uint256)": "f0fdf834",
        "addItemUsingLoop(uint256)": "5768d159",
        "ar(uint256)": "647f65aa",
        "delArr()": "f3dd3e2d",
        "length()": "1f7b6d32",
        "settter(uint256,uint256)": "8fafea71"
    },
    "gasEstimates": {
        "creation": {
            "codeDepositCost": "139800",
            "executionCost": "infinite",
            "totalCost": "infinite"
        },
        "external": {
            "a(uint256)": "2473",
            "addItemUsingLoop(uint256)": "infinite",
            "ar(uint256)": "2429",
            "delArr()": "5226",
            "length()": "148",
            "settter(uint256,uint256)": "22427"
        }
    }
}