{
    "contractName": "B",
    "abi": [
        {
            "inputs": [],
            "name": "n",
            "outputs": [
                {
                    "internalType": "string",
                    "name": "",
                    "type": "string"
                }
            ],
            "stateMutability": "pure",
            "type": "function"
        }
    ],
    "bytecode": "608060405234801561001057600080fd5b5060e18061001f6000396000f3fe6080604052348015600f57600080fd5b506004361060285760003560e01c80632e52d60614602d575b600080fd5b6040805180820182526009815268249030b69034b7102160b91b6020820152905160569190605f565b60405180910390f35b600060208083528351808285015260005b81811015608a578581018301518582016040015282016070565b506000604082860101526040601f19601f830116850101925050509291505056fea264697066735822122060173d6972cd431e49d6f32bc91ba896a94d57646cf598d6850b6b9be1470c2764736f6c63430008110033",
    "sourcePath": "d:/Blockchain Development/Solidity/intro_to_solidity/inheritance.sol",
    "compiler": {
        "name": "solc",
        "version": "0.8.17+commit.8df45f5f"
    },
    "functionHashes": {
        "n()": "2e52d606"
    },
    "gasEstimates": {
        "creation": {
            "codeDepositCost": "45000",
            "executionCost": "99",
            "totalCost": "45099"
        },
        "external": {
            "n()": "infinite"
        }
    }
}