{
    "contractName": "breakcontinue",
    "abi": [
        {
            "inputs": [],
            "name": "breakCon",
            "outputs": [
                {
                    "internalType": "uint256",
                    "name": "",
                    "type": "uint256"
                }
            ],
            "stateMutability": "pure",
            "type": "function"
        }
    ],
    "bytecode": "608060405234801561001057600080fd5b5060f88061001f6000396000f3fe6080604052348015600f57600080fd5b506004361060285760003560e01c8063fb649f3614602d575b600080fd5b60336045565b60405190815260200160405180910390f35b600080805b600a811015607a5760088114606b5760098114607a57606881836096565b91505b8060738160ac565b915050604a565b50919050565b634e487b7160e01b600052601160045260246000fd5b8082018082111560a65760a66080565b92915050565b60006001820160bb5760bb6080565b506001019056fea26469706673582212203eb0f8a717a6425fa32f64dc8870fb12f8819a2bcc44a7023269deb2818746be64736f6c63430008110033",
    "sourcePath": "d:/Blockchain Development/Solidity/intro_to_solidity/breakcontinue.sol",
    "compiler": {
        "name": "solc",
        "version": "0.8.17+commit.8df45f5f"
    },
    "functionHashes": {
        "breakCon()": "fb649f36"
    },
    "gasEstimates": {
        "creation": {
            "codeDepositCost": "49600",
            "executionCost": "99",
            "totalCost": "49699"
        },
        "external": {
            "breakCon()": "infinite"
        }
    }
}