{
    "contractName": "C",
    "abi": [
        {
            "inputs": [],
            "name": "a",
            "outputs": [
                {
                    "internalType": "uint256",
                    "name": "",
                    "type": "uint256"
                }
            ],
            "stateMutability": "view",
            "type": "function"
        }
    ],
    "bytecode": "6080604052348015600f57600080fd5b50610190600055607d806100246000396000f3fe6080604052348015600f57600080fd5b506004361060285760003560e01c80630dbe671f14602d575b600080fd5b603560005481565b60405190815260200160405180910390f3fea2646970667358221220bbde010c62ea7824c53409577fc6d033f784a48e9dd3fca1bede9ed841bf10c464736f6c63430008110033",
    "sourcePath": "d:/Blockchain Development/Solidity/intro_to_solidity/multipleInheritance.sol",
    "compiler": {
        "name": "solc",
        "version": "0.8.17+commit.8df45f5f"
    },
    "functionHashes": {
        "a()": "0dbe671f"
    },
    "gasEstimates": {
        "creation": {
            "codeDepositCost": "25000",
            "executionCost": "22181",
            "totalCost": "47181"
        },
        "external": {
            "a()": "2261"
        }
    }
}