{
    "contractName": "D",
    "abi": [
        {
            "anonymous": false,
            "inputs": [
                {
                    "indexed": false,
                    "internalType": "string",
                    "name": "name",
                    "type": "string"
                },
                {
                    "indexed": false,
                    "internalType": "uint256",
                    "name": "age",
                    "type": "uint256"
                }
            ],
            "name": "func1",
            "type": "event"
        },
        {
            "inputs": [],
            "name": "fun1",
            "outputs": [],
            "stateMutability": "nonpayable",
            "type": "function"
        }
    ],
    "bytecode": "6080604052348015600f57600080fd5b5060c68061001e6000396000f3fe6080604052348015600f57600080fd5b506004361060285760003560e01c8063446a45b714602d575b600080fd5b60336035565b005b603b603d565b565b604080518181526008818301526736b0b53ab6b232b960c11b60608201526017602082015290517f7259ac5b4557a782e1f7b48df944a6d065128f55c6f2113a004fbbc50e388c529181900360800190a156fea2646970667358221220f8195a32da2f065ad80250cdc45aec1b753df7914fdb4be0d18b4580e5e0f70164736f6c63430008110033",
    "sourcePath": "d:/Blockchain Development/Solidity/intro_to_solidity/callingparentfromchild.sol",
    "compiler": {
        "name": "solc",
        "version": "0.8.17+commit.8df45f5f"
    },
    "functionHashes": {
        "fun1()": "446a45b7"
    },
    "gasEstimates": {
        "creation": {
            "codeDepositCost": "39600",
            "executionCost": "93",
            "totalCost": "39693"
        },
        "external": {
            "fun1()": "2034"
        }
    }
}