{
    "contractName": "D",
    "abi": [
        {
            "inputs": [],
            "stateMutability": "nonpayable",
            "type": "constructor"
        },
        {
            "inputs": [],
            "name": "a",
            "outputs": [
                {
                    "internalType": "uint256",
                    "name": "",
                    "type": "uint256"
                }
            ],
            "stateMutability": "view",
            "type": "function"
        },
        {
            "inputs": [],
            "name": "b",
            "outputs": [
                {
                    "internalType": "uint256",
                    "name": "",
                    "type": "uint256"
                }
            ],
            "stateMutability": "view",
            "type": "function"
        }
    ],
    "bytecode": "6080604052348015600f57600080fd5b50600a6000556014600155608f806100286000396000f3fe6080604052348015600f57600080fd5b506004361060325760003560e01c80630dbe671f1460375780634df7e3d0146051575b600080fd5b603f60005481565b60405190815260200160405180910390f35b603f6001548156fea2646970667358221220ec2b809e257e4dfff9c4a1a3030c465fab12ef791074c81cad49b5b65ec0405264736f6c63430008110033",
    "sourcePath": "d:/Blockchain Development/Solidity/intro_to_solidity/passingparameterstoconstructor.sol",
    "compiler": {
        "name": "solc",
        "version": "0.8.17+commit.8df45f5f"
    },
    "functionHashes": {
        "a()": "0dbe671f",
        "b()": "4df7e3d0"
    },
    "gasEstimates": {
        "creation": {
            "codeDepositCost": "28600",
            "executionCost": "44293",
            "totalCost": "72893"
        },
        "external": {
            "a()": "2261",
            "b()": "2283"
        }
    }
}