{
    "contractName": "defaultvalues",
    "abi": [
        {
            "inputs": [],
            "name": "a",
            "outputs": [
                {
                    "internalType": "uint256",
                    "name": "",
                    "type": "uint256"
                }
            ],
            "stateMutability": "view",
            "type": "function"
        },
        {
            "inputs": [],
            "name": "b",
            "outputs": [
                {
                    "internalType": "int256",
                    "name": "",
                    "type": "int256"
                }
            ],
            "stateMutability": "view",
            "type": "function"
        },
        {
            "inputs": [],
            "name": "c",
            "outputs": [
                {
                    "internalType": "string",
                    "name": "",
                    "type": "string"
                }
            ],
            "stateMutability": "view",
            "type": "function"
        },
        {
            "inputs": [],
            "name": "d",
            "outputs": [
                {
                    "internalType": "address",
                    "name": "",
                    "type": "address"
                }
            ],
            "stateMutability": "view",
            "type": "function"
        },
        {
            "inputs": [],
            "name": "e",
            "outputs": [
                {
                    "internalType": "bool",
                    "name": "",
                    "type": "bool"
                }
            ],
            "stateMutability": "view",
            "type": "function"
        },
        {
            "inputs": [],
            "name": "f",
            "outputs": [
                {
                    "internalType": "bytes32",
                    "name": "",
                    "type": "bytes32"
                }
            ],
            "stateMutability": "view",
            "type": "function"
        }
    ],
    "bytecode": "608060405234801561001057600080fd5b50610245806100206000396000f3fe608060405234801561001057600080fd5b50600436106100625760003560e01c80630dbe671f1461006757806326121ff0146100835780634df7e3d01461008c5780638a054ac214610095578063c3da42b8146100c0578063ffae15ba146100d5575b600080fd5b61007060005481565b6040519081526020015b60405180910390f35b61007060045481565b61007060015481565b6003546100a8906001600160a01b031681565b6040516001600160a01b03909116815260200161007a565b6100c86100f9565b60405161007a9190610187565b6003546100e990600160a01b900460ff1681565b604051901515815260200161007a565b60028054610106906101d5565b80601f0160208091040260200160405190810160405280929190818152602001828054610132906101d5565b801561017f5780601f106101545761010080835404028352916020019161017f565b820191906000526020600020905b81548152906001019060200180831161016257829003601f168201915b505050505081565b600060208083528351808285015260005b818110156101b457858101830151858201604001528201610198565b506000604082860101526040601f19601f8301168501019250505092915050565b600181811c908216806101e957607f821691505b60208210810361020957634e487b7160e01b600052602260045260246000fd5b5091905056fea2646970667358221220ba2a5e8f47156ccd76d429437793979281a7e23171626890355558b4f8fa29e464736f6c63430008110033",
    "sourcePath": "d:/Blockchain Development/Solidity/intro_to_solidity/defaultValues.sol",
    "compiler": {
        "name": "solc",
        "version": "0.8.17+commit.8df45f5f"
    },
    "functionHashes": {
        "a()": "0dbe671f",
        "b()": "4df7e3d0",
        "c()": "c3da42b8",
        "d()": "8a054ac2",
        "e()": "ffae15ba",
        "f()": "26121ff0"
    },
    "gasEstimates": {
        "creation": {
            "codeDepositCost": "116200",
            "executionCost": "165",
            "totalCost": "116365"
        },
        "external": {
            "a()": "2262",
            "b()": "2306",
            "c()": "infinite",
            "d()": "2381",
            "e()": "2415",
            "f()": "2284"
        }
    }
}