{
    "contractName": "dynamicArray",
    "abi": [
        {
            "inputs": [],
            "stateMutability": "nonpayable",
            "type": "constructor"
        },
        {
            "inputs": [
                {
                    "internalType": "uint256",
                    "name": "",
                    "type": "uint256"
                }
            ],
            "name": "a",
            "outputs": [
                {
                    "internalType": "uint256",
                    "name": "",
                    "type": "uint256"
                }
            ],
            "stateMutability": "view",
            "type": "function"
        },
        {
            "inputs": [
                {
                    "internalType": "uint256",
                    "name": "x",
                    "type": "uint256"
                }
            ],
            "name": "addItemUsingLoop",
            "outputs": [
                {
                    "internalType": "uint256[5]",
                    "name": "",
                    "type": "uint256[5]"
                }
            ],
            "stateMutability": "nonpayable",
            "type": "function"
        },
        {
            "inputs": [
                {
                    "internalType": "uint256",
                    "name": "",
                    "type": "uint256"
                }
            ],
            "name": "arr",
            "outputs": [
                {
                    "internalType": "uint256",
                    "name": "",
                    "type": "uint256"
                }
            ],
            "stateMutability": "view",
            "type": "function"
        },
        {
            "inputs": [],
            "name": "delArr",
            "outputs": [],
            "stateMutability": "nonpayable",
            "type": "function"
        },
        {
            "inputs": [],
            "name": "len",
            "outputs": [
                {
                    "internalType": "uint256",
                    "name": "",
                    "type": "uint256"
                }
            ],
            "stateMutability": "view",
            "type": "function"
        },
        {
            "inputs": [],
            "name": "pop",
            "outputs": [],
            "stateMutability": "nonpayable",
            "type": "function"
        },
        {
            "inputs": [
                {
                    "internalType": "uint256",
                    "name": "item",
                    "type": "uint256"
                }
            ],
            "name": "push",
            "outputs": [],
            "stateMutability": "nonpayable",
            "type": "function"
        }
    ],
    "bytecode": "608060405234801561001057600080fd5b506040805160a081018252600a815260146020820152601e91810191909152602860608201526032608082015261004b906000906005610051565b506100b6565b828054828255906000526020600020908101928215610091579160200282015b82811115610091578251829060ff16905591602001919060010190610071565b5061009d9291506100a1565b5090565b5b8082111561009d57600081556001016100a2565b610340806100c56000396000f3fe608060405234801561001057600080fd5b506004361061007d5760003560e01c8063959ac4841161005b578063959ac484146100cc578063a4ece52c1461010e578063f0fdf83414610116578063f3dd3e2d1461012957600080fd5b806356d88e27146100825780635768d1591461009957806371e5ee5f146100b9575b600080fd5b6000545b6040519081526020015b60405180910390f35b6100ac6100a736600461024c565b610131565b6040516100909190610265565b6100866100c736600461024c565b6101ac565b61010c6100da36600461024c565b600080546001810182559080527f290decd9548b62a8d60345a988386fc84ba6bc95484008f6362f93160ef3e5630155565b005b61010c6101cd565b61008661012436600461024c565b6101f6565b61010c61020d565b61013961022e565b60005b60058110156101765761014f81846102ac565b60018260058110610162576101626102c5565b01558061016e816102db565b91505061013c565b506040805160a08101918290529060019060059082845b81548152602001906001019080831161018d5750505050509050919050565b600081815481106101bc57600080fd5b600091825260209091200154905081565b60008054806101de576101de6102f4565b60019003818190600052602060002001600090559055565b6001816005811061020657600080fd5b0154905081565b6000600281548110610221576102216102c5565b6000918252602082200155565b6040518060a001604052806005906020820280368337509192915050565b60006020828403121561025e57600080fd5b5035919050565b60a08101818360005b600581101561028d57815183526020928301929091019060010161026e565b50505092915050565b634e487b7160e01b600052601160045260246000fd5b808201808211156102bf576102bf610296565b92915050565b634e487b7160e01b600052603260045260246000fd5b6000600182016102ed576102ed610296565b5060010190565b634e487b7160e01b600052603160045260246000fdfea264697066735822122084f3581ee42f8e045ebeafedad12098194bd4766d5613670504c4de49928d0af64736f6c63430008110033",
    "sourcePath": "d:/Blockchain Development/Solidity/intro_to_solidity/dynamic_array.sol",
    "compiler": {
        "name": "solc",
        "version": "0.8.17+commit.8df45f5f"
    },
    "functionHashes": {
        "a(uint256)": "f0fdf834",
        "addItemUsingLoop(uint256)": "5768d159",
        "arr(uint256)": "71e5ee5f",
        "delArr()": "f3dd3e2d",
        "len()": "56d88e27",
        "pop()": "a4ece52c",
        "push(uint256)": "959ac484"
    },
    "gasEstimates": {
        "creation": {
            "codeDepositCost": "166400",
            "executionCost": "infinite",
            "totalCost": "infinite"
        },
        "external": {
            "a(uint256)": "2451",
            "addItemUsingLoop(uint256)": "infinite",
            "arr(uint256)": "4609",
            "delArr()": "7396",
            "len()": "2271",
            "pop()": "29467",
            "push(uint256)": "46542"
        }
    }
}