{
    "contractName": "dynamic_bytes_array",
    "abi": [
        {
            "inputs": [],
            "name": "b1",
            "outputs": [
                {
                    "internalType": "bytes",
                    "name": "",
                    "type": "bytes"
                }
            ],
            "stateMutability": "view",
            "type": "function"
        },
        {
            "inputs": [],
            "name": "deleteElement",
            "outputs": [],
            "stateMutability": "nonpayable",
            "type": "function"
        },
        {
            "inputs": [
                {
                    "internalType": "uint256",
                    "name": "i",
                    "type": "uint256"
                }
            ],
            "name": "indexElement",
            "outputs": [
                {
                    "internalType": "bytes1",
                    "name": "",
                    "type": "bytes1"
                }
            ],
            "stateMutability": "view",
            "type": "function"
        },
        {
            "inputs": [],
            "name": "lengthBytes",
            "outputs": [
                {
                    "internalType": "uint256",
                    "name": "",
                    "type": "uint256"
                }
            ],
            "stateMutability": "view",
            "type": "function"
        },
        {
            "inputs": [],
            "name": "pushElement",
            "outputs": [],
            "stateMutability": "nonpayable",
            "type": "function"
        }
    ],
    "bytecode": "608060405234801561001057600080fd5b506103d6806100206000396000f3fe608060405234801561001057600080fd5b50600436106100575760003560e01c80630317d5f31461005c5780632874715114610066578063e9d840cd14610081578063ee495002146100ad578063fd57e9f9146100c2575b600080fd5b6100646100ca565b005b61006e61013e565b6040519081526020015b60405180910390f35b61009461008f3660046102e9565b610152565b6040516001600160f81b03199091168152602001610078565b6100b561019e565b6040516100789190610302565b61006461022c565b6000808054806100d990610350565b80601f81036100f85783600052602060002060ff1984168155603f9350505b506002919091019091558154600116156101215790600052602060002090602091828204019190065b81546078601f929092036101000a91820260ff9092021916179055565b600080805461014c90610350565b92915050565b60008082815461016190610350565b811061016f5761016f61038a565b81546001161561018e5790600052602060002090602091828204019190065b9054600160f81b911a0292915050565b600080546101ab90610350565b80601f01602080910402602001604051908101604052809291908181526020018280546101d790610350565b80156102245780601f106101f957610100808354040283529160200191610224565b820191906000526020600020905b81548152906001019060200180831161020757829003601f168201915b505050505081565b6000805461023981610350565b8061025457634e487b7160e01b600052603160045260246000fd5b601f8111801561026b576001811461028d576102e3565b6001826021036101000a036001830392506002830284821916179350506102e3565b83600052602060002082602081146102d0576020600019808601828104949094018054601f959095169092036101000a01199092168255600119909401936102e0565b81546000835560ff1916603e1794505b50505b50509055565b6000602082840312156102fb57600080fd5b5035919050565b600060208083528351808285015260005b8181101561032f57858101830151858201604001528201610313565b506000604082860101526040601f19601f8301168501019250505092915050565b600181811c9082168061036457607f821691505b60208210810361038457634e487b7160e01b600052602260045260246000fd5b50919050565b634e487b7160e01b600052603260045260246000fdfea2646970667358221220b6a316a1011cfcf851973ef4990d8435f2ffcbe945a3025351ed78bc4ba20fba64736f6c63430008110033",
    "sourcePath": "d:/Blockchain Development/Solidity/intro_to_solidity/dynamic_bytes.sol",
    "compiler": {
        "name": "solc",
        "version": "0.8.17+commit.8df45f5f"
    },
    "functionHashes": {
        "b1()": "ee495002",
        "deleteElement()": "fd57e9f9",
        "indexElement(uint256)": "e9d840cd",
        "lengthBytes()": "28747151",
        "pushElement()": "0317d5f3"
    },
    "gasEstimates": {
        "creation": {
            "codeDepositCost": "196400",
            "executionCost": "238",
            "totalCost": "196638"
        },
        "external": {
            "b1()": "infinite",
            "deleteElement()": "50619",
            "indexElement(uint256)": "6918",
            "lengthBytes()": "2427",
            "pushElement()": "74759"
        }
    }
}