{
    "contractName": "dynamicArray",
    "abi": [
        {
            "inputs": [
                {
                    "internalType": "uint256",
                    "name": "",
                    "type": "uint256"
                }
            ],
            "name": "a",
            "outputs": [
                {
                    "internalType": "uint256",
                    "name": "",
                    "type": "uint256"
                }
            ],
            "stateMutability": "view",
            "type": "function"
        },
        {
            "inputs": [
                {
                    "internalType": "uint256",
                    "name": "",
                    "type": "uint256"
                }
            ],
            "name": "arr",
            "outputs": [
                {
                    "internalType": "uint256",
                    "name": "",
                    "type": "uint256"
                }
            ],
            "stateMutability": "view",
            "type": "function"
        },
        {
            "inputs": [],
            "name": "len",
            "outputs": [
                {
                    "internalType": "uint256",
                    "name": "",
                    "type": "uint256"
                }
            ],
            "stateMutability": "view",
            "type": "function"
        },
        {
            "inputs": [],
            "name": "pop",
            "outputs": [],
            "stateMutability": "nonpayable",
            "type": "function"
        },
        {
            "inputs": [
                {
                    "internalType": "uint256",
                    "name": "item",
                    "type": "uint256"
                }
            ],
            "name": "push",
            "outputs": [],
            "stateMutability": "nonpayable",
            "type": "function"
        },
        {
            "inputs": [],
            "name": "returnArray",
            "outputs": [
                {
                    "internalType": "uint256[]",
                    "name": "",
                    "type": "uint256[]"
                }
            ],
            "stateMutability": "view",
            "type": "function"
        }
    ],
    "bytecode": "610120604052600a6080908152601460a052601e60c052602860e05260326101005261002f906001906005610042565b5034801561003c57600080fd5b506100a7565b828054828255906000526020600020908101928215610082579160200282015b82811115610082578251829060ff16905591602001919060010190610062565b5061008e929150610092565b5090565b5b8082111561008e5760008155600101610093565b610262806100b66000396000f3fe608060405234801561001057600080fd5b50600436106100625760003560e01c80633cac14c81461006757806356d88e271461008557806371e5ee5f14610097578063959ac484146100aa578063a4ece52c146100ec578063f0fdf834146100f4575b600080fd5b61006f610107565b60405161007c91906101b9565b60405180910390f35b6000545b60405190815260200161007c565b6100896100a53660046101fd565b61015f565b6100ea6100b83660046101fd565b600080546001810182559080527f290decd9548b62a8d60345a988386fc84ba6bc95484008f6362f93160ef3e5630155565b005b6100ea610180565b6100896101023660046101fd565b6101a9565b6060600180548060200260200160405190810160405280929190818152602001828054801561015557602002820191906000526020600020905b815481526020019060010190808311610141575b5050505050905090565b6000818154811061016f57600080fd5b600091825260209091200154905081565b600080548061019157610191610216565b60019003818190600052602060002001600090559055565b6001818154811061016f57600080fd5b6020808252825182820181905260009190848201906040850190845b818110156101f1578351835292840192918401916001016101d5565b50909695505050505050565b60006020828403121561020f57600080fd5b5035919050565b634e487b7160e01b600052603160045260246000fdfea26469706673582212204ee291cf9d1698d6c815fc1d199f09651fd72377b5c0a5b31ff5876db72e41d564736f6c63430008110033",
    "sourcePath": "d:/Blockchain Development/Solidity/intro_to_solidity/dynamic_array.sol",
    "compiler": {
        "name": "solc",
        "version": "0.8.17+commit.8df45f5f"
    },
    "functionHashes": {
        "a(uint256)": "f0fdf834",
        "arr(uint256)": "71e5ee5f",
        "len()": "56d88e27",
        "pop()": "a4ece52c",
        "push(uint256)": "959ac484",
        "returnArray()": "3cac14c8"
    },
    "gasEstimates": {
        "creation": {
            "codeDepositCost": "122000",
            "executionCost": "infinite",
            "totalCost": "infinite"
        },
        "external": {
            "a(uint256)": "4663",
            "arr(uint256)": "4597",
            "len()": "2281",
            "pop()": "29511",
            "push(uint256)": "46586",
            "returnArray()": "infinite"
        }
    }
}