{
    "contractName": "Enum",
    "abi": [
        {
            "inputs": [],
            "name": "chnage",
            "outputs": [],
            "stateMutability": "nonpayable",
            "type": "function"
        },
        {
            "inputs": [],
            "name": "lottery",
            "outputs": [
                {
                    "internalType": "uint256",
                    "name": "",
                    "type": "uint256"
                }
            ],
            "stateMutability": "view",
            "type": "function"
        },
        {
            "inputs": [],
            "name": "u1",
            "outputs": [
                {
                    "internalType": "enum Enum.user",
                    "name": "",
                    "type": "uint8"
                }
            ],
            "stateMutability": "view",
            "type": "function"
        }
    ],
    "bytecode": "60806040526000805460ff191690556103e860015534801561002057600080fd5b50610112806100306000396000f3fe6080604052348015600f57600080fd5b5060043610603c5760003560e01c80631aa3561014604157806356767cc5146061578063ba13a572146069575b600080fd5b600054604d9060ff1681565b6040516058919060b5565b60405180910390f35b6067607e565b005b607160015481565b6040519081526020016058565b6000805460ff1660028111156093576093609f565b03609d5760006001555b565b634e487b7160e01b600052602160045260246000fd5b602081016003831060d657634e487b7160e01b600052602160045260246000fd5b9190529056fea2646970667358221220d3115d2b9c84a4b9c626f49dcfefc077f46a67df74c851a2710b3db68663910e64736f6c63430008110033",
    "sourcePath": "d:/Blockchain Development/Solidity/intro_to_solidity/enum.sol",
    "compiler": {
        "name": "solc",
        "version": "0.8.17+commit.8df45f5f"
    },
    "functionHashes": {
        "chnage()": "56767cc5",
        "lottery()": "ba13a572",
        "u1()": "1aa35610"
    },
    "gasEstimates": {
        "creation": {
            "codeDepositCost": "54800",
            "executionCost": "46429",
            "totalCost": "101229"
        },
        "external": {
            "chnage()": "7305",
            "lottery()": "2317",
            "u1()": "2329"
        }
    }
}