{
    "contractName": "forConstructor",
    "abi": [
        {
            "inputs": [
                {
                    "internalType": "string",
                    "name": "name",
                    "type": "string"
                },
                {
                    "internalType": "uint256",
                    "name": "age",
                    "type": "uint256"
                },
                {
                    "internalType": "address",
                    "name": "acc",
                    "type": "address"
                }
            ],
            "stateMutability": "nonpayable",
            "type": "constructor"
        },
        {
            "inputs": [],
            "name": "emp0",
            "outputs": [
                {
                    "internalType": "string",
                    "name": "name",
                    "type": "string"
                },
                {
                    "internalType": "uint256",
                    "name": "age",
                    "type": "uint256"
                },
                {
                    "internalType": "address",
                    "name": "acc",
                    "type": "address"
                }
            ],
            "stateMutability": "view",
            "type": "function"
        },
        {
            "inputs": [],
            "name": "updateEmp",
            "outputs": [],
            "stateMutability": "nonpayable",
            "type": "function"
        }
    ],
    "bytecode": "608060405234801561001057600080fd5b506040516106f83803806106f883398101604081905261002f91610099565b600061003b8482610205565b50600191909155600280546001600160a01b0319166001600160a01b03909216919091179055506102c4565b634e487b7160e01b600052604160045260246000fd5b80516001600160a01b038116811461009457600080fd5b919050565b6000806000606084860312156100ae57600080fd5b83516001600160401b03808211156100c557600080fd5b818601915086601f8301126100d957600080fd5b8151818111156100eb576100eb610067565b604051601f8201601f19908116603f0116810190838211818310171561011357610113610067565b8160405282815260209350898484870101111561012f57600080fd5b600091505b828210156101515784820184015181830185015290830190610134565b600084848301015280975050505080860151935050506101736040850161007d565b90509250925092565b600181811c9082168061019057607f821691505b6020821081036101b057634e487b7160e01b600052602260045260246000fd5b50919050565b601f82111561020057600081815260208120601f850160051c810160208610156101dd5750805b601f850160051c820191505b818110156101fc578281556001016101e9565b5050505b505050565b81516001600160401b0381111561021e5761021e610067565b6102328161022c845461017c565b846101b6565b602080601f831160018114610267576000841561024f5750858301515b600019600386901b1c1916600185901b1785556101fc565b600085815260208120601f198616915b8281101561029657888601518255948401946001909101908401610277565b50858210156102b45787850151600019600388901b60f8161c191681555b5050505050600190811b01905550565b610425806102d36000396000f3fe608060405234801561001057600080fd5b50600436106100365760003560e01c806309993dcc1461003b5780632bbb14d71461005b575b600080fd5b610043610065565b6040516100529392919061022a565b60405180910390f35b61006361010d565b005b60008054819061007490610290565b80601f01602080910402602001604051908101604052809291908181526020018280546100a090610290565b80156100ed5780601f106100c2576101008083540402835291602001916100ed565b820191906000526020600020905b8154815290600101906020018083116100d057829003601f168201915b5050505060018301546002909301549192916001600160a01b0316905083565b61013a6040518060600160405280606081526020016000815260200160006001600160a01b031681525090565b600060405180606001604052908160008201805461015790610290565b80601f016020809104026020016040519081016040528092919081815260200182805461018390610290565b80156101d05780601f106101a5576101008083540402835291602001916101d0565b820191906000526020600020905b8154815290600101906020018083116101b357829003601f168201915b505050918352505060018201546020808301919091526002909201546001600160a01b031660409182015280518082019091526004815263546f726960e01b91810191909152909150600090610226908261032f565b5050565b606081526000845180606084015260005b81811015610258576020818801810151608086840101520161023b565b506000608082850181019190915260208401959095526001600160a01b0393909316604083015250601f909101601f19160101919050565b600181811c908216806102a457607f821691505b6020821081036102c457634e487b7160e01b600052602260045260246000fd5b50919050565b634e487b7160e01b600052604160045260246000fd5b601f82111561032a57600081815260208120601f850160051c810160208610156103075750805b601f850160051c820191505b8181101561032657828155600101610313565b5050505b505050565b815167ffffffffffffffff811115610349576103496102ca565b61035d816103578454610290565b846102e0565b602080601f831160018114610392576000841561037a5750858301515b600019600386901b1c1916600185901b178555610326565b600085815260208120601f198616915b828110156103c1578886015182559484019460019091019084016103a2565b50858210156103df5787850151600019600388901b60f8161c191681555b5050505050600190811b0190555056fea264697066735822122062ac645a6e3bf405a32f96d62e718c30b649b720338a8c4dcea047b53f4932a164736f6c63430008110033",
    "sourcePath": "d:/Blockchain Development/Solidity/intro_to_solidity/structure.sol",
    "compiler": {
        "name": "solc",
        "version": "0.8.17+commit.8df45f5f"
    },
    "functionHashes": {
        "emp0()": "09993dcc",
        "updateEmp()": "2bbb14d7"
    },
    "gasEstimates": {
        "creation": {
            "codeDepositCost": "212200",
            "executionCost": "infinite",
            "totalCost": "infinite"
        },
        "external": {
            "emp0()": "infinite",
            "updateEmp()": "infinite"
        }
    }
}