{
    "contractName": "getEth",
    "abi": [
        {
            "inputs": [],
            "name": "checkBak",
            "outputs": [
                {
                    "internalType": "uint256",
                    "name": "",
                    "type": "uint256"
                }
            ],
            "stateMutability": "view",
            "type": "function"
        },
        {
            "stateMutability": "payable",
            "type": "receive"
        }
    ],
    "bytecode": "6080604052348015600f57600080fd5b5060808061001e6000396000f3fe60806040526004361060205760003560e01c80635686682314602b57600080fd5b36602657005b600080fd5b348015603657600080fd5b504760405190815260200160405180910390f3fea2646970667358221220793ddad7e8c3762d0d2003487fe220467cb66b0a54dd0375fe8822c8b90ca60664736f6c63430008110033",
    "sourcePath": "d:/Blockchain Development/Solidity/intro_to_solidity/sendcalltransfer.sol",
    "compiler": {
        "name": "solc",
        "version": "0.8.17+commit.8df45f5f"
    },
    "functionHashes": {
        "checkBak()": "56866823"
    },
    "gasEstimates": {
        "creation": {
            "codeDepositCost": "25600",
            "executionCost": "75",
            "totalCost": "25675"
        },
        "external": {
            "checkBak()": "148"
        }
    }
}