{
    "contractName": "newEmp",
    "abi": [
        {
            "inputs": [
                {
                    "internalType": "uint256",
                    "name": "",
                    "type": "uint256"
                }
            ],
            "name": "emp",
            "outputs": [
                {
                    "internalType": "string",
                    "name": "name",
                    "type": "string"
                },
                {
                    "internalType": "uint256",
                    "name": "age",
                    "type": "uint256"
                },
                {
                    "internalType": "address",
                    "name": "acc",
                    "type": "address"
                }
            ],
            "stateMutability": "view",
            "type": "function"
        },
        {
            "inputs": [],
            "name": "setEmp",
            "outputs": [],
            "stateMutability": "nonpayable",
            "type": "function"
        }
    ],
    "bytecode": "608060405234801561001057600080fd5b50610597806100206000396000f3fe608060405234801561001057600080fd5b50600436106100365760003560e01c80635ec027a21461003b578063dbe7e25714610045575b600080fd5b610043610070565b005b610058610053366004610383565b6102b7565b6040516100679392919061039c565b60405180910390f35b6040805160a08082018352600660608084019182526529b7bab930bb60d11b608080860191909152918452601860208086019190915273617f2e2fd72fd9d5503197092ac168c91465e7f2858701528551938401865260088483019081526726b0b53ab6b232b960c11b938501939093529183526015838301527317f6ad8ef982297579c203069c1dbffe4348c3728386015284518082018652908152600091810182905293840152909160408051808201825260058152644e61696e6160d81b602080830191909152908352601f90830152339082015260008054600181018255908052835184916003027f290decd9548b62a8d60345a988386fc84ba6bc95484008f6362f93160ef3e5630190819061018b90826104a1565b506020820151600180830191909155604090920151600290910180546001600160a01b039092166001600160a01b03199092169190911790556000805491820181558052825183916003027f290decd9548b62a8d60345a988386fc84ba6bc95484008f6362f93160ef3e5630190819061020590826104a1565b506020820151600180830191909155604090920151600290910180546001600160a01b039092166001600160a01b03199092169190911790556000805491820181558052815182916003027f290decd9548b62a8d60345a988386fc84ba6bc95484008f6362f93160ef3e5630190819061027f90826104a1565b5060208201516001820155604090910151600290910180546001600160a01b0319166001600160a01b03909216919091179055505050565b600081815481106102c757600080fd5b90600052602060002090600302016000915090508060000180546102ea90610418565b80601f016020809104026020016040519081016040528092919081815260200182805461031690610418565b80156103635780601f1061033857610100808354040283529160200191610363565b820191906000526020600020905b81548152906001019060200180831161034657829003601f168201915b5050505060018301546002909301549192916001600160a01b0316905083565b60006020828403121561039557600080fd5b5035919050565b606081526000845180606084015260005b818110156103ca57602081880181015160808684010152016103ad565b506000608082850181019190915260208401959095526001600160a01b0393909316604083015250601f909101601f19160101919050565b634e487b7160e01b600052604160045260246000fd5b600181811c9082168061042c57607f821691505b60208210810361044c57634e487b7160e01b600052602260045260246000fd5b50919050565b601f82111561049c57600081815260208120601f850160051c810160208610156104795750805b601f850160051c820191505b8181101561049857828155600101610485565b5050505b505050565b815167ffffffffffffffff8111156104bb576104bb610402565b6104cf816104c98454610418565b84610452565b602080601f83116001811461050457600084156104ec5750858301515b600019600386901b1c1916600185901b178555610498565b600085815260208120601f198616915b8281101561053357888601518255948401946001909101908401610514565b50858210156105515787850151600019600388901b60f8161c191681555b5050505050600190811b0190555056fea2646970667358221220db43b72c2cf837032d2300010296841bd28431f4485458b58f73d8455e3d2c8264736f6c63430008110033",
    "sourcePath": "d:/Blockchain Development/Solidity/intro_to_solidity/structure.sol",
    "compiler": {
        "name": "solc",
        "version": "0.8.17+commit.8df45f5f"
    },
    "functionHashes": {
        "emp(uint256)": "dbe7e257",
        "setEmp()": "5ec027a2"
    },
    "gasEstimates": {
        "creation": {
            "codeDepositCost": "286200",
            "executionCost": "324",
            "totalCost": "286524"
        },
        "external": {
            "emp(uint256)": "infinite",
            "setEmp()": "infinite"
        }
    }
}