{
    "contractName": "normalMap",
    "abi": [
        {
            "inputs": [
                {
                    "internalType": "uint256",
                    "name": "",
                    "type": "uint256"
                }
            ],
            "name": "emp_info",
            "outputs": [
                {
                    "internalType": "string",
                    "name": "",
                    "type": "string"
                }
            ],
            "stateMutability": "view",
            "type": "function"
        },
        {
            "inputs": [
                {
                    "internalType": "uint256",
                    "name": "index",
                    "type": "uint256"
                }
            ],
            "name": "getter",
            "outputs": [
                {
                    "internalType": "string",
                    "name": "",
                    "type": "string"
                }
            ],
            "stateMutability": "view",
            "type": "function"
        },
        {
            "inputs": [
                {
                    "internalType": "uint256",
                    "name": "index",
                    "type": "uint256"
                },
                {
                    "internalType": "string",
                    "name": "name",
                    "type": "string"
                }
            ],
            "name": "setter",
            "outputs": [],
            "stateMutability": "nonpayable",
            "type": "function"
        }
    ],
    "bytecode": "608060405234801561001057600080fd5b506104a6806100206000396000f3fe608060405234801561001057600080fd5b50600436106100415760003560e01c8063784445271461004657806394cad55d1461006f578063bcb131c914610082575b600080fd5b6100596100543660046101f0565b610097565b6040516100669190610209565b60405180910390f35b61005961007d3660046101f0565b610131565b61009561009036600461026d565b6101d3565b005b600060208190529081526040902080546100b090610328565b80601f01602080910402602001604051908101604052809291908181526020018280546100dc90610328565b80156101295780601f106100fe57610100808354040283529160200191610129565b820191906000526020600020905b81548152906001019060200180831161010c57829003601f168201915b505050505081565b600081815260208190526040902080546060919061014e90610328565b80601f016020809104026020016040519081016040528092919081815260200182805461017a90610328565b80156101c75780601f1061019c576101008083540402835291602001916101c7565b820191906000526020600020905b8154815290600101906020018083116101aa57829003601f168201915b50505050509050919050565b60008281526020819052604090206101eb82826103b0565b505050565b60006020828403121561020257600080fd5b5035919050565b600060208083528351808285015260005b818110156102365785810183015185820160400152820161021a565b506000604082860101526040601f19601f8301168501019250505092915050565b634e487b7160e01b600052604160045260246000fd5b6000806040838503121561028057600080fd5b82359150602083013567ffffffffffffffff8082111561029f57600080fd5b818501915085601f8301126102b357600080fd5b8135818111156102c5576102c5610257565b604051601f8201601f19908116603f011681019083821181831017156102ed576102ed610257565b8160405282815288602084870101111561030657600080fd5b8260208601602083013760006020848301015280955050505050509250929050565b600181811c9082168061033c57607f821691505b60208210810361035c57634e487b7160e01b600052602260045260246000fd5b50919050565b601f8211156101eb57600081815260208120601f850160051c810160208610156103895750805b601f850160051c820191505b818110156103a857828155600101610395565b505050505050565b815167ffffffffffffffff8111156103ca576103ca610257565b6103de816103d88454610328565b84610362565b602080601f83116001811461041357600084156103fb5750858301515b600019600386901b1c1916600185901b1785556103a8565b600085815260208120601f198616915b8281101561044257888601518255948401946001909101908401610423565b50858210156104605787850151600019600388901b60f8161c191681555b5050505050600190811b0190555056fea26469706673582212201bf5dbbae1037c01d7e82100a714285763d087fb96a8fa367c3a5083c8d03d4d64736f6c63430008110033",
    "sourcePath": "d:/Blockchain Development/Solidity/intro_to_solidity/mappingAdvancedMapping.sol",
    "compiler": {
        "name": "solc",
        "version": "0.8.17+commit.8df45f5f"
    },
    "functionHashes": {
        "emp_info(uint256)": "78444527",
        "getter(uint256)": "94cad55d",
        "setter(uint256,string)": "bcb131c9"
    },
    "gasEstimates": {
        "creation": {
            "codeDepositCost": "238000",
            "executionCost": "281",
            "totalCost": "238281"
        },
        "external": {
            "emp_info(uint256)": "infinite",
            "getter(uint256)": "infinite",
            "setter(uint256,string)": "infinite"
        }
    }
}