{
    "contractName": "terneryOp",
    "abi": [
        {
            "inputs": [
                {
                    "internalType": "uint256",
                    "name": "x",
                    "type": "uint256"
                }
            ],
            "name": "terneryOpp",
            "outputs": [
                {
                    "internalType": "string",
                    "name": "",
                    "type": "string"
                }
            ],
            "stateMutability": "pure",
            "type": "function"
        }
    ],
    "bytecode": "608060405234801561001057600080fd5b5061014d806100206000396000f3fe608060405234801561001057600080fd5b506004361061002b5760003560e01c80631d0fbf1114610030575b600080fd5b61004361003e3660046100b0565b610059565b60405161005091906100c9565b60405180910390f35b60606000600a831161008857604051806040016040528060058152602001642637bbb2b960d91b8152506100a9565b6040518060400160405280600781526020016623b932b0ba32b960c91b8152505b9392505050565b6000602082840312156100c257600080fd5b5035919050565b600060208083528351808285015260005b818110156100f6578581018301518582016040015282016100da565b506000604082860101526040601f19601f830116850101925050509291505056fea2646970667358221220c1754edeb239acca3bdd338b3a103da782657afd89c783d21f56f8640129caa564736f6c63430008110033",
    "sourcePath": "d:/Blockchain Development/Solidity/intro_to_solidity/terneryOperator.sol",
    "compiler": {
        "name": "solc",
        "version": "0.8.17+commit.8df45f5f"
    },
    "functionHashes": {
        "terneryOpp(uint256)": "1d0fbf11"
    },
    "gasEstimates": {
        "creation": {
            "codeDepositCost": "66600",
            "executionCost": "117",
            "totalCost": "66717"
        },
        "external": {
            "terneryOpp(uint256)": "infinite"
        }
    }
}