{
    "contractName": "VerifySig",
    "abi": [
        {
            "inputs": [
                {
                    "internalType": "bytes32",
                    "name": "messageHash",
                    "type": "bytes32"
                }
            ],
            "name": "getEthMessageHash",
            "outputs": [
                {
                    "internalType": "bytes32",
                    "name": "",
                    "type": "bytes32"
                }
            ],
            "stateMutability": "pure",
            "type": "function"
        },
        {
            "inputs": [
                {
                    "internalType": "string",
                    "name": "message",
                    "type": "string"
                }
            ],
            "name": "getMessageHash",
            "outputs": [
                {
                    "internalType": "bytes32",
                    "name": "",
                    "type": "bytes32"
                }
            ],
            "stateMutability": "pure",
            "type": "function"
        },
        {
            "inputs": [
                {
                    "internalType": "bytes32",
                    "name": "_ethSignedMessageHash",
                    "type": "bytes32"
                },
                {
                    "internalType": "bytes",
                    "name": "_sig",
                    "type": "bytes"
                }
            ],
            "name": "recover",
            "outputs": [
                {
                    "internalType": "address",
                    "name": "",
                    "type": "address"
                }
            ],
            "stateMutability": "pure",
            "type": "function"
        },
        {
            "inputs": [
                {
                    "internalType": "address",
                    "name": "_signer",
                    "type": "address"
                },
                {
                    "internalType": "string",
                    "name": "_message",
                    "type": "string"
                },
                {
                    "internalType": "bytes",
                    "name": "_sig",
                    "type": "bytes"
                }
            ],
            "name": "verify",
            "outputs": [
                {
                    "internalType": "bool",
                    "name": "",
                    "type": "bool"
                }
            ],
            "stateMutability": "pure",
            "type": "function"
        }
    ],
    "bytecode": "608060405234801561001057600080fd5b506104a0806100206000396000f3fe608060405234801561001057600080fd5b506004361061004c5760003560e01c806319045a25146100515780632dd34f0f146100815780639db52729146100a4578063b446f3b2146100c5575b600080fd5b61006461005f36600461031c565b6100d8565b6040516001600160a01b0390911681526020015b60405180910390f35b61009461008f366004610363565b610157565b6040519015158152602001610078565b6100b76100b23660046103e5565b61019a565b604051908152602001610078565b6100b76100d33660046103fe565b6101ee565b6000806000806100e785610201565b6040805160008152602081018083528b905260ff8316918101919091526060810184905260808101839052929550909350915060019060a0016020604051602081039080840390855afa158015610142573d6000803e3d6000fd5b5050604051601f190151979650505050505050565b600080610163846101ee565b905060006101708261019a565b9050856001600160a01b031661018682866100d8565b6001600160a01b0316149695505050505050565b6040517f194574687265756d205369676e6564204d6573736167653a0a333200000000006020820152603b8101829052600090605b015b604051602081830303815290604052805190602001209050919050565b6000816040516020016101d1919061043b565b6000806000835160411461025b5760405162461bcd60e51b815260206004820152601860248201527f496e76616c6964207369676e6174757265206c65676e74680000000000000000604482015260640160405180910390fd5b50505060208101516040820151606090920151909260009190911a90565b634e487b7160e01b600052604160045260246000fd5b600082601f8301126102a057600080fd5b813567ffffffffffffffff808211156102bb576102bb610279565b604051601f8301601f19908116603f011681019082821181831017156102e3576102e3610279565b816040528381528660208588010111156102fc57600080fd5b836020870160208301376000602085830101528094505050505092915050565b6000806040838503121561032f57600080fd5b82359150602083013567ffffffffffffffff81111561034d57600080fd5b6103598582860161028f565b9150509250929050565b60008060006060848603121561037857600080fd5b83356001600160a01b038116811461038f57600080fd5b9250602084013567ffffffffffffffff808211156103ac57600080fd5b6103b88783880161028f565b935060408601359150808211156103ce57600080fd5b506103db8682870161028f565b9150509250925092565b6000602082840312156103f757600080fd5b5035919050565b60006020828403121561041057600080fd5b813567ffffffffffffffff81111561042757600080fd5b6104338482850161028f565b949350505050565b6000825160005b8181101561045c5760208186018101518583015201610442565b50600092019182525091905056fea2646970667358221220c6a8e321bf4bf2e0dfdc6ed4511bf6d62ab9cea320a7ce1cfed313a94ce6a7e864736f6c63430008110033",
    "sourcePath": "d:/Blockchain Development/Solidity/intro_to_solidity/verifySignature.sol",
    "compiler": {
        "name": "solc",
        "version": "0.8.17+commit.8df45f5f"
    },
    "functionHashes": {
        "getEthMessageHash(bytes32)": "9db52729",
        "getMessageHash(string)": "b446f3b2",
        "recover(bytes32,bytes)": "19045a25",
        "verify(address,string,bytes)": "2dd34f0f"
    },
    "gasEstimates": {
        "creation": {
            "codeDepositCost": "236800",
            "executionCost": "275",
            "totalCost": "237075"
        },
        "external": {
            "getEthMessageHash(bytes32)": "467",
            "getMessageHash(string)": "infinite",
            "recover(bytes32,bytes)": "infinite",
            "verify(address,string,bytes)": "infinite"
        },
        "internal": {
            "split(bytes memory)": "infinite"
        }
    }
}