{
    "contractName": "viewandpure",
    "abi": [
        {
            "inputs": [],
            "name": "age",
            "outputs": [
                {
                    "internalType": "uint256",
                    "name": "",
                    "type": "uint256"
                }
            ],
            "stateMutability": "view",
            "type": "function"
        },
        {
            "inputs": [
                {
                    "internalType": "uint256",
                    "name": "i",
                    "type": "uint256"
                }
            ],
            "name": "purefunc",
            "outputs": [
                {
                    "internalType": "uint256",
                    "name": "",
                    "type": "uint256"
                }
            ],
            "stateMutability": "pure",
            "type": "function"
        },
        {
            "inputs": [],
            "name": "simple",
            "outputs": [],
            "stateMutability": "nonpayable",
            "type": "function"
        },
        {
            "inputs": [],
            "name": "viewfunc",
            "outputs": [
                {
                    "internalType": "uint256",
                    "name": "",
                    "type": "uint256"
                }
            ],
            "stateMutability": "view",
            "type": "function"
        }
    ],
    "bytecode": "6080604052601460005534801561001557600080fd5b50610104806100256000396000f3fe6080604052348015600f57600080fd5b506004361060465760003560e01c8063092fbe1a14604b578063262a9dff146061578063ca2e05ed146069578063df201a46146077575b600080fd5b6000545b60405190815260200160405180910390f35b604f60005481565b604f60743660046090565b90565b607d607f565b005b600054608b90601460a8565b600055565b60006020828403121560a157600080fd5b5035919050565b8082018082111560c857634e487b7160e01b600052601160045260246000fd5b9291505056fea2646970667358221220fbb79ba81b775722e548cdad107bfd63b411ce93190acc5a8a8fa926e78678b364736f6c63430008110033",
    "sourcePath": "d:/Blockchain Development/Solidity/intro_to_solidity/viewpuresimplefunction.sol",
    "compiler": {
        "name": "solc",
        "version": "0.8.17+commit.8df45f5f"
    },
    "functionHashes": {
        "age()": "262a9dff",
        "purefunc(uint256)": "ca2e05ed",
        "simple()": "df201a46",
        "viewfunc()": "092fbe1a"
    },
    "gasEstimates": {
        "creation": {
            "codeDepositCost": "52000",
            "executionCost": "22211",
            "totalCost": "74211"
        },
        "external": {
            "age()": "2283",
            "purefunc(uint256)": "279",
            "simple()": "24469",
            "viewfunc()": "2247"
        }
    }
}