{
    "contractName": "visible",
    "abi": [
        {
            "inputs": [],
            "name": "check1",
            "outputs": [
                {
                    "internalType": "string",
                    "name": "",
                    "type": "string"
                }
            ],
            "stateMutability": "pure",
            "type": "function"
        },
        {
            "inputs": [],
            "name": "check3",
            "outputs": [
                {
                    "internalType": "string",
                    "name": "",
                    "type": "string"
                }
            ],
            "stateMutability": "pure",
            "type": "function"
        },
        {
            "inputs": [],
            "name": "checkall",
            "outputs": [
                {
                    "internalType": "uint256",
                    "name": "",
                    "type": "uint256"
                }
            ],
            "stateMutability": "view",
            "type": "function"
        },
        {
            "inputs": [],
            "name": "y",
            "outputs": [
                {
                    "internalType": "uint256",
                    "name": "",
                    "type": "uint256"
                }
            ],
            "stateMutability": "view",
            "type": "function"
        }
    ],
    "bytecode": "608060405234801561001057600080fd5b50610144806100206000396000f3fe608060405234801561001057600080fd5b506004361061004c5760003560e01c80631856775f146100515780631b5e8b931461006857806389ac385114610093578063a56dfe4a146100b7575b600080fd5b6000545b6040519081526020015b60405180910390f35b6040805180820190915260068152657075626c696360d01b60208201525b60405161005f91906100c0565b604080518082019091526008815267195e1d195c9b985b60c21b6020820152610086565b61005560015481565b600060208083528351808285015260005b818110156100ed578581018301518582016040015282016100d1565b506000604082860101526040601f19601f830116850101925050509291505056fea2646970667358221220a1be30c88f240e52856b9afb41d2f9fcedd60aaa0a6f3a3c8a42e5e4ed021fd764736f6c63430008110033",
    "sourcePath": "d:/Blockchain Development/Solidity/intro_to_solidity/visibility.sol",
    "compiler": {
        "name": "solc",
        "version": "0.8.17+commit.8df45f5f"
    },
    "functionHashes": {
        "check1()": "1b5e8b93",
        "check3()": "89ac3851",
        "checkall()": "1856775f",
        "y()": "a56dfe4a"
    },
    "gasEstimates": {
        "creation": {
            "codeDepositCost": "64800",
            "executionCost": "117",
            "totalCost": "64917"
        },
        "external": {
            "check1()": "infinite",
            "check3()": "infinite",
            "checkall()": "2248",
            "y()": "2328"
        },
        "internal": {
            "check2()": "infinite",
            "check4()": "infinite"
        }
    }
}