{
	"mapping.sol": {
		"map": {
			"abi": [
				{
					"inputs": [
						{
							"internalType": "int256",
							"name": "",
							"type": "int256"
						}
					],
					"name": "new_roll",
					"outputs": [
						{
							"internalType": "string",
							"name": "",
							"type": "string"
						}
					],
					"stateMutability": "view",
					"type": "function"
				}
			],
			"devdoc": {
				"kind": "dev",
				"methods": {},
				"version": 1
			},
			"evm": {
				"assembly": "    /* \"mapping.sol\":76:141  contract map{\r... */\n  mstore(0x40, 0x80)\n  callvalue\n  dup1\n  iszero\n  tag_1\n  jumpi\n  0x00\n  dup1\n  revert\ntag_1:\n  pop\n  dataSize(sub_0)\n  dup1\n  dataOffset(sub_0)\n  0x00\n  codecopy\n  0x00\n  return\nstop\n\nsub_0: assembly {\n        /* \"mapping.sol\":76:141  contract map{\r... */\n      mstore(0x40, 0x80)\n      callvalue\n      dup1\n      iszero\n      tag_1\n      jumpi\n      0x00\n      dup1\n      revert\n    tag_1:\n      pop\n      jumpi(tag_2, lt(calldatasize, 0x04))\n      shr(0xe0, calldataload(0x00))\n      dup1\n      0x1617364c\n      eq\n      tag_3\n      jumpi\n    tag_2:\n      0x00\n      dup1\n      revert\n        /* \"mapping.sol\":95:131  mapping(int=>string) public new_roll */\n    tag_3:\n      tag_4\n      0x04\n      dup1\n      calldatasize\n      sub\n      dup2\n      add\n      swap1\n      tag_5\n      swap2\n      swap1\n      tag_6\n      jump\t// in\n    tag_5:\n      tag_7\n      jump\t// in\n    tag_4:\n      mload(0x40)\n      tag_8\n      swap2\n      swap1\n      tag_9\n      jump\t// in\n    tag_8:\n      mload(0x40)\n      dup1\n      swap2\n      sub\n      swap1\n      return\n    tag_7:\n      mstore(0x20, 0x00)\n      dup1\n      0x00\n      mstore\n      keccak256(0x00, 0x40)\n      0x00\n      swap2\n      pop\n      swap1\n      pop\n      dup1\n      sload\n      tag_10\n      swap1\n      tag_11\n      jump\t// in\n    tag_10:\n      dup1\n      0x1f\n      add\n      0x20\n      dup1\n      swap2\n      div\n      mul\n      0x20\n      add\n      mload(0x40)\n      swap1\n      dup2\n      add\n      0x40\n      mstore\n      dup1\n      swap3\n      swap2\n      swap1\n      dup2\n      dup2\n      mstore\n      0x20\n      add\n      dup3\n      dup1\n      sload\n      tag_12\n      swap1\n      tag_11\n      jump\t// in\n    tag_12:\n      dup1\n      iszero\n      tag_13\n      jumpi\n      dup1\n      0x1f\n      lt\n      tag_14\n      jumpi\n      0x0100\n      dup1\n      dup4\n      sload\n      div\n      mul\n      dup4\n      mstore\n      swap2\n      0x20\n      add\n      swap2\n      jump(tag_13)\n    tag_14:\n      dup3\n      add\n      swap2\n      swap1\n      0x00\n      mstore\n      keccak256(0x00, 0x20)\n      swap1\n    tag_15:\n      dup2\n      sload\n      dup2\n      mstore\n      swap1\n      0x01\n      add\n      swap1\n      0x20\n      add\n      dup1\n      dup4\n      gt\n      tag_15\n      jumpi\n      dup3\n      swap1\n      sub\n      0x1f\n      and\n      dup3\n      add\n      swap2\n    tag_13:\n      pop\n      pop\n      pop\n      pop\n      pop\n      dup2\n      jump\t// out\n        /* \"#utility.yul\":7:144   */\n    tag_17:\n        /* \"#utility.yul\":52:57   */\n      0x00\n        /* \"#utility.yul\":90:96   */\n      dup2\n        /* \"#utility.yul\":77:97   */\n      calldataload\n        /* \"#utility.yul\":68:97   */\n      swap1\n      pop\n        /* \"#utility.yul\":106:138   */\n      tag_19\n        /* \"#utility.yul\":132:137   */\n      dup2\n        /* \"#utility.yul\":106:138   */\n      tag_20\n      jump\t// in\n    tag_19:\n        /* \"#utility.yul\":7:144   */\n      swap3\n      swap2\n      pop\n      pop\n      jump\t// out\n        /* \"#utility.yul\":150:477   */\n    tag_6:\n        /* \"#utility.yul\":208:214   */\n      0x00\n        /* \"#utility.yul\":257:259   */\n      0x20\n        /* \"#utility.yul\":245:254   */\n      dup3\n        /* \"#utility.yul\":236:243   */\n      dup5\n        /* \"#utility.yul\":232:255   */\n      sub\n        /* \"#utility.yul\":228:260   */\n      slt\n        /* \"#utility.yul\":225:344   */\n      iszero\n      tag_22\n      jumpi\n        /* \"#utility.yul\":263:342   */\n      tag_23\n      tag_24\n      jump\t// in\n    tag_23:\n        /* \"#utility.yul\":225:344   */\n    tag_22:\n        /* \"#utility.yul\":383:384   */\n      0x00\n        /* \"#utility.yul\":408:460   */\n      tag_25\n        /* \"#utility.yul\":452:459   */\n      dup5\n        /* \"#utility.yul\":443:449   */\n      dup3\n        /* \"#utility.yul\":432:441   */\n      dup6\n        /* \"#utility.yul\":428:450   */\n      add\n        /* \"#utility.yul\":408:460   */\n      tag_17\n      jump\t// in\n    tag_25:\n        /* \"#utility.yul\":398:460   */\n      swap2\n      pop\n        /* \"#utility.yul\":354:470   */\n      pop\n        /* \"#utility.yul\":150:477   */\n      swap3\n      swap2\n      pop\n      pop\n      jump\t// out\n        /* \"#utility.yul\":483:847   */\n    tag_26:\n        /* \"#utility.yul\":571:574   */\n      0x00\n        /* \"#utility.yul\":599:638   */\n      tag_28\n        /* \"#utility.yul\":632:637   */\n      dup3\n        /* \"#utility.yul\":599:638   */\n      tag_29\n      jump\t// in\n    tag_28:\n        /* \"#utility.yul\":654:725   */\n      tag_30\n        /* \"#utility.yul\":718:724   */\n      dup2\n        /* \"#utility.yul\":713:716   */\n      dup6\n        /* \"#utility.yul\":654:725   */\n      tag_31\n      jump\t// in\n    tag_30:\n        /* \"#utility.yul\":647:725   */\n      swap4\n      pop\n        /* \"#utility.yul\":734:786   */\n      tag_32\n        /* \"#utility.yul\":779:785   */\n      dup2\n        /* \"#utility.yul\":774:777   */\n      dup6\n        /* \"#utility.yul\":767:771   */\n      0x20\n        /* \"#utility.yul\":760:765   */\n      dup7\n        /* \"#utility.yul\":756:772   */\n      add\n        /* \"#utility.yul\":734:786   */\n      tag_33\n      jump\t// in\n    tag_32:\n        /* \"#utility.yul\":811:840   */\n      tag_34\n        /* \"#utility.yul\":833:839   */\n      dup2\n        /* \"#utility.yul\":811:840   */\n      tag_35\n      jump\t// in\n    tag_34:\n        /* \"#utility.yul\":806:809   */\n      dup5\n        /* \"#utility.yul\":802:841   */\n      add\n        /* \"#utility.yul\":795:841   */\n      swap2\n      pop\n        /* \"#utility.yul\":575:847   */\n      pop\n        /* \"#utility.yul\":483:847   */\n      swap3\n      swap2\n      pop\n      pop\n      jump\t// out\n        /* \"#utility.yul\":853:1166   */\n    tag_9:\n        /* \"#utility.yul\":966:970   */\n      0x00\n        /* \"#utility.yul\":1004:1006   */\n      0x20\n        /* \"#utility.yul\":993:1002   */\n      dup3\n        /* \"#utility.yul\":989:1007   */\n      add\n        /* \"#utility.yul\":981:1007   */\n      swap1\n      pop\n        /* \"#utility.yul\":1053:1062   */\n      dup2\n        /* \"#utility.yul\":1047:1051   */\n      dup2\n        /* \"#utility.yul\":1043:1063   */\n      sub\n        /* \"#utility.yul\":1039:1040   */\n      0x00\n        /* \"#utility.yul\":1028:1037   */\n      dup4\n        /* \"#utility.yul\":1024:1041   */\n      add\n        /* \"#utility.yul\":1017:1064   */\n      mstore\n        /* \"#utility.yul\":1081:1159   */\n      tag_37\n        /* \"#utility.yul\":1154:1158   */\n      dup2\n        /* \"#utility.yul\":1145:1151   */\n      dup5\n        /* \"#utility.yul\":1081:1159   */\n      tag_26\n      jump\t// in\n    tag_37:\n        /* \"#utility.yul\":1073:1159   */\n      swap1\n      pop\n        /* \"#utility.yul\":853:1166   */\n      swap3\n      swap2\n      pop\n      pop\n      jump\t// out\n        /* \"#utility.yul\":1253:1352   */\n    tag_29:\n        /* \"#utility.yul\":1305:1311   */\n      0x00\n        /* \"#utility.yul\":1339:1344   */\n      dup2\n        /* \"#utility.yul\":1333:1345   */\n      mload\n        /* \"#utility.yul\":1323:1345   */\n      swap1\n      pop\n        /* \"#utility.yul\":1253:1352   */\n      swap2\n      swap1\n      pop\n      jump\t// out\n        /* \"#utility.yul\":1358:1527   */\n    tag_31:\n        /* \"#utility.yul\":1442:1453   */\n      0x00\n        /* \"#utility.yul\":1476:1482   */\n      dup3\n        /* \"#utility.yul\":1471:1474   */\n      dup3\n        /* \"#utility.yul\":1464:1483   */\n      mstore\n        /* \"#utility.yul\":1516:1520   */\n      0x20\n        /* \"#utility.yul\":1511:1514   */\n      dup3\n        /* \"#utility.yul\":1507:1521   */\n      add\n        /* \"#utility.yul\":1492:1521   */\n      swap1\n      pop\n        /* \"#utility.yul\":1358:1527   */\n      swap3\n      swap2\n      pop\n      pop\n      jump\t// out\n        /* \"#utility.yul\":1533:1609   */\n    tag_42:\n        /* \"#utility.yul\":1569:1576   */\n      0x00\n        /* \"#utility.yul\":1598:1603   */\n      dup2\n        /* \"#utility.yul\":1587:1603   */\n      swap1\n      pop\n        /* \"#utility.yul\":1533:1609   */\n      swap2\n      swap1\n      pop\n      jump\t// out\n        /* \"#utility.yul\":1615:1922   */\n    tag_33:\n        /* \"#utility.yul\":1683:1684   */\n      0x00\n        /* \"#utility.yul\":1693:1806   */\n    tag_45:\n        /* \"#utility.yul\":1707:1713   */\n      dup4\n        /* \"#utility.yul\":1704:1705   */\n      dup2\n        /* \"#utility.yul\":1701:1714   */\n      lt\n        /* \"#utility.yul\":1693:1806   */\n      iszero\n      tag_47\n      jumpi\n        /* \"#utility.yul\":1792:1793   */\n      dup1\n        /* \"#utility.yul\":1787:1790   */\n      dup3\n        /* \"#utility.yul\":1783:1794   */\n      add\n        /* \"#utility.yul\":1777:1795   */\n      mload\n        /* \"#utility.yul\":1773:1774   */\n      dup2\n        /* \"#utility.yul\":1768:1771   */\n      dup5\n        /* \"#utility.yul\":1764:1775   */\n      add\n        /* \"#utility.yul\":1757:1796   */\n      mstore\n        /* \"#utility.yul\":1729:1731   */\n      0x20\n        /* \"#utility.yul\":1726:1727   */\n      dup2\n        /* \"#utility.yul\":1722:1732   */\n      add\n        /* \"#utility.yul\":1717:1732   */\n      swap1\n      pop\n        /* \"#utility.yul\":1693:1806   */\n      jump(tag_45)\n    tag_47:\n        /* \"#utility.yul\":1824:1830   */\n      dup4\n        /* \"#utility.yul\":1821:1822   */\n      dup2\n        /* \"#utility.yul\":1818:1831   */\n      gt\n        /* \"#utility.yul\":1815:1916   */\n      iszero\n      tag_48\n      jumpi\n        /* \"#utility.yul\":1904:1905   */\n      0x00\n        /* \"#utility.yul\":1895:1901   */\n      dup5\n        /* \"#utility.yul\":1890:1893   */\n      dup5\n        /* \"#utility.yul\":1886:1902   */\n      add\n        /* \"#utility.yul\":1879:1906   */\n      mstore\n        /* \"#utility.yul\":1815:1916   */\n    tag_48:\n        /* \"#utility.yul\":1664:1922   */\n      pop\n        /* \"#utility.yul\":1615:1922   */\n      pop\n      pop\n      pop\n      jump\t// out\n        /* \"#utility.yul\":1928:2248   */\n    tag_11:\n        /* \"#utility.yul\":1972:1978   */\n      0x00\n        /* \"#utility.yul\":2009:2010   */\n      0x02\n        /* \"#utility.yul\":2003:2007   */\n      dup3\n        /* \"#utility.yul\":1999:2011   */\n      div\n        /* \"#utility.yul\":1989:2011   */\n      swap1\n      pop\n        /* \"#utility.yul\":2056:2057   */\n      0x01\n        /* \"#utility.yul\":2050:2054   */\n      dup3\n        /* \"#utility.yul\":2046:2058   */\n      and\n        /* \"#utility.yul\":2077:2095   */\n      dup1\n        /* \"#utility.yul\":2067:2148   */\n      tag_50\n      jumpi\n        /* \"#utility.yul\":2133:2137   */\n      0x7f\n        /* \"#utility.yul\":2125:2131   */\n      dup3\n        /* \"#utility.yul\":2121:2138   */\n      and\n        /* \"#utility.yul\":2111:2138   */\n      swap2\n      pop\n        /* \"#utility.yul\":2067:2148   */\n    tag_50:\n        /* \"#utility.yul\":2195:2197   */\n      0x20\n        /* \"#utility.yul\":2187:2193   */\n      dup3\n        /* \"#utility.yul\":2184:2198   */\n      lt\n        /* \"#utility.yul\":2164:2182   */\n      dup2\n        /* \"#utility.yul\":2161:2199   */\n      eq\n        /* \"#utility.yul\":2158:2242   */\n      iszero\n      tag_51\n      jumpi\n        /* \"#utility.yul\":2214:2232   */\n      tag_52\n      tag_53\n      jump\t// in\n    tag_52:\n        /* \"#utility.yul\":2158:2242   */\n    tag_51:\n        /* \"#utility.yul\":1979:2248   */\n      pop\n        /* \"#utility.yul\":1928:2248   */\n      swap2\n      swap1\n      pop\n      jump\t// out\n        /* \"#utility.yul\":2254:2434   */\n    tag_53:\n        /* \"#utility.yul\":2302:2379   */\n      0x4e487b7100000000000000000000000000000000000000000000000000000000\n        /* \"#utility.yul\":2299:2300   */\n      0x00\n        /* \"#utility.yul\":2292:2380   */\n      mstore\n        /* \"#utility.yul\":2399:2403   */\n      0x22\n        /* \"#utility.yul\":2396:2397   */\n      0x04\n        /* \"#utility.yul\":2389:2404   */\n      mstore\n        /* \"#utility.yul\":2423:2427   */\n      0x24\n        /* \"#utility.yul\":2420:2421   */\n      0x00\n        /* \"#utility.yul\":2413:2428   */\n      revert\n        /* \"#utility.yul\":2563:2680   */\n    tag_24:\n        /* \"#utility.yul\":2672:2673   */\n      0x00\n        /* \"#utility.yul\":2669:2670   */\n      dup1\n        /* \"#utility.yul\":2662:2674   */\n      revert\n        /* \"#utility.yul\":2686:2788   */\n    tag_35:\n        /* \"#utility.yul\":2727:2733   */\n      0x00\n        /* \"#utility.yul\":2778:2780   */\n      0x1f\n        /* \"#utility.yul\":2774:2781   */\n      not\n        /* \"#utility.yul\":2769:2771   */\n      0x1f\n        /* \"#utility.yul\":2762:2767   */\n      dup4\n        /* \"#utility.yul\":2758:2772   */\n      add\n        /* \"#utility.yul\":2754:2782   */\n      and\n        /* \"#utility.yul\":2744:2782   */\n      swap1\n      pop\n        /* \"#utility.yul\":2686:2788   */\n      swap2\n      swap1\n      pop\n      jump\t// out\n        /* \"#utility.yul\":2794:2914   */\n    tag_20:\n        /* \"#utility.yul\":2866:2889   */\n      tag_60\n        /* \"#utility.yul\":2883:2888   */\n      dup2\n        /* \"#utility.yul\":2866:2889   */\n      tag_42\n      jump\t// in\n    tag_60:\n        /* \"#utility.yul\":2859:2864   */\n      dup2\n        /* \"#utility.yul\":2856:2890   */\n      eq\n        /* \"#utility.yul\":2846:2908   */\n      tag_61\n      jumpi\n        /* \"#utility.yul\":2904:2905   */\n      0x00\n        /* \"#utility.yul\":2901:2902   */\n      dup1\n        /* \"#utility.yul\":2894:2906   */\n      revert\n        /* \"#utility.yul\":2846:2908   */\n    tag_61:\n        /* \"#utility.yul\":2794:2914   */\n      pop\n      jump\t// out\n\n    auxdata: 0xa2646970667358221220f17ed1f22eb980570a53476ae315b47e6368e1465703464186300e450000af4364736f6c63430008070033\n}\n",
				"bytecode": {
					"linkReferences": {},
					"object": "608060405234801561001057600080fd5b506102ba806100206000396000f3fe608060405234801561001057600080fd5b506004361061002b5760003560e01c80631617364c14610030575b600080fd5b61004a60048036038101906100459190610115565b610060565b604051610057919061017b565b60405180910390f35b6000602052806000526040600020600091509050805461007f906101f6565b80601f01602080910402602001604051908101604052809291908181526020018280546100ab906101f6565b80156100f85780601f106100cd576101008083540402835291602001916100f8565b820191906000526020600020905b8154815290600101906020018083116100db57829003601f168201915b505050505081565b60008135905061010f8161026d565b92915050565b60006020828403121561012b5761012a610257565b5b600061013984828501610100565b91505092915050565b600061014d8261019d565b61015781856101a8565b93506101678185602086016101c3565b6101708161025c565b840191505092915050565b600060208201905081810360008301526101958184610142565b905092915050565b600081519050919050565b600082825260208201905092915050565b6000819050919050565b60005b838110156101e15780820151818401526020810190506101c6565b838111156101f0576000848401525b50505050565b6000600282049050600182168061020e57607f821691505b6020821081141561022257610221610228565b5b50919050565b7f4e487b7100000000000000000000000000000000000000000000000000000000600052602260045260246000fd5b600080fd5b6000601f19601f8301169050919050565b610276816101b9565b811461028157600080fd5b5056fea2646970667358221220f17ed1f22eb980570a53476ae315b47e6368e1465703464186300e450000af4364736f6c63430008070033",
					"opcodes": "PUSH1 0x80 PUSH1 0x40 MSTORE CALLVALUE DUP1 ISZERO PUSH2 0x10 JUMPI PUSH1 0x0 DUP1 REVERT JUMPDEST POP PUSH2 0x2BA DUP1 PUSH2 0x20 PUSH1 0x0 CODECOPY PUSH1 0x0 RETURN INVALID PUSH1 0x80 PUSH1 0x40 MSTORE CALLVALUE DUP1 ISZERO PUSH2 0x10 JUMPI PUSH1 0x0 DUP1 REVERT JUMPDEST POP PUSH1 0x4 CALLDATASIZE LT PUSH2 0x2B JUMPI PUSH1 0x0 CALLDATALOAD PUSH1 0xE0 SHR DUP1 PUSH4 0x1617364C EQ PUSH2 0x30 JUMPI JUMPDEST PUSH1 0x0 DUP1 REVERT JUMPDEST PUSH2 0x4A PUSH1 0x4 DUP1 CALLDATASIZE SUB DUP2 ADD SWAP1 PUSH2 0x45 SWAP2 SWAP1 PUSH2 0x115 JUMP JUMPDEST PUSH2 0x60 JUMP JUMPDEST PUSH1 0x40 MLOAD PUSH2 0x57 SWAP2 SWAP1 PUSH2 0x17B JUMP JUMPDEST PUSH1 0x40 MLOAD DUP1 SWAP2 SUB SWAP1 RETURN JUMPDEST PUSH1 0x0 PUSH1 0x20 MSTORE DUP1 PUSH1 0x0 MSTORE PUSH1 0x40 PUSH1 0x0 KECCAK256 PUSH1 0x0 SWAP2 POP SWAP1 POP DUP1 SLOAD PUSH2 0x7F SWAP1 PUSH2 0x1F6 JUMP JUMPDEST DUP1 PUSH1 0x1F ADD PUSH1 0x20 DUP1 SWAP2 DIV MUL PUSH1 0x20 ADD PUSH1 0x40 MLOAD SWAP1 DUP2 ADD PUSH1 0x40 MSTORE DUP1 SWAP3 SWAP2 SWAP1 DUP2 DUP2 MSTORE PUSH1 0x20 ADD DUP3 DUP1 SLOAD PUSH2 0xAB SWAP1 PUSH2 0x1F6 JUMP JUMPDEST DUP1 ISZERO PUSH2 0xF8 JUMPI DUP1 PUSH1 0x1F LT PUSH2 0xCD JUMPI PUSH2 0x100 DUP1 DUP4 SLOAD DIV MUL DUP4 MSTORE SWAP2 PUSH1 0x20 ADD SWAP2 PUSH2 0xF8 JUMP JUMPDEST DUP3 ADD SWAP2 SWAP1 PUSH1 0x0 MSTORE PUSH1 0x20 PUSH1 0x0 KECCAK256 SWAP1 JUMPDEST DUP2 SLOAD DUP2 MSTORE SWAP1 PUSH1 0x1 ADD SWAP1 PUSH1 0x20 ADD DUP1 DUP4 GT PUSH2 0xDB JUMPI DUP3 SWAP1 SUB PUSH1 0x1F AND DUP3 ADD SWAP2 JUMPDEST POP POP POP POP POP DUP2 JUMP JUMPDEST PUSH1 0x0 DUP2 CALLDATALOAD SWAP1 POP PUSH2 0x10F DUP2 PUSH2 0x26D JUMP JUMPDEST SWAP3 SWAP2 POP POP JUMP JUMPDEST PUSH1 0x0 PUSH1 0x20 DUP3 DUP5 SUB SLT ISZERO PUSH2 0x12B JUMPI PUSH2 0x12A PUSH2 0x257 JUMP JUMPDEST JUMPDEST PUSH1 0x0 PUSH2 0x139 DUP5 DUP3 DUP6 ADD PUSH2 0x100 JUMP JUMPDEST SWAP2 POP POP SWAP3 SWAP2 POP POP JUMP JUMPDEST PUSH1 0x0 PUSH2 0x14D DUP3 PUSH2 0x19D JUMP JUMPDEST PUSH2 0x157 DUP2 DUP6 PUSH2 0x1A8 JUMP JUMPDEST SWAP4 POP PUSH2 0x167 DUP2 DUP6 PUSH1 0x20 DUP7 ADD PUSH2 0x1C3 JUMP JUMPDEST PUSH2 0x170 DUP2 PUSH2 0x25C JUMP JUMPDEST DUP5 ADD SWAP2 POP POP SWAP3 SWAP2 POP POP JUMP JUMPDEST PUSH1 0x0 PUSH1 0x20 DUP3 ADD SWAP1 POP DUP2 DUP2 SUB PUSH1 0x0 DUP4 ADD MSTORE PUSH2 0x195 DUP2 DUP5 PUSH2 0x142 JUMP JUMPDEST SWAP1 POP SWAP3 SWAP2 POP POP JUMP JUMPDEST PUSH1 0x0 DUP2 MLOAD SWAP1 POP SWAP2 SWAP1 POP JUMP JUMPDEST PUSH1 0x0 DUP3 DUP3 MSTORE PUSH1 0x20 DUP3 ADD SWAP1 POP SWAP3 SWAP2 POP POP JUMP JUMPDEST PUSH1 0x0 DUP2 SWAP1 POP SWAP2 SWAP1 POP JUMP JUMPDEST PUSH1 0x0 JUMPDEST DUP4 DUP2 LT ISZERO PUSH2 0x1E1 JUMPI DUP1 DUP3 ADD MLOAD DUP2 DUP5 ADD MSTORE PUSH1 0x20 DUP2 ADD SWAP1 POP PUSH2 0x1C6 JUMP JUMPDEST DUP4 DUP2 GT ISZERO PUSH2 0x1F0 JUMPI PUSH1 0x0 DUP5 DUP5 ADD MSTORE JUMPDEST POP POP POP POP JUMP JUMPDEST PUSH1 0x0 PUSH1 0x2 DUP3 DIV SWAP1 POP PUSH1 0x1 DUP3 AND DUP1 PUSH2 0x20E JUMPI PUSH1 0x7F DUP3 AND SWAP2 POP JUMPDEST PUSH1 0x20 DUP3 LT DUP2 EQ ISZERO PUSH2 0x222 JUMPI PUSH2 0x221 PUSH2 0x228 JUMP JUMPDEST JUMPDEST POP SWAP2 SWAP1 POP JUMP JUMPDEST PUSH32 0x4E487B7100000000000000000000000000000000000000000000000000000000 PUSH1 0x0 MSTORE PUSH1 0x22 PUSH1 0x4 MSTORE PUSH1 0x24 PUSH1 0x0 REVERT JUMPDEST PUSH1 0x0 DUP1 REVERT JUMPDEST PUSH1 0x0 PUSH1 0x1F NOT PUSH1 0x1F DUP4 ADD AND SWAP1 POP SWAP2 SWAP1 POP JUMP JUMPDEST PUSH2 0x276 DUP2 PUSH2 0x1B9 JUMP JUMPDEST DUP2 EQ PUSH2 0x281 JUMPI PUSH1 0x0 DUP1 REVERT JUMPDEST POP JUMP INVALID LOG2 PUSH5 0x6970667358 0x22 SLT KECCAK256 CALL PUSH31 0xD1F22EB980570A53476AE315B47E6368E1465703464186300E450000AF4364 PUSH20 0x6F6C634300080700330000000000000000000000 "
				},
				"gasEstimates": {
					"creation": {
						"codeDepositCost": "139600",
						"executionCost": "183",
						"totalCost": "139783"
					},
					"external": {
						"new_roll(int256)": "infinite"
					}
				},
				"methodIdentifiers": {
					"new_roll(int256)": "1617364c"
				}
			},
			"storageLayout": {
				"storage": [
					{
						"astId": 5,
						"contract": "mapping.sol:map",
						"label": "new_roll",
						"offset": 0,
						"slot": "0",
						"type": "t_mapping(t_int256,t_string_storage)"
					}
				],
				"types": {
					"t_int256": {
						"encoding": "inplace",
						"label": "int256",
						"numberOfBytes": "32"
					},
					"t_mapping(t_int256,t_string_storage)": {
						"encoding": "mapping",
						"key": "t_int256",
						"label": "mapping(int256 => string)",
						"numberOfBytes": "32",
						"value": "t_string_storage"
					},
					"t_string_storage": {
						"encoding": "bytes",
						"label": "string",
						"numberOfBytes": "32"
					}
				}
			},
			"userdoc": {
				"kind": "user",
				"methods": {},
				"version": 1
			}
		}
	}
}