{
	"struct_map.sol": {
		"map": {
			"abi": [
				{
					"inputs": [
						{
							"internalType": "int256",
							"name": "",
							"type": "int256"
						}
					],
					"name": "new_roll",
					"outputs": [
						{
							"internalType": "string",
							"name": "",
							"type": "string"
						}
					],
					"stateMutability": "view",
					"type": "function"
				},
				{
					"inputs": [
						{
							"internalType": "int256",
							"name": "key",
							"type": "int256"
						},
						{
							"internalType": "string",
							"name": "value",
							"type": "string"
						}
					],
					"name": "setter",
					"outputs": [],
					"stateMutability": "nonpayable",
					"type": "function"
				}
			],
			"devdoc": {
				"kind": "dev",
				"methods": {},
				"version": 1
			},
			"evm": {
				"assembly": "    /* \"struct_map.sol\":76:288  contract map{\r... */\n  mstore(0x40, 0x80)\n  callvalue\n  dup1\n  iszero\n  tag_1\n  jumpi\n  0x00\n  dup1\n  revert\ntag_1:\n  pop\n  dataSize(sub_0)\n  dup1\n  dataOffset(sub_0)\n  0x00\n  codecopy\n  0x00\n  return\nstop\n\nsub_0: assembly {\n        /* \"struct_map.sol\":76:288  contract map{\r... */\n      mstore(0x40, 0x80)\n      callvalue\n      dup1\n      iszero\n      tag_1\n      jumpi\n      0x00\n      dup1\n      revert\n    tag_1:\n      pop\n      jumpi(tag_2, lt(calldatasize, 0x04))\n      shr(0xe0, calldataload(0x00))\n      dup1\n      0x1617364c\n      eq\n      tag_3\n      jumpi\n      dup1\n      0x6759d43d\n      eq\n      tag_4\n      jumpi\n    tag_2:\n      0x00\n      dup1\n      revert\n        /* \"struct_map.sol\":150:186  mapping(int=>string) public new_roll */\n    tag_3:\n      tag_5\n      0x04\n      dup1\n      calldatasize\n      sub\n      dup2\n      add\n      swap1\n      tag_6\n      swap2\n      swap1\n      tag_7\n      jump\t// in\n    tag_6:\n      tag_8\n      jump\t// in\n    tag_5:\n      mload(0x40)\n      tag_9\n      swap2\n      swap1\n      tag_10\n      jump\t// in\n    tag_9:\n      mload(0x40)\n      dup1\n      swap2\n      sub\n      swap1\n      return\n        /* \"struct_map.sol\":193:285  function setter(int key, string memory value) public{\r... */\n    tag_4:\n      tag_11\n      0x04\n      dup1\n      calldatasize\n      sub\n      dup2\n      add\n      swap1\n      tag_12\n      swap2\n      swap1\n      tag_13\n      jump\t// in\n    tag_12:\n      tag_14\n      jump\t// in\n    tag_11:\n      stop\n        /* \"struct_map.sol\":150:186  mapping(int=>string) public new_roll */\n    tag_8:\n      mstore(0x20, 0x00)\n      dup1\n      0x00\n      mstore\n      keccak256(0x00, 0x40)\n      0x00\n      swap2\n      pop\n      swap1\n      pop\n      dup1\n      sload\n      tag_15\n      swap1\n      tag_16\n      jump\t// in\n    tag_15:\n      dup1\n      0x1f\n      add\n      0x20\n      dup1\n      swap2\n      div\n      mul\n      0x20\n      add\n      mload(0x40)\n      swap1\n      dup2\n      add\n      0x40\n      mstore\n      dup1\n      swap3\n      swap2\n      swap1\n      dup2\n      dup2\n      mstore\n      0x20\n      add\n      dup3\n      dup1\n      sload\n      tag_17\n      swap1\n      tag_16\n      jump\t// in\n    tag_17:\n      dup1\n      iszero\n      tag_18\n      jumpi\n      dup1\n      0x1f\n      lt\n      tag_19\n      jumpi\n      0x0100\n      dup1\n      dup4\n      sload\n      div\n      mul\n      dup4\n      mstore\n      swap2\n      0x20\n      add\n      swap2\n      jump(tag_18)\n    tag_19:\n      dup3\n      add\n      swap2\n      swap1\n      0x00\n      mstore\n      keccak256(0x00, 0x20)\n      swap1\n    tag_20:\n      dup2\n      sload\n      dup2\n      mstore\n      swap1\n      0x01\n      add\n      swap1\n      0x20\n      add\n      dup1\n      dup4\n      gt\n      tag_20\n      jumpi\n      dup3\n      swap1\n      sub\n      0x1f\n      and\n      dup3\n      add\n      swap2\n    tag_18:\n      pop\n      pop\n      pop\n      pop\n      pop\n      dup2\n      jump\t// out\n        /* \"struct_map.sol\":193:285  function setter(int key, string memory value) public{\r... */\n    tag_14:\n        /* \"struct_map.sol\":272:277  value */\n      dup1\n        /* \"struct_map.sol\":256:264  new_roll */\n      0x00\n        /* \"struct_map.sol\":256:269  new_roll[key] */\n      dup1\n        /* \"struct_map.sol\":265:268  key */\n      dup5\n        /* \"struct_map.sol\":256:269  new_roll[key] */\n      dup2\n      mstore\n      0x20\n      add\n      swap1\n      dup2\n      mstore\n      0x20\n      add\n      0x00\n      keccak256\n        /* \"struct_map.sol\":256:277  new_roll[key] = value */\n      swap1\n      dup1\n      mload\n      swap1\n      0x20\n      add\n      swap1\n      tag_22\n      swap3\n      swap2\n      swap1\n      tag_23\n      jump\t// in\n    tag_22:\n      pop\n        /* \"struct_map.sol\":193:285  function setter(int key, string memory value) public{\r... */\n      pop\n      pop\n      jump\t// out\n    tag_23:\n      dup3\n      dup1\n      sload\n      tag_24\n      swap1\n      tag_16\n      jump\t// in\n    tag_24:\n      swap1\n      0x00\n      mstore\n      keccak256(0x00, 0x20)\n      swap1\n      0x1f\n      add\n      0x20\n      swap1\n      div\n      dup2\n      add\n      swap3\n      dup3\n      tag_26\n      jumpi\n      0x00\n      dup6\n      sstore\n      jump(tag_25)\n    tag_26:\n      dup3\n      0x1f\n      lt\n      tag_27\n      jumpi\n      dup1\n      mload\n      not(0xff)\n      and\n      dup4\n      dup1\n      add\n      or\n      dup6\n      sstore\n      jump(tag_25)\n    tag_27:\n      dup3\n      dup1\n      add\n      0x01\n      add\n      dup6\n      sstore\n      dup3\n      iszero\n      tag_25\n      jumpi\n      swap2\n      dup3\n      add\n    tag_28:\n      dup3\n      dup2\n      gt\n      iszero\n      tag_29\n      jumpi\n      dup3\n      mload\n      dup3\n      sstore\n      swap2\n      0x20\n      add\n      swap2\n      swap1\n      0x01\n      add\n      swap1\n      jump(tag_28)\n    tag_29:\n    tag_25:\n      pop\n      swap1\n      pop\n      tag_30\n      swap2\n      swap1\n      tag_31\n      jump\t// in\n    tag_30:\n      pop\n      swap1\n      jump\t// out\n    tag_31:\n    tag_32:\n      dup1\n      dup3\n      gt\n      iszero\n      tag_33\n      jumpi\n      0x00\n      dup2\n      0x00\n      swap1\n      sstore\n      pop\n      0x01\n      add\n      jump(tag_32)\n    tag_33:\n      pop\n      swap1\n      jump\t// out\n        /* \"#utility.yul\":7:419   */\n    tag_35:\n        /* \"#utility.yul\":85:90   */\n      0x00\n        /* \"#utility.yul\":110:176   */\n      tag_37\n        /* \"#utility.yul\":126:175   */\n      tag_38\n        /* \"#utility.yul\":168:174   */\n      dup5\n        /* \"#utility.yul\":126:175   */\n      tag_39\n      jump\t// in\n    tag_38:\n        /* \"#utility.yul\":110:176   */\n      tag_40\n      jump\t// in\n    tag_37:\n        /* \"#utility.yul\":101:176   */\n      swap1\n      pop\n        /* \"#utility.yul\":199:205   */\n      dup3\n        /* \"#utility.yul\":192:197   */\n      dup2\n        /* \"#utility.yul\":185:206   */\n      mstore\n        /* \"#utility.yul\":237:241   */\n      0x20\n        /* \"#utility.yul\":230:235   */\n      dup2\n        /* \"#utility.yul\":226:242   */\n      add\n        /* \"#utility.yul\":275:278   */\n      dup5\n        /* \"#utility.yul\":266:272   */\n      dup5\n        /* \"#utility.yul\":261:264   */\n      dup5\n        /* \"#utility.yul\":257:273   */\n      add\n        /* \"#utility.yul\":254:279   */\n      gt\n        /* \"#utility.yul\":251:363   */\n      iszero\n      tag_41\n      jumpi\n        /* \"#utility.yul\":282:361   */\n      tag_42\n      tag_43\n      jump\t// in\n    tag_42:\n        /* \"#utility.yul\":251:363   */\n    tag_41:\n        /* \"#utility.yul\":372:413   */\n      tag_44\n        /* \"#utility.yul\":406:412   */\n      dup5\n        /* \"#utility.yul\":401:404   */\n      dup3\n        /* \"#utility.yul\":396:399   */\n      dup6\n        /* \"#utility.yul\":372:413   */\n      tag_45\n      jump\t// in\n    tag_44:\n        /* \"#utility.yul\":91:419   */\n      pop\n        /* \"#utility.yul\":7:419   */\n      swap4\n      swap3\n      pop\n      pop\n      pop\n      jump\t// out\n        /* \"#utility.yul\":425:562   */\n    tag_46:\n        /* \"#utility.yul\":470:475   */\n      0x00\n        /* \"#utility.yul\":508:514   */\n      dup2\n        /* \"#utility.yul\":495:515   */\n      calldataload\n        /* \"#utility.yul\":486:515   */\n      swap1\n      pop\n        /* \"#utility.yul\":524:556   */\n      tag_48\n        /* \"#utility.yul\":550:555   */\n      dup2\n        /* \"#utility.yul\":524:556   */\n      tag_49\n      jump\t// in\n    tag_48:\n        /* \"#utility.yul\":425:562   */\n      swap3\n      swap2\n      pop\n      pop\n      jump\t// out\n        /* \"#utility.yul\":582:922   */\n    tag_50:\n        /* \"#utility.yul\":638:643   */\n      0x00\n        /* \"#utility.yul\":687:690   */\n      dup3\n        /* \"#utility.yul\":680:684   */\n      0x1f\n        /* \"#utility.yul\":672:678   */\n      dup4\n        /* \"#utility.yul\":668:685   */\n      add\n        /* \"#utility.yul\":664:691   */\n      slt\n        /* \"#utility.yul\":654:776   */\n      tag_52\n      jumpi\n        /* \"#utility.yul\":695:774   */\n      tag_53\n      tag_54\n      jump\t// in\n    tag_53:\n        /* \"#utility.yul\":654:776   */\n    tag_52:\n        /* \"#utility.yul\":812:818   */\n      dup2\n        /* \"#utility.yul\":799:819   */\n      calldataload\n        /* \"#utility.yul\":837:916   */\n      tag_55\n        /* \"#utility.yul\":912:915   */\n      dup5\n        /* \"#utility.yul\":904:910   */\n      dup3\n        /* \"#utility.yul\":897:901   */\n      0x20\n        /* \"#utility.yul\":889:895   */\n      dup7\n        /* \"#utility.yul\":885:902   */\n      add\n        /* \"#utility.yul\":837:916   */\n      tag_35\n      jump\t// in\n    tag_55:\n        /* \"#utility.yul\":828:916   */\n      swap2\n      pop\n        /* \"#utility.yul\":644:922   */\n      pop\n        /* \"#utility.yul\":582:922   */\n      swap3\n      swap2\n      pop\n      pop\n      jump\t// out\n        /* \"#utility.yul\":928:1255   */\n    tag_7:\n        /* \"#utility.yul\":986:992   */\n      0x00\n        /* \"#utility.yul\":1035:1037   */\n      0x20\n        /* \"#utility.yul\":1023:1032   */\n      dup3\n        /* \"#utility.yul\":1014:1021   */\n      dup5\n        /* \"#utility.yul\":1010:1033   */\n      sub\n        /* \"#utility.yul\":1006:1038   */\n      slt\n        /* \"#utility.yul\":1003:1122   */\n      iszero\n      tag_57\n      jumpi\n        /* \"#utility.yul\":1041:1120   */\n      tag_58\n      tag_59\n      jump\t// in\n    tag_58:\n        /* \"#utility.yul\":1003:1122   */\n    tag_57:\n        /* \"#utility.yul\":1161:1162   */\n      0x00\n        /* \"#utility.yul\":1186:1238   */\n      tag_60\n        /* \"#utility.yul\":1230:1237   */\n      dup5\n        /* \"#utility.yul\":1221:1227   */\n      dup3\n        /* \"#utility.yul\":1210:1219   */\n      dup6\n        /* \"#utility.yul\":1206:1228   */\n      add\n        /* \"#utility.yul\":1186:1238   */\n      tag_46\n      jump\t// in\n    tag_60:\n        /* \"#utility.yul\":1176:1238   */\n      swap2\n      pop\n        /* \"#utility.yul\":1132:1248   */\n      pop\n        /* \"#utility.yul\":928:1255   */\n      swap3\n      swap2\n      pop\n      pop\n      jump\t// out\n        /* \"#utility.yul\":1261:1913   */\n    tag_13:\n        /* \"#utility.yul\":1338:1344   */\n      0x00\n        /* \"#utility.yul\":1346:1352   */\n      dup1\n        /* \"#utility.yul\":1395:1397   */\n      0x40\n        /* \"#utility.yul\":1383:1392   */\n      dup4\n        /* \"#utility.yul\":1374:1381   */\n      dup6\n        /* \"#utility.yul\":1370:1393   */\n      sub\n        /* \"#utility.yul\":1366:1398   */\n      slt\n        /* \"#utility.yul\":1363:1482   */\n      iszero\n      tag_62\n      jumpi\n        /* \"#utility.yul\":1401:1480   */\n      tag_63\n      tag_59\n      jump\t// in\n    tag_63:\n        /* \"#utility.yul\":1363:1482   */\n    tag_62:\n        /* \"#utility.yul\":1521:1522   */\n      0x00\n        /* \"#utility.yul\":1546:1598   */\n      tag_64\n        /* \"#utility.yul\":1590:1597   */\n      dup6\n        /* \"#utility.yul\":1581:1587   */\n      dup3\n        /* \"#utility.yul\":1570:1579   */\n      dup7\n        /* \"#utility.yul\":1566:1588   */\n      add\n        /* \"#utility.yul\":1546:1598   */\n      tag_46\n      jump\t// in\n    tag_64:\n        /* \"#utility.yul\":1536:1598   */\n      swap3\n      pop\n        /* \"#utility.yul\":1492:1608   */\n      pop\n        /* \"#utility.yul\":1675:1677   */\n      0x20\n        /* \"#utility.yul\":1664:1673   */\n      dup4\n        /* \"#utility.yul\":1660:1678   */\n      add\n        /* \"#utility.yul\":1647:1679   */\n      calldataload\n        /* \"#utility.yul\":1706:1724   */\n      0xffffffffffffffff\n        /* \"#utility.yul\":1698:1704   */\n      dup2\n        /* \"#utility.yul\":1695:1725   */\n      gt\n        /* \"#utility.yul\":1692:1809   */\n      iszero\n      tag_65\n      jumpi\n        /* \"#utility.yul\":1728:1807   */\n      tag_66\n      tag_67\n      jump\t// in\n    tag_66:\n        /* \"#utility.yul\":1692:1809   */\n    tag_65:\n        /* \"#utility.yul\":1833:1896   */\n      tag_68\n        /* \"#utility.yul\":1888:1895   */\n      dup6\n        /* \"#utility.yul\":1879:1885   */\n      dup3\n        /* \"#utility.yul\":1868:1877   */\n      dup7\n        /* \"#utility.yul\":1864:1886   */\n      add\n        /* \"#utility.yul\":1833:1896   */\n      tag_50\n      jump\t// in\n    tag_68:\n        /* \"#utility.yul\":1823:1896   */\n      swap2\n      pop\n        /* \"#utility.yul\":1618:1906   */\n      pop\n        /* \"#utility.yul\":1261:1913   */\n      swap3\n      pop\n      swap3\n      swap1\n      pop\n      jump\t// out\n        /* \"#utility.yul\":1919:2283   */\n    tag_69:\n        /* \"#utility.yul\":2007:2010   */\n      0x00\n        /* \"#utility.yul\":2035:2074   */\n      tag_71\n        /* \"#utility.yul\":2068:2073   */\n      dup3\n        /* \"#utility.yul\":2035:2074   */\n      tag_72\n      jump\t// in\n    tag_71:\n        /* \"#utility.yul\":2090:2161   */\n      tag_73\n        /* \"#utility.yul\":2154:2160   */\n      dup2\n        /* \"#utility.yul\":2149:2152   */\n      dup6\n        /* \"#utility.yul\":2090:2161   */\n      tag_74\n      jump\t// in\n    tag_73:\n        /* \"#utility.yul\":2083:2161   */\n      swap4\n      pop\n        /* \"#utility.yul\":2170:2222   */\n      tag_75\n        /* \"#utility.yul\":2215:2221   */\n      dup2\n        /* \"#utility.yul\":2210:2213   */\n      dup6\n        /* \"#utility.yul\":2203:2207   */\n      0x20\n        /* \"#utility.yul\":2196:2201   */\n      dup7\n        /* \"#utility.yul\":2192:2208   */\n      add\n        /* \"#utility.yul\":2170:2222   */\n      tag_76\n      jump\t// in\n    tag_75:\n        /* \"#utility.yul\":2247:2276   */\n      tag_77\n        /* \"#utility.yul\":2269:2275   */\n      dup2\n        /* \"#utility.yul\":2247:2276   */\n      tag_78\n      jump\t// in\n    tag_77:\n        /* \"#utility.yul\":2242:2245   */\n      dup5\n        /* \"#utility.yul\":2238:2277   */\n      add\n        /* \"#utility.yul\":2231:2277   */\n      swap2\n      pop\n        /* \"#utility.yul\":2011:2283   */\n      pop\n        /* \"#utility.yul\":1919:2283   */\n      swap3\n      swap2\n      pop\n      pop\n      jump\t// out\n        /* \"#utility.yul\":2289:2602   */\n    tag_10:\n        /* \"#utility.yul\":2402:2406   */\n      0x00\n        /* \"#utility.yul\":2440:2442   */\n      0x20\n        /* \"#utility.yul\":2429:2438   */\n      dup3\n        /* \"#utility.yul\":2425:2443   */\n      add\n        /* \"#utility.yul\":2417:2443   */\n      swap1\n      pop\n        /* \"#utility.yul\":2489:2498   */\n      dup2\n        /* \"#utility.yul\":2483:2487   */\n      dup2\n        /* \"#utility.yul\":2479:2499   */\n      sub\n        /* \"#utility.yul\":2475:2476   */\n      0x00\n        /* \"#utility.yul\":2464:2473   */\n      dup4\n        /* \"#utility.yul\":2460:2477   */\n      add\n        /* \"#utility.yul\":2453:2500   */\n      mstore\n        /* \"#utility.yul\":2517:2595   */\n      tag_80\n        /* \"#utility.yul\":2590:2594   */\n      dup2\n        /* \"#utility.yul\":2581:2587   */\n      dup5\n        /* \"#utility.yul\":2517:2595   */\n      tag_69\n      jump\t// in\n    tag_80:\n        /* \"#utility.yul\":2509:2595   */\n      swap1\n      pop\n        /* \"#utility.yul\":2289:2602   */\n      swap3\n      swap2\n      pop\n      pop\n      jump\t// out\n        /* \"#utility.yul\":2608:2737   */\n    tag_40:\n        /* \"#utility.yul\":2642:2648   */\n      0x00\n        /* \"#utility.yul\":2669:2689   */\n      tag_82\n      tag_83\n      jump\t// in\n    tag_82:\n        /* \"#utility.yul\":2659:2689   */\n      swap1\n      pop\n        /* \"#utility.yul\":2698:2731   */\n      tag_84\n        /* \"#utility.yul\":2726:2730   */\n      dup3\n        /* \"#utility.yul\":2718:2724   */\n      dup3\n        /* \"#utility.yul\":2698:2731   */\n      tag_85\n      jump\t// in\n    tag_84:\n        /* \"#utility.yul\":2608:2737   */\n      swap2\n      swap1\n      pop\n      jump\t// out\n        /* \"#utility.yul\":2743:2818   */\n    tag_83:\n        /* \"#utility.yul\":2776:2782   */\n      0x00\n        /* \"#utility.yul\":2809:2811   */\n      0x40\n        /* \"#utility.yul\":2803:2812   */\n      mload\n        /* \"#utility.yul\":2793:2812   */\n      swap1\n      pop\n        /* \"#utility.yul\":2743:2818   */\n      swap1\n      jump\t// out\n        /* \"#utility.yul\":2824:3132   */\n    tag_39:\n        /* \"#utility.yul\":2886:2890   */\n      0x00\n        /* \"#utility.yul\":2976:2994   */\n      0xffffffffffffffff\n        /* \"#utility.yul\":2968:2974   */\n      dup3\n        /* \"#utility.yul\":2965:2995   */\n      gt\n        /* \"#utility.yul\":2962:3018   */\n      iszero\n      tag_88\n      jumpi\n        /* \"#utility.yul\":2998:3016   */\n      tag_89\n      tag_90\n      jump\t// in\n    tag_89:\n        /* \"#utility.yul\":2962:3018   */\n    tag_88:\n        /* \"#utility.yul\":3036:3065   */\n      tag_91\n        /* \"#utility.yul\":3058:3064   */\n      dup3\n        /* \"#utility.yul\":3036:3065   */\n      tag_78\n      jump\t// in\n    tag_91:\n        /* \"#utility.yul\":3028:3065   */\n      swap1\n      pop\n        /* \"#utility.yul\":3120:3124   */\n      0x20\n        /* \"#utility.yul\":3114:3118   */\n      dup2\n        /* \"#utility.yul\":3110:3125   */\n      add\n        /* \"#utility.yul\":3102:3125   */\n      swap1\n      pop\n        /* \"#utility.yul\":2824:3132   */\n      swap2\n      swap1\n      pop\n      jump\t// out\n        /* \"#utility.yul\":3138:3237   */\n    tag_72:\n        /* \"#utility.yul\":3190:3196   */\n      0x00\n        /* \"#utility.yul\":3224:3229   */\n      dup2\n        /* \"#utility.yul\":3218:3230   */\n      mload\n        /* \"#utility.yul\":3208:3230   */\n      swap1\n      pop\n        /* \"#utility.yul\":3138:3237   */\n      swap2\n      swap1\n      pop\n      jump\t// out\n        /* \"#utility.yul\":3243:3412   */\n    tag_74:\n        /* \"#utility.yul\":3327:3338   */\n      0x00\n        /* \"#utility.yul\":3361:3367   */\n      dup3\n        /* \"#utility.yul\":3356:3359   */\n      dup3\n        /* \"#utility.yul\":3349:3368   */\n      mstore\n        /* \"#utility.yul\":3401:3405   */\n      0x20\n        /* \"#utility.yul\":3396:3399   */\n      dup3\n        /* \"#utility.yul\":3392:3406   */\n      add\n        /* \"#utility.yul\":3377:3406   */\n      swap1\n      pop\n        /* \"#utility.yul\":3243:3412   */\n      swap3\n      swap2\n      pop\n      pop\n      jump\t// out\n        /* \"#utility.yul\":3418:3494   */\n    tag_94:\n        /* \"#utility.yul\":3454:3461   */\n      0x00\n        /* \"#utility.yul\":3483:3488   */\n      dup2\n        /* \"#utility.yul\":3472:3488   */\n      swap1\n      pop\n        /* \"#utility.yul\":3418:3494   */\n      swap2\n      swap1\n      pop\n      jump\t// out\n        /* \"#utility.yul\":3500:3654   */\n    tag_45:\n        /* \"#utility.yul\":3584:3590   */\n      dup3\n        /* \"#utility.yul\":3579:3582   */\n      dup2\n        /* \"#utility.yul\":3574:3577   */\n      dup4\n        /* \"#utility.yul\":3561:3591   */\n      calldatacopy\n        /* \"#utility.yul\":3646:3647   */\n      0x00\n        /* \"#utility.yul\":3637:3643   */\n      dup4\n        /* \"#utility.yul\":3632:3635   */\n      dup4\n        /* \"#utility.yul\":3628:3644   */\n      add\n        /* \"#utility.yul\":3621:3648   */\n      mstore\n        /* \"#utility.yul\":3500:3654   */\n      pop\n      pop\n      pop\n      jump\t// out\n        /* \"#utility.yul\":3660:3967   */\n    tag_76:\n        /* \"#utility.yul\":3728:3729   */\n      0x00\n        /* \"#utility.yul\":3738:3851   */\n    tag_98:\n        /* \"#utility.yul\":3752:3758   */\n      dup4\n        /* \"#utility.yul\":3749:3750   */\n      dup2\n        /* \"#utility.yul\":3746:3759   */\n      lt\n        /* \"#utility.yul\":3738:3851   */\n      iszero\n      tag_100\n      jumpi\n        /* \"#utility.yul\":3837:3838   */\n      dup1\n        /* \"#utility.yul\":3832:3835   */\n      dup3\n        /* \"#utility.yul\":3828:3839   */\n      add\n        /* \"#utility.yul\":3822:3840   */\n      mload\n        /* \"#utility.yul\":3818:3819   */\n      dup2\n        /* \"#utility.yul\":3813:3816   */\n      dup5\n        /* \"#utility.yul\":3809:3820   */\n      add\n        /* \"#utility.yul\":3802:3841   */\n      mstore\n        /* \"#utility.yul\":3774:3776   */\n      0x20\n        /* \"#utility.yul\":3771:3772   */\n      dup2\n        /* \"#utility.yul\":3767:3777   */\n      add\n        /* \"#utility.yul\":3762:3777   */\n      swap1\n      pop\n        /* \"#utility.yul\":3738:3851   */\n      jump(tag_98)\n    tag_100:\n        /* \"#utility.yul\":3869:3875   */\n      dup4\n        /* \"#utility.yul\":3866:3867   */\n      dup2\n        /* \"#utility.yul\":3863:3876   */\n      gt\n        /* \"#utility.yul\":3860:3961   */\n      iszero\n      tag_101\n      jumpi\n        /* \"#utility.yul\":3949:3950   */\n      0x00\n        /* \"#utility.yul\":3940:3946   */\n      dup5\n        /* \"#utility.yul\":3935:3938   */\n      dup5\n        /* \"#utility.yul\":3931:3947   */\n      add\n        /* \"#utility.yul\":3924:3951   */\n      mstore\n        /* \"#utility.yul\":3860:3961   */\n    tag_101:\n        /* \"#utility.yul\":3709:3967   */\n      pop\n        /* \"#utility.yul\":3660:3967   */\n      pop\n      pop\n      pop\n      jump\t// out\n        /* \"#utility.yul\":3973:4293   */\n    tag_16:\n        /* \"#utility.yul\":4017:4023   */\n      0x00\n        /* \"#utility.yul\":4054:4055   */\n      0x02\n        /* \"#utility.yul\":4048:4052   */\n      dup3\n        /* \"#utility.yul\":4044:4056   */\n      div\n        /* \"#utility.yul\":4034:4056   */\n      swap1\n      pop\n        /* \"#utility.yul\":4101:4102   */\n      0x01\n        /* \"#utility.yul\":4095:4099   */\n      dup3\n        /* \"#utility.yul\":4091:4103   */\n      and\n        /* \"#utility.yul\":4122:4140   */\n      dup1\n        /* \"#utility.yul\":4112:4193   */\n      tag_103\n      jumpi\n        /* \"#utility.yul\":4178:4182   */\n      0x7f\n        /* \"#utility.yul\":4170:4176   */\n      dup3\n        /* \"#utility.yul\":4166:4183   */\n      and\n        /* \"#utility.yul\":4156:4183   */\n      swap2\n      pop\n        /* \"#utility.yul\":4112:4193   */\n    tag_103:\n        /* \"#utility.yul\":4240:4242   */\n      0x20\n        /* \"#utility.yul\":4232:4238   */\n      dup3\n        /* \"#utility.yul\":4229:4243   */\n      lt\n        /* \"#utility.yul\":4209:4227   */\n      dup2\n        /* \"#utility.yul\":4206:4244   */\n      eq\n        /* \"#utility.yul\":4203:4287   */\n      iszero\n      tag_104\n      jumpi\n        /* \"#utility.yul\":4259:4277   */\n      tag_105\n      tag_106\n      jump\t// in\n    tag_105:\n        /* \"#utility.yul\":4203:4287   */\n    tag_104:\n        /* \"#utility.yul\":4024:4293   */\n      pop\n        /* \"#utility.yul\":3973:4293   */\n      swap2\n      swap1\n      pop\n      jump\t// out\n        /* \"#utility.yul\":4299:4580   */\n    tag_85:\n        /* \"#utility.yul\":4382:4409   */\n      tag_108\n        /* \"#utility.yul\":4404:4408   */\n      dup3\n        /* \"#utility.yul\":4382:4409   */\n      tag_78\n      jump\t// in\n    tag_108:\n        /* \"#utility.yul\":4374:4380   */\n      dup2\n        /* \"#utility.yul\":4370:4410   */\n      add\n        /* \"#utility.yul\":4512:4518   */\n      dup2\n        /* \"#utility.yul\":4500:4510   */\n      dup2\n        /* \"#utility.yul\":4497:4519   */\n      lt\n        /* \"#utility.yul\":4476:4494   */\n      0xffffffffffffffff\n        /* \"#utility.yul\":4464:4474   */\n      dup3\n        /* \"#utility.yul\":4461:4495   */\n      gt\n        /* \"#utility.yul\":4458:4520   */\n      or\n        /* \"#utility.yul\":4455:4543   */\n      iszero\n      tag_109\n      jumpi\n        /* \"#utility.yul\":4523:4541   */\n      tag_110\n      tag_90\n      jump\t// in\n    tag_110:\n        /* \"#utility.yul\":4455:4543   */\n    tag_109:\n        /* \"#utility.yul\":4563:4573   */\n      dup1\n        /* \"#utility.yul\":4559:4561   */\n      0x40\n        /* \"#utility.yul\":4552:4574   */\n      mstore\n        /* \"#utility.yul\":4342:4580   */\n      pop\n        /* \"#utility.yul\":4299:4580   */\n      pop\n      pop\n      jump\t// out\n        /* \"#utility.yul\":4586:4766   */\n    tag_106:\n        /* \"#utility.yul\":4634:4711   */\n      0x4e487b7100000000000000000000000000000000000000000000000000000000\n        /* \"#utility.yul\":4631:4632   */\n      0x00\n        /* \"#utility.yul\":4624:4712   */\n      mstore\n        /* \"#utility.yul\":4731:4735   */\n      0x22\n        /* \"#utility.yul\":4728:4729   */\n      0x04\n        /* \"#utility.yul\":4721:4736   */\n      mstore\n        /* \"#utility.yul\":4755:4759   */\n      0x24\n        /* \"#utility.yul\":4752:4753   */\n      0x00\n        /* \"#utility.yul\":4745:4760   */\n      revert\n        /* \"#utility.yul\":4772:4952   */\n    tag_90:\n        /* \"#utility.yul\":4820:4897   */\n      0x4e487b7100000000000000000000000000000000000000000000000000000000\n        /* \"#utility.yul\":4817:4818   */\n      0x00\n        /* \"#utility.yul\":4810:4898   */\n      mstore\n        /* \"#utility.yul\":4917:4921   */\n      0x41\n        /* \"#utility.yul\":4914:4915   */\n      0x04\n        /* \"#utility.yul\":4907:4922   */\n      mstore\n        /* \"#utility.yul\":4941:4945   */\n      0x24\n        /* \"#utility.yul\":4938:4939   */\n      0x00\n        /* \"#utility.yul\":4931:4946   */\n      revert\n        /* \"#utility.yul\":4958:5075   */\n    tag_54:\n        /* \"#utility.yul\":5067:5068   */\n      0x00\n        /* \"#utility.yul\":5064:5065   */\n      dup1\n        /* \"#utility.yul\":5057:5069   */\n      revert\n        /* \"#utility.yul\":5081:5198   */\n    tag_43:\n        /* \"#utility.yul\":5190:5191   */\n      0x00\n        /* \"#utility.yul\":5187:5188   */\n      dup1\n        /* \"#utility.yul\":5180:5192   */\n      revert\n        /* \"#utility.yul\":5204:5321   */\n    tag_67:\n        /* \"#utility.yul\":5313:5314   */\n      0x00\n        /* \"#utility.yul\":5310:5311   */\n      dup1\n        /* \"#utility.yul\":5303:5315   */\n      revert\n        /* \"#utility.yul\":5327:5444   */\n    tag_59:\n        /* \"#utility.yul\":5436:5437   */\n      0x00\n        /* \"#utility.yul\":5433:5434   */\n      dup1\n        /* \"#utility.yul\":5426:5438   */\n      revert\n        /* \"#utility.yul\":5450:5552   */\n    tag_78:\n        /* \"#utility.yul\":5491:5497   */\n      0x00\n        /* \"#utility.yul\":5542:5544   */\n      0x1f\n        /* \"#utility.yul\":5538:5545   */\n      not\n        /* \"#utility.yul\":5533:5535   */\n      0x1f\n        /* \"#utility.yul\":5526:5531   */\n      dup4\n        /* \"#utility.yul\":5522:5536   */\n      add\n        /* \"#utility.yul\":5518:5546   */\n      and\n        /* \"#utility.yul\":5508:5546   */\n      swap1\n      pop\n        /* \"#utility.yul\":5450:5552   */\n      swap2\n      swap1\n      pop\n      jump\t// out\n        /* \"#utility.yul\":5558:5678   */\n    tag_49:\n        /* \"#utility.yul\":5630:5653   */\n      tag_119\n        /* \"#utility.yul\":5647:5652   */\n      dup2\n        /* \"#utility.yul\":5630:5653   */\n      tag_94\n      jump\t// in\n    tag_119:\n        /* \"#utility.yul\":5623:5628   */\n      dup2\n        /* \"#utility.yul\":5620:5654   */\n      eq\n        /* \"#utility.yul\":5610:5672   */\n      tag_120\n      jumpi\n        /* \"#utility.yul\":5668:5669   */\n      0x00\n        /* \"#utility.yul\":5665:5666   */\n      dup1\n        /* \"#utility.yul\":5658:5670   */\n      revert\n        /* \"#utility.yul\":5610:5672   */\n    tag_120:\n        /* \"#utility.yul\":5558:5678   */\n      pop\n      jump\t// out\n\n    auxdata: 0xa26469706673582212205560b6e6647700299dbe792dc1d0095648970e95d84440281b11a6f1d5e7221264736f6c63430008070033\n}\n",
				"bytecode": {
					"linkReferences": {},
					"object": "608060405234801561001057600080fd5b5061054f806100206000396000f3fe608060405234801561001057600080fd5b50600436106100365760003560e01c80631617364c1461003b5780636759d43d1461006b575b600080fd5b6100556004803603810190610050919061027a565b610087565b604051610062919061033c565b60405180910390f35b610085600480360381019061008091906102a7565b610127565b005b600060205280600052604060002060009150905080546100a69061041c565b80601f01602080910402602001604051908101604052809291908181526020018280546100d29061041c565b801561011f5780601f106100f45761010080835404028352916020019161011f565b820191906000526020600020905b81548152906001019060200180831161010257829003601f168201915b505050505081565b80600080848152602001908152602001600020908051906020019061014d929190610152565b505050565b82805461015e9061041c565b90600052602060002090601f01602090048101928261018057600085556101c7565b82601f1061019957805160ff19168380011785556101c7565b828001600101855582156101c7579182015b828111156101c65782518255916020019190600101906101ab565b5b5090506101d491906101d8565b5090565b5b808211156101f15760008160009055506001016101d9565b5090565b600061020861020384610383565b61035e565b905082815260208101848484011115610224576102236104e2565b5b61022f8482856103da565b509392505050565b60008135905061024681610502565b92915050565b600082601f830112610261576102606104dd565b5b81356102718482602086016101f5565b91505092915050565b6000602082840312156102905761028f6104ec565b5b600061029e84828501610237565b91505092915050565b600080604083850312156102be576102bd6104ec565b5b60006102cc85828601610237565b925050602083013567ffffffffffffffff8111156102ed576102ec6104e7565b5b6102f98582860161024c565b9150509250929050565b600061030e826103b4565b61031881856103bf565b93506103288185602086016103e9565b610331816104f1565b840191505092915050565b600060208201905081810360008301526103568184610303565b905092915050565b6000610368610379565b9050610374828261044e565b919050565b6000604051905090565b600067ffffffffffffffff82111561039e5761039d6104ae565b5b6103a7826104f1565b9050602081019050919050565b600081519050919050565b600082825260208201905092915050565b6000819050919050565b82818337600083830152505050565b60005b838110156104075780820151818401526020810190506103ec565b83811115610416576000848401525b50505050565b6000600282049050600182168061043457607f821691505b602082108114156104485761044761047f565b5b50919050565b610457826104f1565b810181811067ffffffffffffffff82111715610476576104756104ae565b5b80604052505050565b7f4e487b7100000000000000000000000000000000000000000000000000000000600052602260045260246000fd5b7f4e487b7100000000000000000000000000000000000000000000000000000000600052604160045260246000fd5b600080fd5b600080fd5b600080fd5b600080fd5b6000601f19601f8301169050919050565b61050b816103d0565b811461051657600080fd5b5056fea26469706673582212205560b6e6647700299dbe792dc1d0095648970e95d84440281b11a6f1d5e7221264736f6c63430008070033",
					"opcodes": "PUSH1 0x80 PUSH1 0x40 MSTORE CALLVALUE DUP1 ISZERO PUSH2 0x10 JUMPI PUSH1 0x0 DUP1 REVERT JUMPDEST POP PUSH2 0x54F DUP1 PUSH2 0x20 PUSH1 0x0 CODECOPY PUSH1 0x0 RETURN INVALID PUSH1 0x80 PUSH1 0x40 MSTORE CALLVALUE DUP1 ISZERO PUSH2 0x10 JUMPI PUSH1 0x0 DUP1 REVERT JUMPDEST POP PUSH1 0x4 CALLDATASIZE LT PUSH2 0x36 JUMPI PUSH1 0x0 CALLDATALOAD PUSH1 0xE0 SHR DUP1 PUSH4 0x1617364C EQ PUSH2 0x3B JUMPI DUP1 PUSH4 0x6759D43D EQ PUSH2 0x6B JUMPI JUMPDEST PUSH1 0x0 DUP1 REVERT JUMPDEST PUSH2 0x55 PUSH1 0x4 DUP1 CALLDATASIZE SUB DUP2 ADD SWAP1 PUSH2 0x50 SWAP2 SWAP1 PUSH2 0x27A JUMP JUMPDEST PUSH2 0x87 JUMP JUMPDEST PUSH1 0x40 MLOAD PUSH2 0x62 SWAP2 SWAP1 PUSH2 0x33C JUMP JUMPDEST PUSH1 0x40 MLOAD DUP1 SWAP2 SUB SWAP1 RETURN JUMPDEST PUSH2 0x85 PUSH1 0x4 DUP1 CALLDATASIZE SUB DUP2 ADD SWAP1 PUSH2 0x80 SWAP2 SWAP1 PUSH2 0x2A7 JUMP JUMPDEST PUSH2 0x127 JUMP JUMPDEST STOP JUMPDEST PUSH1 0x0 PUSH1 0x20 MSTORE DUP1 PUSH1 0x0 MSTORE PUSH1 0x40 PUSH1 0x0 KECCAK256 PUSH1 0x0 SWAP2 POP SWAP1 POP DUP1 SLOAD PUSH2 0xA6 SWAP1 PUSH2 0x41C JUMP JUMPDEST DUP1 PUSH1 0x1F ADD PUSH1 0x20 DUP1 SWAP2 DIV MUL PUSH1 0x20 ADD PUSH1 0x40 MLOAD SWAP1 DUP2 ADD PUSH1 0x40 MSTORE DUP1 SWAP3 SWAP2 SWAP1 DUP2 DUP2 MSTORE PUSH1 0x20 ADD DUP3 DUP1 SLOAD PUSH2 0xD2 SWAP1 PUSH2 0x41C JUMP JUMPDEST DUP1 ISZERO PUSH2 0x11F JUMPI DUP1 PUSH1 0x1F LT PUSH2 0xF4 JUMPI PUSH2 0x100 DUP1 DUP4 SLOAD DIV MUL DUP4 MSTORE SWAP2 PUSH1 0x20 ADD SWAP2 PUSH2 0x11F JUMP JUMPDEST DUP3 ADD SWAP2 SWAP1 PUSH1 0x0 MSTORE PUSH1 0x20 PUSH1 0x0 KECCAK256 SWAP1 JUMPDEST DUP2 SLOAD DUP2 MSTORE SWAP1 PUSH1 0x1 ADD SWAP1 PUSH1 0x20 ADD DUP1 DUP4 GT PUSH2 0x102 JUMPI DUP3 SWAP1 SUB PUSH1 0x1F AND DUP3 ADD SWAP2 JUMPDEST POP POP POP POP POP DUP2 JUMP JUMPDEST DUP1 PUSH1 0x0 DUP1 DUP5 DUP2 MSTORE PUSH1 0x20 ADD SWAP1 DUP2 MSTORE PUSH1 0x20 ADD PUSH1 0x0 KECCAK256 SWAP1 DUP1 MLOAD SWAP1 PUSH1 0x20 ADD SWAP1 PUSH2 0x14D SWAP3 SWAP2 SWAP1 PUSH2 0x152 JUMP JUMPDEST POP POP POP JUMP JUMPDEST DUP3 DUP1 SLOAD PUSH2 0x15E SWAP1 PUSH2 0x41C JUMP JUMPDEST SWAP1 PUSH1 0x0 MSTORE PUSH1 0x20 PUSH1 0x0 KECCAK256 SWAP1 PUSH1 0x1F ADD PUSH1 0x20 SWAP1 DIV DUP2 ADD SWAP3 DUP3 PUSH2 0x180 JUMPI PUSH1 0x0 DUP6 SSTORE PUSH2 0x1C7 JUMP JUMPDEST DUP3 PUSH1 0x1F LT PUSH2 0x199 JUMPI DUP1 MLOAD PUSH1 0xFF NOT AND DUP4 DUP1 ADD OR DUP6 SSTORE PUSH2 0x1C7 JUMP JUMPDEST DUP3 DUP1 ADD PUSH1 0x1 ADD DUP6 SSTORE DUP3 ISZERO PUSH2 0x1C7 JUMPI SWAP2 DUP3 ADD JUMPDEST DUP3 DUP2 GT ISZERO PUSH2 0x1C6 JUMPI DUP3 MLOAD DUP3 SSTORE SWAP2 PUSH1 0x20 ADD SWAP2 SWAP1 PUSH1 0x1 ADD SWAP1 PUSH2 0x1AB JUMP JUMPDEST JUMPDEST POP SWAP1 POP PUSH2 0x1D4 SWAP2 SWAP1 PUSH2 0x1D8 JUMP JUMPDEST POP SWAP1 JUMP JUMPDEST JUMPDEST DUP1 DUP3 GT ISZERO PUSH2 0x1F1 JUMPI PUSH1 0x0 DUP2 PUSH1 0x0 SWAP1 SSTORE POP PUSH1 0x1 ADD PUSH2 0x1D9 JUMP JUMPDEST POP SWAP1 JUMP JUMPDEST PUSH1 0x0 PUSH2 0x208 PUSH2 0x203 DUP5 PUSH2 0x383 JUMP JUMPDEST PUSH2 0x35E JUMP JUMPDEST SWAP1 POP DUP3 DUP2 MSTORE PUSH1 0x20 DUP2 ADD DUP5 DUP5 DUP5 ADD GT ISZERO PUSH2 0x224 JUMPI PUSH2 0x223 PUSH2 0x4E2 JUMP JUMPDEST JUMPDEST PUSH2 0x22F DUP5 DUP3 DUP6 PUSH2 0x3DA JUMP JUMPDEST POP SWAP4 SWAP3 POP POP POP JUMP JUMPDEST PUSH1 0x0 DUP2 CALLDATALOAD SWAP1 POP PUSH2 0x246 DUP2 PUSH2 0x502 JUMP JUMPDEST SWAP3 SWAP2 POP POP JUMP JUMPDEST PUSH1 0x0 DUP3 PUSH1 0x1F DUP4 ADD SLT PUSH2 0x261 JUMPI PUSH2 0x260 PUSH2 0x4DD JUMP JUMPDEST JUMPDEST DUP2 CALLDATALOAD PUSH2 0x271 DUP5 DUP3 PUSH1 0x20 DUP7 ADD PUSH2 0x1F5 JUMP JUMPDEST SWAP2 POP POP SWAP3 SWAP2 POP POP JUMP JUMPDEST PUSH1 0x0 PUSH1 0x20 DUP3 DUP5 SUB SLT ISZERO PUSH2 0x290 JUMPI PUSH2 0x28F PUSH2 0x4EC JUMP JUMPDEST JUMPDEST PUSH1 0x0 PUSH2 0x29E DUP5 DUP3 DUP6 ADD PUSH2 0x237 JUMP JUMPDEST SWAP2 POP POP SWAP3 SWAP2 POP POP JUMP JUMPDEST PUSH1 0x0 DUP1 PUSH1 0x40 DUP4 DUP6 SUB SLT ISZERO PUSH2 0x2BE JUMPI PUSH2 0x2BD PUSH2 0x4EC JUMP JUMPDEST JUMPDEST PUSH1 0x0 PUSH2 0x2CC DUP6 DUP3 DUP7 ADD PUSH2 0x237 JUMP JUMPDEST SWAP3 POP POP PUSH1 0x20 DUP4 ADD CALLDATALOAD PUSH8 0xFFFFFFFFFFFFFFFF DUP2 GT ISZERO PUSH2 0x2ED JUMPI PUSH2 0x2EC PUSH2 0x4E7 JUMP JUMPDEST JUMPDEST PUSH2 0x2F9 DUP6 DUP3 DUP7 ADD PUSH2 0x24C JUMP JUMPDEST SWAP2 POP POP SWAP3 POP SWAP3 SWAP1 POP JUMP JUMPDEST PUSH1 0x0 PUSH2 0x30E DUP3 PUSH2 0x3B4 JUMP JUMPDEST PUSH2 0x318 DUP2 DUP6 PUSH2 0x3BF JUMP JUMPDEST SWAP4 POP PUSH2 0x328 DUP2 DUP6 PUSH1 0x20 DUP7 ADD PUSH2 0x3E9 JUMP JUMPDEST PUSH2 0x331 DUP2 PUSH2 0x4F1 JUMP JUMPDEST DUP5 ADD SWAP2 POP POP SWAP3 SWAP2 POP POP JUMP JUMPDEST PUSH1 0x0 PUSH1 0x20 DUP3 ADD SWAP1 POP DUP2 DUP2 SUB PUSH1 0x0 DUP4 ADD MSTORE PUSH2 0x356 DUP2 DUP5 PUSH2 0x303 JUMP JUMPDEST SWAP1 POP SWAP3 SWAP2 POP POP JUMP JUMPDEST PUSH1 0x0 PUSH2 0x368 PUSH2 0x379 JUMP JUMPDEST SWAP1 POP PUSH2 0x374 DUP3 DUP3 PUSH2 0x44E JUMP JUMPDEST SWAP2 SWAP1 POP JUMP JUMPDEST PUSH1 0x0 PUSH1 0x40 MLOAD SWAP1 POP SWAP1 JUMP JUMPDEST PUSH1 0x0 PUSH8 0xFFFFFFFFFFFFFFFF DUP3 GT ISZERO PUSH2 0x39E JUMPI PUSH2 0x39D PUSH2 0x4AE JUMP JUMPDEST JUMPDEST PUSH2 0x3A7 DUP3 PUSH2 0x4F1 JUMP JUMPDEST SWAP1 POP PUSH1 0x20 DUP2 ADD SWAP1 POP SWAP2 SWAP1 POP JUMP JUMPDEST PUSH1 0x0 DUP2 MLOAD SWAP1 POP SWAP2 SWAP1 POP JUMP JUMPDEST PUSH1 0x0 DUP3 DUP3 MSTORE PUSH1 0x20 DUP3 ADD SWAP1 POP SWAP3 SWAP2 POP POP JUMP JUMPDEST PUSH1 0x0 DUP2 SWAP1 POP SWAP2 SWAP1 POP JUMP JUMPDEST DUP3 DUP2 DUP4 CALLDATACOPY PUSH1 0x0 DUP4 DUP4 ADD MSTORE POP POP POP JUMP JUMPDEST PUSH1 0x0 JUMPDEST DUP4 DUP2 LT ISZERO PUSH2 0x407 JUMPI DUP1 DUP3 ADD MLOAD DUP2 DUP5 ADD MSTORE PUSH1 0x20 DUP2 ADD SWAP1 POP PUSH2 0x3EC JUMP JUMPDEST DUP4 DUP2 GT ISZERO PUSH2 0x416 JUMPI PUSH1 0x0 DUP5 DUP5 ADD MSTORE JUMPDEST POP POP POP POP JUMP JUMPDEST PUSH1 0x0 PUSH1 0x2 DUP3 DIV SWAP1 POP PUSH1 0x1 DUP3 AND DUP1 PUSH2 0x434 JUMPI PUSH1 0x7F DUP3 AND SWAP2 POP JUMPDEST PUSH1 0x20 DUP3 LT DUP2 EQ ISZERO PUSH2 0x448 JUMPI PUSH2 0x447 PUSH2 0x47F JUMP JUMPDEST JUMPDEST POP SWAP2 SWAP1 POP JUMP JUMPDEST PUSH2 0x457 DUP3 PUSH2 0x4F1 JUMP JUMPDEST DUP2 ADD DUP2 DUP2 LT PUSH8 0xFFFFFFFFFFFFFFFF DUP3 GT OR ISZERO PUSH2 0x476 JUMPI PUSH2 0x475 PUSH2 0x4AE JUMP JUMPDEST JUMPDEST DUP1 PUSH1 0x40 MSTORE POP POP POP JUMP JUMPDEST PUSH32 0x4E487B7100000000000000000000000000000000000000000000000000000000 PUSH1 0x0 MSTORE PUSH1 0x22 PUSH1 0x4 MSTORE PUSH1 0x24 PUSH1 0x0 REVERT JUMPDEST PUSH32 0x4E487B7100000000000000000000000000000000000000000000000000000000 PUSH1 0x0 MSTORE PUSH1 0x41 PUSH1 0x4 MSTORE PUSH1 0x24 PUSH1 0x0 REVERT JUMPDEST PUSH1 0x0 DUP1 REVERT JUMPDEST PUSH1 0x0 DUP1 REVERT JUMPDEST PUSH1 0x0 DUP1 REVERT JUMPDEST PUSH1 0x0 DUP1 REVERT JUMPDEST PUSH1 0x0 PUSH1 0x1F NOT PUSH1 0x1F DUP4 ADD AND SWAP1 POP SWAP2 SWAP1 POP JUMP JUMPDEST PUSH2 0x50B DUP2 PUSH2 0x3D0 JUMP JUMPDEST DUP2 EQ PUSH2 0x516 JUMPI PUSH1 0x0 DUP1 REVERT JUMPDEST POP JUMP INVALID LOG2 PUSH5 0x6970667358 0x22 SLT KECCAK256 SSTORE PUSH1 0xB6 0xE6 PUSH5 0x7700299DBE PUSH26 0x2DC1D0095648970E95D84440281B11A6F1D5E7221264736F6C63 NUMBER STOP ADDMOD SMOD STOP CALLER "
				},
				"gasEstimates": {
					"creation": {
						"codeDepositCost": "271800",
						"executionCost": "312",
						"totalCost": "272112"
					},
					"external": {
						"new_roll(int256)": "infinite",
						"setter(int256,string)": "infinite"
					}
				},
				"methodIdentifiers": {
					"new_roll(int256)": "1617364c",
					"setter(int256,string)": "6759d43d"
				}
			},
			"storageLayout": {
				"storage": [
					{
						"astId": 8,
						"contract": "struct_map.sol:map",
						"label": "new_roll",
						"offset": 0,
						"slot": "0",
						"type": "t_mapping(t_int256,t_string_storage)"
					}
				],
				"types": {
					"t_int256": {
						"encoding": "inplace",
						"label": "int256",
						"numberOfBytes": "32"
					},
					"t_mapping(t_int256,t_string_storage)": {
						"encoding": "mapping",
						"key": "t_int256",
						"label": "mapping(int256 => string)",
						"numberOfBytes": "32",
						"value": "t_string_storage"
					},
					"t_string_storage": {
						"encoding": "bytes",
						"label": "string",
						"numberOfBytes": "32"
					}
				}
			},
			"userdoc": {
				"kind": "user",
				"methods": {},
				"version": 1
			}
		}
	}
}