{
	"struct_map.sol": {
		"map": {
			"abi": [
				{
					"inputs": [
						{
							"internalType": "int256",
							"name": "",
							"type": "int256"
						}
					],
					"name": "human_info",
					"outputs": [
						{
							"internalType": "int256",
							"name": "roll",
							"type": "int256"
						},
						{
							"internalType": "string",
							"name": "name",
							"type": "string"
						}
					],
					"stateMutability": "view",
					"type": "function"
				},
				{
					"inputs": [
						{
							"internalType": "int256",
							"name": "key",
							"type": "int256"
						},
						{
							"internalType": "int256",
							"name": "_roll",
							"type": "int256"
						},
						{
							"internalType": "string",
							"name": "_name",
							"type": "string"
						}
					],
					"name": "setter",
					"outputs": [],
					"stateMutability": "nonpayable",
					"type": "function"
				}
			],
			"devdoc": {
				"kind": "dev",
				"methods": {},
				"version": 1
			},
			"evm": {
				"assembly": "    /* \"struct_map.sol\":76:328  contract map{\r... */\n  mstore(0x40, 0x80)\n  callvalue\n  dup1\n  iszero\n  tag_1\n  jumpi\n  0x00\n  dup1\n  revert\ntag_1:\n  pop\n  dataSize(sub_0)\n  dup1\n  dataOffset(sub_0)\n  0x00\n  codecopy\n  0x00\n  return\nstop\n\nsub_0: assembly {\n        /* \"struct_map.sol\":76:328  contract map{\r... */\n      mstore(0x40, 0x80)\n      callvalue\n      dup1\n      iszero\n      tag_1\n      jumpi\n      0x00\n      dup1\n      revert\n    tag_1:\n      pop\n      jumpi(tag_2, lt(calldatasize, 0x04))\n      shr(0xe0, calldataload(0x00))\n      dup1\n      0x998b6548\n      eq\n      tag_3\n      jumpi\n      dup1\n      0xa705b0e6\n      eq\n      tag_4\n      jumpi\n    tag_2:\n      0x00\n      dup1\n      revert\n        /* \"struct_map.sol\":206:325  function setter(int key, int _roll, string memory _name) public{\r... */\n    tag_3:\n      tag_5\n      0x04\n      dup1\n      calldatasize\n      sub\n      dup2\n      add\n      swap1\n      tag_6\n      swap2\n      swap1\n      tag_7\n      jump\t// in\n    tag_6:\n      tag_8\n      jump\t// in\n    tag_5:\n      stop\n        /* \"struct_map.sol\":162:199  mapping(int=>Human) public human_info */\n    tag_4:\n      tag_9\n      0x04\n      dup1\n      calldatasize\n      sub\n      dup2\n      add\n      swap1\n      tag_10\n      swap2\n      swap1\n      tag_11\n      jump\t// in\n    tag_10:\n      tag_12\n      jump\t// in\n    tag_9:\n      mload(0x40)\n      tag_13\n      swap3\n      swap2\n      swap1\n      tag_14\n      jump\t// in\n    tag_13:\n      mload(0x40)\n      dup1\n      swap2\n      sub\n      swap1\n      return\n        /* \"struct_map.sol\":206:325  function setter(int key, int _roll, string memory _name) public{\r... */\n    tag_8:\n        /* \"struct_map.sol\":298:317  Human(_roll, _name) */\n      mload(0x40)\n      dup1\n      0x40\n      add\n      0x40\n      mstore\n      dup1\n        /* \"struct_map.sol\":304:309  _roll */\n      dup4\n        /* \"struct_map.sol\":298:317  Human(_roll, _name) */\n      dup2\n      mstore\n      0x20\n      add\n        /* \"struct_map.sol\":311:316  _name */\n      dup3\n        /* \"struct_map.sol\":298:317  Human(_roll, _name) */\n      dup2\n      mstore\n      pop\n        /* \"struct_map.sol\":280:290  human_info */\n      0x00\n        /* \"struct_map.sol\":280:295  human_info[key] */\n      dup1\n        /* \"struct_map.sol\":291:294  key */\n      dup6\n        /* \"struct_map.sol\":280:295  human_info[key] */\n      dup2\n      mstore\n      0x20\n      add\n      swap1\n      dup2\n      mstore\n      0x20\n      add\n      0x00\n      keccak256\n        /* \"struct_map.sol\":280:317  human_info[key] = Human(_roll, _name) */\n      0x00\n      dup3\n      add\n      mload\n      dup2\n      0x00\n      add\n      sstore\n      0x20\n      dup3\n      add\n      mload\n      dup2\n      0x01\n      add\n      swap1\n      dup1\n      mload\n      swap1\n      0x20\n      add\n      swap1\n      tag_16\n      swap3\n      swap2\n      swap1\n      tag_17\n      jump\t// in\n    tag_16:\n      pop\n      swap1\n      pop\n      pop\n        /* \"struct_map.sol\":206:325  function setter(int key, int _roll, string memory _name) public{\r... */\n      pop\n      pop\n      pop\n      jump\t// out\n        /* \"struct_map.sol\":162:199  mapping(int=>Human) public human_info */\n    tag_12:\n      mstore(0x20, 0x00)\n      dup1\n      0x00\n      mstore\n      keccak256(0x00, 0x40)\n      0x00\n      swap2\n      pop\n      swap1\n      pop\n      dup1\n      0x00\n      add\n      sload\n      swap1\n      dup1\n      0x01\n      add\n      dup1\n      sload\n      tag_18\n      swap1\n      tag_19\n      jump\t// in\n    tag_18:\n      dup1\n      0x1f\n      add\n      0x20\n      dup1\n      swap2\n      div\n      mul\n      0x20\n      add\n      mload(0x40)\n      swap1\n      dup2\n      add\n      0x40\n      mstore\n      dup1\n      swap3\n      swap2\n      swap1\n      dup2\n      dup2\n      mstore\n      0x20\n      add\n      dup3\n      dup1\n      sload\n      tag_20\n      swap1\n      tag_19\n      jump\t// in\n    tag_20:\n      dup1\n      iszero\n      tag_21\n      jumpi\n      dup1\n      0x1f\n      lt\n      tag_22\n      jumpi\n      0x0100\n      dup1\n      dup4\n      sload\n      div\n      mul\n      dup4\n      mstore\n      swap2\n      0x20\n      add\n      swap2\n      jump(tag_21)\n    tag_22:\n      dup3\n      add\n      swap2\n      swap1\n      0x00\n      mstore\n      keccak256(0x00, 0x20)\n      swap1\n    tag_23:\n      dup2\n      sload\n      dup2\n      mstore\n      swap1\n      0x01\n      add\n      swap1\n      0x20\n      add\n      dup1\n      dup4\n      gt\n      tag_23\n      jumpi\n      dup3\n      swap1\n      sub\n      0x1f\n      and\n      dup3\n      add\n      swap2\n    tag_21:\n      pop\n      pop\n      pop\n      pop\n      pop\n      swap1\n      pop\n      dup3\n      jump\t// out\n    tag_17:\n      dup3\n      dup1\n      sload\n      tag_24\n      swap1\n      tag_19\n      jump\t// in\n    tag_24:\n      swap1\n      0x00\n      mstore\n      keccak256(0x00, 0x20)\n      swap1\n      0x1f\n      add\n      0x20\n      swap1\n      div\n      dup2\n      add\n      swap3\n      dup3\n      tag_26\n      jumpi\n      0x00\n      dup6\n      sstore\n      jump(tag_25)\n    tag_26:\n      dup3\n      0x1f\n      lt\n      tag_27\n      jumpi\n      dup1\n      mload\n      not(0xff)\n      and\n      dup4\n      dup1\n      add\n      or\n      dup6\n      sstore\n      jump(tag_25)\n    tag_27:\n      dup3\n      dup1\n      add\n      0x01\n      add\n      dup6\n      sstore\n      dup3\n      iszero\n      tag_25\n      jumpi\n      swap2\n      dup3\n      add\n    tag_28:\n      dup3\n      dup2\n      gt\n      iszero\n      tag_29\n      jumpi\n      dup3\n      mload\n      dup3\n      sstore\n      swap2\n      0x20\n      add\n      swap2\n      swap1\n      0x01\n      add\n      swap1\n      jump(tag_28)\n    tag_29:\n    tag_25:\n      pop\n      swap1\n      pop\n      tag_30\n      swap2\n      swap1\n      tag_31\n      jump\t// in\n    tag_30:\n      pop\n      swap1\n      jump\t// out\n    tag_31:\n    tag_32:\n      dup1\n      dup3\n      gt\n      iszero\n      tag_33\n      jumpi\n      0x00\n      dup2\n      0x00\n      swap1\n      sstore\n      pop\n      0x01\n      add\n      jump(tag_32)\n    tag_33:\n      pop\n      swap1\n      jump\t// out\n        /* \"#utility.yul\":7:419   */\n    tag_35:\n        /* \"#utility.yul\":85:90   */\n      0x00\n        /* \"#utility.yul\":110:176   */\n      tag_37\n        /* \"#utility.yul\":126:175   */\n      tag_38\n        /* \"#utility.yul\":168:174   */\n      dup5\n        /* \"#utility.yul\":126:175   */\n      tag_39\n      jump\t// in\n    tag_38:\n        /* \"#utility.yul\":110:176   */\n      tag_40\n      jump\t// in\n    tag_37:\n        /* \"#utility.yul\":101:176   */\n      swap1\n      pop\n        /* \"#utility.yul\":199:205   */\n      dup3\n        /* \"#utility.yul\":192:197   */\n      dup2\n        /* \"#utility.yul\":185:206   */\n      mstore\n        /* \"#utility.yul\":237:241   */\n      0x20\n        /* \"#utility.yul\":230:235   */\n      dup2\n        /* \"#utility.yul\":226:242   */\n      add\n        /* \"#utility.yul\":275:278   */\n      dup5\n        /* \"#utility.yul\":266:272   */\n      dup5\n        /* \"#utility.yul\":261:264   */\n      dup5\n        /* \"#utility.yul\":257:273   */\n      add\n        /* \"#utility.yul\":254:279   */\n      gt\n        /* \"#utility.yul\":251:363   */\n      iszero\n      tag_41\n      jumpi\n        /* \"#utility.yul\":282:361   */\n      tag_42\n      tag_43\n      jump\t// in\n    tag_42:\n        /* \"#utility.yul\":251:363   */\n    tag_41:\n        /* \"#utility.yul\":372:413   */\n      tag_44\n        /* \"#utility.yul\":406:412   */\n      dup5\n        /* \"#utility.yul\":401:404   */\n      dup3\n        /* \"#utility.yul\":396:399   */\n      dup6\n        /* \"#utility.yul\":372:413   */\n      tag_45\n      jump\t// in\n    tag_44:\n        /* \"#utility.yul\":91:419   */\n      pop\n        /* \"#utility.yul\":7:419   */\n      swap4\n      swap3\n      pop\n      pop\n      pop\n      jump\t// out\n        /* \"#utility.yul\":425:562   */\n    tag_46:\n        /* \"#utility.yul\":470:475   */\n      0x00\n        /* \"#utility.yul\":508:514   */\n      dup2\n        /* \"#utility.yul\":495:515   */\n      calldataload\n        /* \"#utility.yul\":486:515   */\n      swap1\n      pop\n        /* \"#utility.yul\":524:556   */\n      tag_48\n        /* \"#utility.yul\":550:555   */\n      dup2\n        /* \"#utility.yul\":524:556   */\n      tag_49\n      jump\t// in\n    tag_48:\n        /* \"#utility.yul\":425:562   */\n      swap3\n      swap2\n      pop\n      pop\n      jump\t// out\n        /* \"#utility.yul\":582:922   */\n    tag_50:\n        /* \"#utility.yul\":638:643   */\n      0x00\n        /* \"#utility.yul\":687:690   */\n      dup3\n        /* \"#utility.yul\":680:684   */\n      0x1f\n        /* \"#utility.yul\":672:678   */\n      dup4\n        /* \"#utility.yul\":668:685   */\n      add\n        /* \"#utility.yul\":664:691   */\n      slt\n        /* \"#utility.yul\":654:776   */\n      tag_52\n      jumpi\n        /* \"#utility.yul\":695:774   */\n      tag_53\n      tag_54\n      jump\t// in\n    tag_53:\n        /* \"#utility.yul\":654:776   */\n    tag_52:\n        /* \"#utility.yul\":812:818   */\n      dup2\n        /* \"#utility.yul\":799:819   */\n      calldataload\n        /* \"#utility.yul\":837:916   */\n      tag_55\n        /* \"#utility.yul\":912:915   */\n      dup5\n        /* \"#utility.yul\":904:910   */\n      dup3\n        /* \"#utility.yul\":897:901   */\n      0x20\n        /* \"#utility.yul\":889:895   */\n      dup7\n        /* \"#utility.yul\":885:902   */\n      add\n        /* \"#utility.yul\":837:916   */\n      tag_35\n      jump\t// in\n    tag_55:\n        /* \"#utility.yul\":828:916   */\n      swap2\n      pop\n        /* \"#utility.yul\":644:922   */\n      pop\n        /* \"#utility.yul\":582:922   */\n      swap3\n      swap2\n      pop\n      pop\n      jump\t// out\n        /* \"#utility.yul\":928:1255   */\n    tag_11:\n        /* \"#utility.yul\":986:992   */\n      0x00\n        /* \"#utility.yul\":1035:1037   */\n      0x20\n        /* \"#utility.yul\":1023:1032   */\n      dup3\n        /* \"#utility.yul\":1014:1021   */\n      dup5\n        /* \"#utility.yul\":1010:1033   */\n      sub\n        /* \"#utility.yul\":1006:1038   */\n      slt\n        /* \"#utility.yul\":1003:1122   */\n      iszero\n      tag_57\n      jumpi\n        /* \"#utility.yul\":1041:1120   */\n      tag_58\n      tag_59\n      jump\t// in\n    tag_58:\n        /* \"#utility.yul\":1003:1122   */\n    tag_57:\n        /* \"#utility.yul\":1161:1162   */\n      0x00\n        /* \"#utility.yul\":1186:1238   */\n      tag_60\n        /* \"#utility.yul\":1230:1237   */\n      dup5\n        /* \"#utility.yul\":1221:1227   */\n      dup3\n        /* \"#utility.yul\":1210:1219   */\n      dup6\n        /* \"#utility.yul\":1206:1228   */\n      add\n        /* \"#utility.yul\":1186:1238   */\n      tag_46\n      jump\t// in\n    tag_60:\n        /* \"#utility.yul\":1176:1238   */\n      swap2\n      pop\n        /* \"#utility.yul\":1132:1248   */\n      pop\n        /* \"#utility.yul\":928:1255   */\n      swap3\n      swap2\n      pop\n      pop\n      jump\t// out\n        /* \"#utility.yul\":1261:2056   */\n    tag_7:\n        /* \"#utility.yul\":1346:1352   */\n      0x00\n        /* \"#utility.yul\":1354:1360   */\n      dup1\n        /* \"#utility.yul\":1362:1368   */\n      0x00\n        /* \"#utility.yul\":1411:1413   */\n      0x60\n        /* \"#utility.yul\":1399:1408   */\n      dup5\n        /* \"#utility.yul\":1390:1397   */\n      dup7\n        /* \"#utility.yul\":1386:1409   */\n      sub\n        /* \"#utility.yul\":1382:1414   */\n      slt\n        /* \"#utility.yul\":1379:1498   */\n      iszero\n      tag_62\n      jumpi\n        /* \"#utility.yul\":1417:1496   */\n      tag_63\n      tag_59\n      jump\t// in\n    tag_63:\n        /* \"#utility.yul\":1379:1498   */\n    tag_62:\n        /* \"#utility.yul\":1537:1538   */\n      0x00\n        /* \"#utility.yul\":1562:1614   */\n      tag_64\n        /* \"#utility.yul\":1606:1613   */\n      dup7\n        /* \"#utility.yul\":1597:1603   */\n      dup3\n        /* \"#utility.yul\":1586:1595   */\n      dup8\n        /* \"#utility.yul\":1582:1604   */\n      add\n        /* \"#utility.yul\":1562:1614   */\n      tag_46\n      jump\t// in\n    tag_64:\n        /* \"#utility.yul\":1552:1614   */\n      swap4\n      pop\n        /* \"#utility.yul\":1508:1624   */\n      pop\n        /* \"#utility.yul\":1663:1665   */\n      0x20\n        /* \"#utility.yul\":1689:1741   */\n      tag_65\n        /* \"#utility.yul\":1733:1740   */\n      dup7\n        /* \"#utility.yul\":1724:1730   */\n      dup3\n        /* \"#utility.yul\":1713:1722   */\n      dup8\n        /* \"#utility.yul\":1709:1731   */\n      add\n        /* \"#utility.yul\":1689:1741   */\n      tag_46\n      jump\t// in\n    tag_65:\n        /* \"#utility.yul\":1679:1741   */\n      swap3\n      pop\n        /* \"#utility.yul\":1634:1751   */\n      pop\n        /* \"#utility.yul\":1818:1820   */\n      0x40\n        /* \"#utility.yul\":1807:1816   */\n      dup5\n        /* \"#utility.yul\":1803:1821   */\n      add\n        /* \"#utility.yul\":1790:1822   */\n      calldataload\n        /* \"#utility.yul\":1849:1867   */\n      0xffffffffffffffff\n        /* \"#utility.yul\":1841:1847   */\n      dup2\n        /* \"#utility.yul\":1838:1868   */\n      gt\n        /* \"#utility.yul\":1835:1952   */\n      iszero\n      tag_66\n      jumpi\n        /* \"#utility.yul\":1871:1950   */\n      tag_67\n      tag_68\n      jump\t// in\n    tag_67:\n        /* \"#utility.yul\":1835:1952   */\n    tag_66:\n        /* \"#utility.yul\":1976:2039   */\n      tag_69\n        /* \"#utility.yul\":2031:2038   */\n      dup7\n        /* \"#utility.yul\":2022:2028   */\n      dup3\n        /* \"#utility.yul\":2011:2020   */\n      dup8\n        /* \"#utility.yul\":2007:2029   */\n      add\n        /* \"#utility.yul\":1976:2039   */\n      tag_50\n      jump\t// in\n    tag_69:\n        /* \"#utility.yul\":1966:2039   */\n      swap2\n      pop\n        /* \"#utility.yul\":1761:2049   */\n      pop\n        /* \"#utility.yul\":1261:2056   */\n      swap3\n      pop\n      swap3\n      pop\n      swap3\n      jump\t// out\n        /* \"#utility.yul\":2062:2177   */\n    tag_70:\n        /* \"#utility.yul\":2147:2170   */\n      tag_72\n        /* \"#utility.yul\":2164:2169   */\n      dup2\n        /* \"#utility.yul\":2147:2170   */\n      tag_73\n      jump\t// in\n    tag_72:\n        /* \"#utility.yul\":2142:2145   */\n      dup3\n        /* \"#utility.yul\":2135:2171   */\n      mstore\n        /* \"#utility.yul\":2062:2177   */\n      pop\n      pop\n      jump\t// out\n        /* \"#utility.yul\":2183:2547   */\n    tag_74:\n        /* \"#utility.yul\":2271:2274   */\n      0x00\n        /* \"#utility.yul\":2299:2338   */\n      tag_76\n        /* \"#utility.yul\":2332:2337   */\n      dup3\n        /* \"#utility.yul\":2299:2338   */\n      tag_77\n      jump\t// in\n    tag_76:\n        /* \"#utility.yul\":2354:2425   */\n      tag_78\n        /* \"#utility.yul\":2418:2424   */\n      dup2\n        /* \"#utility.yul\":2413:2416   */\n      dup6\n        /* \"#utility.yul\":2354:2425   */\n      tag_79\n      jump\t// in\n    tag_78:\n        /* \"#utility.yul\":2347:2425   */\n      swap4\n      pop\n        /* \"#utility.yul\":2434:2486   */\n      tag_80\n        /* \"#utility.yul\":2479:2485   */\n      dup2\n        /* \"#utility.yul\":2474:2477   */\n      dup6\n        /* \"#utility.yul\":2467:2471   */\n      0x20\n        /* \"#utility.yul\":2460:2465   */\n      dup7\n        /* \"#utility.yul\":2456:2472   */\n      add\n        /* \"#utility.yul\":2434:2486   */\n      tag_81\n      jump\t// in\n    tag_80:\n        /* \"#utility.yul\":2511:2540   */\n      tag_82\n        /* \"#utility.yul\":2533:2539   */\n      dup2\n        /* \"#utility.yul\":2511:2540   */\n      tag_83\n      jump\t// in\n    tag_82:\n        /* \"#utility.yul\":2506:2509   */\n      dup5\n        /* \"#utility.yul\":2502:2541   */\n      add\n        /* \"#utility.yul\":2495:2541   */\n      swap2\n      pop\n        /* \"#utility.yul\":2275:2547   */\n      pop\n        /* \"#utility.yul\":2183:2547   */\n      swap3\n      swap2\n      pop\n      pop\n      jump\t// out\n        /* \"#utility.yul\":2553:2972   */\n    tag_14:\n        /* \"#utility.yul\":2692:2696   */\n      0x00\n        /* \"#utility.yul\":2730:2732   */\n      0x40\n        /* \"#utility.yul\":2719:2728   */\n      dup3\n        /* \"#utility.yul\":2715:2733   */\n      add\n        /* \"#utility.yul\":2707:2733   */\n      swap1\n      pop\n        /* \"#utility.yul\":2743:2812   */\n      tag_85\n        /* \"#utility.yul\":2809:2810   */\n      0x00\n        /* \"#utility.yul\":2798:2807   */\n      dup4\n        /* \"#utility.yul\":2794:2811   */\n      add\n        /* \"#utility.yul\":2785:2791   */\n      dup6\n        /* \"#utility.yul\":2743:2812   */\n      tag_70\n      jump\t// in\n    tag_85:\n        /* \"#utility.yul\":2859:2868   */\n      dup2\n        /* \"#utility.yul\":2853:2857   */\n      dup2\n        /* \"#utility.yul\":2849:2869   */\n      sub\n        /* \"#utility.yul\":2844:2846   */\n      0x20\n        /* \"#utility.yul\":2833:2842   */\n      dup4\n        /* \"#utility.yul\":2829:2847   */\n      add\n        /* \"#utility.yul\":2822:2870   */\n      mstore\n        /* \"#utility.yul\":2887:2965   */\n      tag_86\n        /* \"#utility.yul\":2960:2964   */\n      dup2\n        /* \"#utility.yul\":2951:2957   */\n      dup5\n        /* \"#utility.yul\":2887:2965   */\n      tag_74\n      jump\t// in\n    tag_86:\n        /* \"#utility.yul\":2879:2965   */\n      swap1\n      pop\n        /* \"#utility.yul\":2553:2972   */\n      swap4\n      swap3\n      pop\n      pop\n      pop\n      jump\t// out\n        /* \"#utility.yul\":2978:3107   */\n    tag_40:\n        /* \"#utility.yul\":3012:3018   */\n      0x00\n        /* \"#utility.yul\":3039:3059   */\n      tag_88\n      tag_89\n      jump\t// in\n    tag_88:\n        /* \"#utility.yul\":3029:3059   */\n      swap1\n      pop\n        /* \"#utility.yul\":3068:3101   */\n      tag_90\n        /* \"#utility.yul\":3096:3100   */\n      dup3\n        /* \"#utility.yul\":3088:3094   */\n      dup3\n        /* \"#utility.yul\":3068:3101   */\n      tag_91\n      jump\t// in\n    tag_90:\n        /* \"#utility.yul\":2978:3107   */\n      swap2\n      swap1\n      pop\n      jump\t// out\n        /* \"#utility.yul\":3113:3188   */\n    tag_89:\n        /* \"#utility.yul\":3146:3152   */\n      0x00\n        /* \"#utility.yul\":3179:3181   */\n      0x40\n        /* \"#utility.yul\":3173:3182   */\n      mload\n        /* \"#utility.yul\":3163:3182   */\n      swap1\n      pop\n        /* \"#utility.yul\":3113:3188   */\n      swap1\n      jump\t// out\n        /* \"#utility.yul\":3194:3502   */\n    tag_39:\n        /* \"#utility.yul\":3256:3260   */\n      0x00\n        /* \"#utility.yul\":3346:3364   */\n      0xffffffffffffffff\n        /* \"#utility.yul\":3338:3344   */\n      dup3\n        /* \"#utility.yul\":3335:3365   */\n      gt\n        /* \"#utility.yul\":3332:3388   */\n      iszero\n      tag_94\n      jumpi\n        /* \"#utility.yul\":3368:3386   */\n      tag_95\n      tag_96\n      jump\t// in\n    tag_95:\n        /* \"#utility.yul\":3332:3388   */\n    tag_94:\n        /* \"#utility.yul\":3406:3435   */\n      tag_97\n        /* \"#utility.yul\":3428:3434   */\n      dup3\n        /* \"#utility.yul\":3406:3435   */\n      tag_83\n      jump\t// in\n    tag_97:\n        /* \"#utility.yul\":3398:3435   */\n      swap1\n      pop\n        /* \"#utility.yul\":3490:3494   */\n      0x20\n        /* \"#utility.yul\":3484:3488   */\n      dup2\n        /* \"#utility.yul\":3480:3495   */\n      add\n        /* \"#utility.yul\":3472:3495   */\n      swap1\n      pop\n        /* \"#utility.yul\":3194:3502   */\n      swap2\n      swap1\n      pop\n      jump\t// out\n        /* \"#utility.yul\":3508:3607   */\n    tag_77:\n        /* \"#utility.yul\":3560:3566   */\n      0x00\n        /* \"#utility.yul\":3594:3599   */\n      dup2\n        /* \"#utility.yul\":3588:3600   */\n      mload\n        /* \"#utility.yul\":3578:3600   */\n      swap1\n      pop\n        /* \"#utility.yul\":3508:3607   */\n      swap2\n      swap1\n      pop\n      jump\t// out\n        /* \"#utility.yul\":3613:3782   */\n    tag_79:\n        /* \"#utility.yul\":3697:3708   */\n      0x00\n        /* \"#utility.yul\":3731:3737   */\n      dup3\n        /* \"#utility.yul\":3726:3729   */\n      dup3\n        /* \"#utility.yul\":3719:3738   */\n      mstore\n        /* \"#utility.yul\":3771:3775   */\n      0x20\n        /* \"#utility.yul\":3766:3769   */\n      dup3\n        /* \"#utility.yul\":3762:3776   */\n      add\n        /* \"#utility.yul\":3747:3776   */\n      swap1\n      pop\n        /* \"#utility.yul\":3613:3782   */\n      swap3\n      swap2\n      pop\n      pop\n      jump\t// out\n        /* \"#utility.yul\":3788:3864   */\n    tag_73:\n        /* \"#utility.yul\":3824:3831   */\n      0x00\n        /* \"#utility.yul\":3853:3858   */\n      dup2\n        /* \"#utility.yul\":3842:3858   */\n      swap1\n      pop\n        /* \"#utility.yul\":3788:3864   */\n      swap2\n      swap1\n      pop\n      jump\t// out\n        /* \"#utility.yul\":3870:4024   */\n    tag_45:\n        /* \"#utility.yul\":3954:3960   */\n      dup3\n        /* \"#utility.yul\":3949:3952   */\n      dup2\n        /* \"#utility.yul\":3944:3947   */\n      dup4\n        /* \"#utility.yul\":3931:3961   */\n      calldatacopy\n        /* \"#utility.yul\":4016:4017   */\n      0x00\n        /* \"#utility.yul\":4007:4013   */\n      dup4\n        /* \"#utility.yul\":4002:4005   */\n      dup4\n        /* \"#utility.yul\":3998:4014   */\n      add\n        /* \"#utility.yul\":3991:4018   */\n      mstore\n        /* \"#utility.yul\":3870:4024   */\n      pop\n      pop\n      pop\n      jump\t// out\n        /* \"#utility.yul\":4030:4337   */\n    tag_81:\n        /* \"#utility.yul\":4098:4099   */\n      0x00\n        /* \"#utility.yul\":4108:4221   */\n    tag_103:\n        /* \"#utility.yul\":4122:4128   */\n      dup4\n        /* \"#utility.yul\":4119:4120   */\n      dup2\n        /* \"#utility.yul\":4116:4129   */\n      lt\n        /* \"#utility.yul\":4108:4221   */\n      iszero\n      tag_105\n      jumpi\n        /* \"#utility.yul\":4207:4208   */\n      dup1\n        /* \"#utility.yul\":4202:4205   */\n      dup3\n        /* \"#utility.yul\":4198:4209   */\n      add\n        /* \"#utility.yul\":4192:4210   */\n      mload\n        /* \"#utility.yul\":4188:4189   */\n      dup2\n        /* \"#utility.yul\":4183:4186   */\n      dup5\n        /* \"#utility.yul\":4179:4190   */\n      add\n        /* \"#utility.yul\":4172:4211   */\n      mstore\n        /* \"#utility.yul\":4144:4146   */\n      0x20\n        /* \"#utility.yul\":4141:4142   */\n      dup2\n        /* \"#utility.yul\":4137:4147   */\n      add\n        /* \"#utility.yul\":4132:4147   */\n      swap1\n      pop\n        /* \"#utility.yul\":4108:4221   */\n      jump(tag_103)\n    tag_105:\n        /* \"#utility.yul\":4239:4245   */\n      dup4\n        /* \"#utility.yul\":4236:4237   */\n      dup2\n        /* \"#utility.yul\":4233:4246   */\n      gt\n        /* \"#utility.yul\":4230:4331   */\n      iszero\n      tag_106\n      jumpi\n        /* \"#utility.yul\":4319:4320   */\n      0x00\n        /* \"#utility.yul\":4310:4316   */\n      dup5\n        /* \"#utility.yul\":4305:4308   */\n      dup5\n        /* \"#utility.yul\":4301:4317   */\n      add\n        /* \"#utility.yul\":4294:4321   */\n      mstore\n        /* \"#utility.yul\":4230:4331   */\n    tag_106:\n        /* \"#utility.yul\":4079:4337   */\n      pop\n        /* \"#utility.yul\":4030:4337   */\n      pop\n      pop\n      pop\n      jump\t// out\n        /* \"#utility.yul\":4343:4663   */\n    tag_19:\n        /* \"#utility.yul\":4387:4393   */\n      0x00\n        /* \"#utility.yul\":4424:4425   */\n      0x02\n        /* \"#utility.yul\":4418:4422   */\n      dup3\n        /* \"#utility.yul\":4414:4426   */\n      div\n        /* \"#utility.yul\":4404:4426   */\n      swap1\n      pop\n        /* \"#utility.yul\":4471:4472   */\n      0x01\n        /* \"#utility.yul\":4465:4469   */\n      dup3\n        /* \"#utility.yul\":4461:4473   */\n      and\n        /* \"#utility.yul\":4492:4510   */\n      dup1\n        /* \"#utility.yul\":4482:4563   */\n      tag_108\n      jumpi\n        /* \"#utility.yul\":4548:4552   */\n      0x7f\n        /* \"#utility.yul\":4540:4546   */\n      dup3\n        /* \"#utility.yul\":4536:4553   */\n      and\n        /* \"#utility.yul\":4526:4553   */\n      swap2\n      pop\n        /* \"#utility.yul\":4482:4563   */\n    tag_108:\n        /* \"#utility.yul\":4610:4612   */\n      0x20\n        /* \"#utility.yul\":4602:4608   */\n      dup3\n        /* \"#utility.yul\":4599:4613   */\n      lt\n        /* \"#utility.yul\":4579:4597   */\n      dup2\n        /* \"#utility.yul\":4576:4614   */\n      eq\n        /* \"#utility.yul\":4573:4657   */\n      iszero\n      tag_109\n      jumpi\n        /* \"#utility.yul\":4629:4647   */\n      tag_110\n      tag_111\n      jump\t// in\n    tag_110:\n        /* \"#utility.yul\":4573:4657   */\n    tag_109:\n        /* \"#utility.yul\":4394:4663   */\n      pop\n        /* \"#utility.yul\":4343:4663   */\n      swap2\n      swap1\n      pop\n      jump\t// out\n        /* \"#utility.yul\":4669:4950   */\n    tag_91:\n        /* \"#utility.yul\":4752:4779   */\n      tag_113\n        /* \"#utility.yul\":4774:4778   */\n      dup3\n        /* \"#utility.yul\":4752:4779   */\n      tag_83\n      jump\t// in\n    tag_113:\n        /* \"#utility.yul\":4744:4750   */\n      dup2\n        /* \"#utility.yul\":4740:4780   */\n      add\n        /* \"#utility.yul\":4882:4888   */\n      dup2\n        /* \"#utility.yul\":4870:4880   */\n      dup2\n        /* \"#utility.yul\":4867:4889   */\n      lt\n        /* \"#utility.yul\":4846:4864   */\n      0xffffffffffffffff\n        /* \"#utility.yul\":4834:4844   */\n      dup3\n        /* \"#utility.yul\":4831:4865   */\n      gt\n        /* \"#utility.yul\":4828:4890   */\n      or\n        /* \"#utility.yul\":4825:4913   */\n      iszero\n      tag_114\n      jumpi\n        /* \"#utility.yul\":4893:4911   */\n      tag_115\n      tag_96\n      jump\t// in\n    tag_115:\n        /* \"#utility.yul\":4825:4913   */\n    tag_114:\n        /* \"#utility.yul\":4933:4943   */\n      dup1\n        /* \"#utility.yul\":4929:4931   */\n      0x40\n        /* \"#utility.yul\":4922:4944   */\n      mstore\n        /* \"#utility.yul\":4712:4950   */\n      pop\n        /* \"#utility.yul\":4669:4950   */\n      pop\n      pop\n      jump\t// out\n        /* \"#utility.yul\":4956:5136   */\n    tag_111:\n        /* \"#utility.yul\":5004:5081   */\n      0x4e487b7100000000000000000000000000000000000000000000000000000000\n        /* \"#utility.yul\":5001:5002   */\n      0x00\n        /* \"#utility.yul\":4994:5082   */\n      mstore\n        /* \"#utility.yul\":5101:5105   */\n      0x22\n        /* \"#utility.yul\":5098:5099   */\n      0x04\n        /* \"#utility.yul\":5091:5106   */\n      mstore\n        /* \"#utility.yul\":5125:5129   */\n      0x24\n        /* \"#utility.yul\":5122:5123   */\n      0x00\n        /* \"#utility.yul\":5115:5130   */\n      revert\n        /* \"#utility.yul\":5142:5322   */\n    tag_96:\n        /* \"#utility.yul\":5190:5267   */\n      0x4e487b7100000000000000000000000000000000000000000000000000000000\n        /* \"#utility.yul\":5187:5188   */\n      0x00\n        /* \"#utility.yul\":5180:5268   */\n      mstore\n        /* \"#utility.yul\":5287:5291   */\n      0x41\n        /* \"#utility.yul\":5284:5285   */\n      0x04\n        /* \"#utility.yul\":5277:5292   */\n      mstore\n        /* \"#utility.yul\":5311:5315   */\n      0x24\n        /* \"#utility.yul\":5308:5309   */\n      0x00\n        /* \"#utility.yul\":5301:5316   */\n      revert\n        /* \"#utility.yul\":5328:5445   */\n    tag_54:\n        /* \"#utility.yul\":5437:5438   */\n      0x00\n        /* \"#utility.yul\":5434:5435   */\n      dup1\n        /* \"#utility.yul\":5427:5439   */\n      revert\n        /* \"#utility.yul\":5451:5568   */\n    tag_43:\n        /* \"#utility.yul\":5560:5561   */\n      0x00\n        /* \"#utility.yul\":5557:5558   */\n      dup1\n        /* \"#utility.yul\":5550:5562   */\n      revert\n        /* \"#utility.yul\":5574:5691   */\n    tag_68:\n        /* \"#utility.yul\":5683:5684   */\n      0x00\n        /* \"#utility.yul\":5680:5681   */\n      dup1\n        /* \"#utility.yul\":5673:5685   */\n      revert\n        /* \"#utility.yul\":5697:5814   */\n    tag_59:\n        /* \"#utility.yul\":5806:5807   */\n      0x00\n        /* \"#utility.yul\":5803:5804   */\n      dup1\n        /* \"#utility.yul\":5796:5808   */\n      revert\n        /* \"#utility.yul\":5820:5922   */\n    tag_83:\n        /* \"#utility.yul\":5861:5867   */\n      0x00\n        /* \"#utility.yul\":5912:5914   */\n      0x1f\n        /* \"#utility.yul\":5908:5915   */\n      not\n        /* \"#utility.yul\":5903:5905   */\n      0x1f\n        /* \"#utility.yul\":5896:5901   */\n      dup4\n        /* \"#utility.yul\":5892:5906   */\n      add\n        /* \"#utility.yul\":5888:5916   */\n      and\n        /* \"#utility.yul\":5878:5916   */\n      swap1\n      pop\n        /* \"#utility.yul\":5820:5922   */\n      swap2\n      swap1\n      pop\n      jump\t// out\n        /* \"#utility.yul\":5928:6048   */\n    tag_49:\n        /* \"#utility.yul\":6000:6023   */\n      tag_124\n        /* \"#utility.yul\":6017:6022   */\n      dup2\n        /* \"#utility.yul\":6000:6023   */\n      tag_73\n      jump\t// in\n    tag_124:\n        /* \"#utility.yul\":5993:5998   */\n      dup2\n        /* \"#utility.yul\":5990:6024   */\n      eq\n        /* \"#utility.yul\":5980:6042   */\n      tag_125\n      jumpi\n        /* \"#utility.yul\":6038:6039   */\n      0x00\n        /* \"#utility.yul\":6035:6036   */\n      dup1\n        /* \"#utility.yul\":6028:6040   */\n      revert\n        /* \"#utility.yul\":5980:6042   */\n    tag_125:\n        /* \"#utility.yul\":5928:6048   */\n      pop\n      jump\t// out\n\n    auxdata: 0xa2646970667358221220703e1cffb28cc0fe44687726e605d287c81b9f5344de3f658b2d227f2a637f3464736f6c63430008070033\n}\n",
				"bytecode": {
					"linkReferences": {},
					"object": "608060405234801561001057600080fd5b506105b7806100206000396000f3fe608060405234801561001057600080fd5b50600436106100365760003560e01c8063998b65481461003b578063a705b0e614610057575b600080fd5b610055600480360381019061005091906102df565b610088565b005b610071600480360381019061006c91906102b2565b6100de565b60405161007f929190610396565b60405180910390f35b6040518060400160405280838152602001828152506000808581526020019081526020016000206000820151816000015560208201518160010190805190602001906100d592919061018a565b50905050505050565b600060205280600052604060002060009150905080600001549080600101805461010790610484565b80601f016020809104026020016040519081016040528092919081815260200182805461013390610484565b80156101805780601f1061015557610100808354040283529160200191610180565b820191906000526020600020905b81548152906001019060200180831161016357829003601f168201915b5050505050905082565b82805461019690610484565b90600052602060002090601f0160209004810192826101b857600085556101ff565b82601f106101d157805160ff19168380011785556101ff565b828001600101855582156101ff579182015b828111156101fe5782518255916020019190600101906101e3565b5b50905061020c9190610210565b5090565b5b80821115610229576000816000905550600101610211565b5090565b600061024061023b846103eb565b6103c6565b90508281526020810184848401111561025c5761025b61054a565b5b610267848285610442565b509392505050565b60008135905061027e8161056a565b92915050565b600082601f83011261029957610298610545565b5b81356102a984826020860161022d565b91505092915050565b6000602082840312156102c8576102c7610554565b5b60006102d68482850161026f565b91505092915050565b6000806000606084860312156102f8576102f7610554565b5b60006103068682870161026f565b93505060206103178682870161026f565b925050604084013567ffffffffffffffff8111156103385761033761054f565b5b61034486828701610284565b9150509250925092565b61035781610438565b82525050565b60006103688261041c565b6103728185610427565b9350610382818560208601610451565b61038b81610559565b840191505092915050565b60006040820190506103ab600083018561034e565b81810360208301526103bd818461035d565b90509392505050565b60006103d06103e1565b90506103dc82826104b6565b919050565b6000604051905090565b600067ffffffffffffffff82111561040657610405610516565b5b61040f82610559565b9050602081019050919050565b600081519050919050565b600082825260208201905092915050565b6000819050919050565b82818337600083830152505050565b60005b8381101561046f578082015181840152602081019050610454565b8381111561047e576000848401525b50505050565b6000600282049050600182168061049c57607f821691505b602082108114156104b0576104af6104e7565b5b50919050565b6104bf82610559565b810181811067ffffffffffffffff821117156104de576104dd610516565b5b80604052505050565b7f4e487b7100000000000000000000000000000000000000000000000000000000600052602260045260246000fd5b7f4e487b7100000000000000000000000000000000000000000000000000000000600052604160045260246000fd5b600080fd5b600080fd5b600080fd5b600080fd5b6000601f19601f8301169050919050565b61057381610438565b811461057e57600080fd5b5056fea2646970667358221220703e1cffb28cc0fe44687726e605d287c81b9f5344de3f658b2d227f2a637f3464736f6c63430008070033",
					"opcodes": "PUSH1 0x80 PUSH1 0x40 MSTORE CALLVALUE DUP1 ISZERO PUSH2 0x10 JUMPI PUSH1 0x0 DUP1 REVERT JUMPDEST POP PUSH2 0x5B7 DUP1 PUSH2 0x20 PUSH1 0x0 CODECOPY PUSH1 0x0 RETURN INVALID PUSH1 0x80 PUSH1 0x40 MSTORE CALLVALUE DUP1 ISZERO PUSH2 0x10 JUMPI PUSH1 0x0 DUP1 REVERT JUMPDEST POP PUSH1 0x4 CALLDATASIZE LT PUSH2 0x36 JUMPI PUSH1 0x0 CALLDATALOAD PUSH1 0xE0 SHR DUP1 PUSH4 0x998B6548 EQ PUSH2 0x3B JUMPI DUP1 PUSH4 0xA705B0E6 EQ PUSH2 0x57 JUMPI JUMPDEST PUSH1 0x0 DUP1 REVERT JUMPDEST PUSH2 0x55 PUSH1 0x4 DUP1 CALLDATASIZE SUB DUP2 ADD SWAP1 PUSH2 0x50 SWAP2 SWAP1 PUSH2 0x2DF JUMP JUMPDEST PUSH2 0x88 JUMP JUMPDEST STOP JUMPDEST PUSH2 0x71 PUSH1 0x4 DUP1 CALLDATASIZE SUB DUP2 ADD SWAP1 PUSH2 0x6C SWAP2 SWAP1 PUSH2 0x2B2 JUMP JUMPDEST PUSH2 0xDE JUMP JUMPDEST PUSH1 0x40 MLOAD PUSH2 0x7F SWAP3 SWAP2 SWAP1 PUSH2 0x396 JUMP JUMPDEST PUSH1 0x40 MLOAD DUP1 SWAP2 SUB SWAP1 RETURN JUMPDEST PUSH1 0x40 MLOAD DUP1 PUSH1 0x40 ADD PUSH1 0x40 MSTORE DUP1 DUP4 DUP2 MSTORE PUSH1 0x20 ADD DUP3 DUP2 MSTORE POP PUSH1 0x0 DUP1 DUP6 DUP2 MSTORE PUSH1 0x20 ADD SWAP1 DUP2 MSTORE PUSH1 0x20 ADD PUSH1 0x0 KECCAK256 PUSH1 0x0 DUP3 ADD MLOAD DUP2 PUSH1 0x0 ADD SSTORE PUSH1 0x20 DUP3 ADD MLOAD DUP2 PUSH1 0x1 ADD SWAP1 DUP1 MLOAD SWAP1 PUSH1 0x20 ADD SWAP1 PUSH2 0xD5 SWAP3 SWAP2 SWAP1 PUSH2 0x18A JUMP JUMPDEST POP SWAP1 POP POP POP POP POP JUMP JUMPDEST PUSH1 0x0 PUSH1 0x20 MSTORE DUP1 PUSH1 0x0 MSTORE PUSH1 0x40 PUSH1 0x0 KECCAK256 PUSH1 0x0 SWAP2 POP SWAP1 POP DUP1 PUSH1 0x0 ADD SLOAD SWAP1 DUP1 PUSH1 0x1 ADD DUP1 SLOAD PUSH2 0x107 SWAP1 PUSH2 0x484 JUMP JUMPDEST DUP1 PUSH1 0x1F ADD PUSH1 0x20 DUP1 SWAP2 DIV MUL PUSH1 0x20 ADD PUSH1 0x40 MLOAD SWAP1 DUP2 ADD PUSH1 0x40 MSTORE DUP1 SWAP3 SWAP2 SWAP1 DUP2 DUP2 MSTORE PUSH1 0x20 ADD DUP3 DUP1 SLOAD PUSH2 0x133 SWAP1 PUSH2 0x484 JUMP JUMPDEST DUP1 ISZERO PUSH2 0x180 JUMPI DUP1 PUSH1 0x1F LT PUSH2 0x155 JUMPI PUSH2 0x100 DUP1 DUP4 SLOAD DIV MUL DUP4 MSTORE SWAP2 PUSH1 0x20 ADD SWAP2 PUSH2 0x180 JUMP JUMPDEST DUP3 ADD SWAP2 SWAP1 PUSH1 0x0 MSTORE PUSH1 0x20 PUSH1 0x0 KECCAK256 SWAP1 JUMPDEST DUP2 SLOAD DUP2 MSTORE SWAP1 PUSH1 0x1 ADD SWAP1 PUSH1 0x20 ADD DUP1 DUP4 GT PUSH2 0x163 JUMPI DUP3 SWAP1 SUB PUSH1 0x1F AND DUP3 ADD SWAP2 JUMPDEST POP POP POP POP POP SWAP1 POP DUP3 JUMP JUMPDEST DUP3 DUP1 SLOAD PUSH2 0x196 SWAP1 PUSH2 0x484 JUMP JUMPDEST SWAP1 PUSH1 0x0 MSTORE PUSH1 0x20 PUSH1 0x0 KECCAK256 SWAP1 PUSH1 0x1F ADD PUSH1 0x20 SWAP1 DIV DUP2 ADD SWAP3 DUP3 PUSH2 0x1B8 JUMPI PUSH1 0x0 DUP6 SSTORE PUSH2 0x1FF JUMP JUMPDEST DUP3 PUSH1 0x1F LT PUSH2 0x1D1 JUMPI DUP1 MLOAD PUSH1 0xFF NOT AND DUP4 DUP1 ADD OR DUP6 SSTORE PUSH2 0x1FF JUMP JUMPDEST DUP3 DUP1 ADD PUSH1 0x1 ADD DUP6 SSTORE DUP3 ISZERO PUSH2 0x1FF JUMPI SWAP2 DUP3 ADD JUMPDEST DUP3 DUP2 GT ISZERO PUSH2 0x1FE JUMPI DUP3 MLOAD DUP3 SSTORE SWAP2 PUSH1 0x20 ADD SWAP2 SWAP1 PUSH1 0x1 ADD SWAP1 PUSH2 0x1E3 JUMP JUMPDEST JUMPDEST POP SWAP1 POP PUSH2 0x20C SWAP2 SWAP1 PUSH2 0x210 JUMP JUMPDEST POP SWAP1 JUMP JUMPDEST JUMPDEST DUP1 DUP3 GT ISZERO PUSH2 0x229 JUMPI PUSH1 0x0 DUP2 PUSH1 0x0 SWAP1 SSTORE POP PUSH1 0x1 ADD PUSH2 0x211 JUMP JUMPDEST POP SWAP1 JUMP JUMPDEST PUSH1 0x0 PUSH2 0x240 PUSH2 0x23B DUP5 PUSH2 0x3EB JUMP JUMPDEST PUSH2 0x3C6 JUMP JUMPDEST SWAP1 POP DUP3 DUP2 MSTORE PUSH1 0x20 DUP2 ADD DUP5 DUP5 DUP5 ADD GT ISZERO PUSH2 0x25C JUMPI PUSH2 0x25B PUSH2 0x54A JUMP JUMPDEST JUMPDEST PUSH2 0x267 DUP5 DUP3 DUP6 PUSH2 0x442 JUMP JUMPDEST POP SWAP4 SWAP3 POP POP POP JUMP JUMPDEST PUSH1 0x0 DUP2 CALLDATALOAD SWAP1 POP PUSH2 0x27E DUP2 PUSH2 0x56A JUMP JUMPDEST SWAP3 SWAP2 POP POP JUMP JUMPDEST PUSH1 0x0 DUP3 PUSH1 0x1F DUP4 ADD SLT PUSH2 0x299 JUMPI PUSH2 0x298 PUSH2 0x545 JUMP JUMPDEST JUMPDEST DUP2 CALLDATALOAD PUSH2 0x2A9 DUP5 DUP3 PUSH1 0x20 DUP7 ADD PUSH2 0x22D JUMP JUMPDEST SWAP2 POP POP SWAP3 SWAP2 POP POP JUMP JUMPDEST PUSH1 0x0 PUSH1 0x20 DUP3 DUP5 SUB SLT ISZERO PUSH2 0x2C8 JUMPI PUSH2 0x2C7 PUSH2 0x554 JUMP JUMPDEST JUMPDEST PUSH1 0x0 PUSH2 0x2D6 DUP5 DUP3 DUP6 ADD PUSH2 0x26F JUMP JUMPDEST SWAP2 POP POP SWAP3 SWAP2 POP POP JUMP JUMPDEST PUSH1 0x0 DUP1 PUSH1 0x0 PUSH1 0x60 DUP5 DUP7 SUB SLT ISZERO PUSH2 0x2F8 JUMPI PUSH2 0x2F7 PUSH2 0x554 JUMP JUMPDEST JUMPDEST PUSH1 0x0 PUSH2 0x306 DUP7 DUP3 DUP8 ADD PUSH2 0x26F JUMP JUMPDEST SWAP4 POP POP PUSH1 0x20 PUSH2 0x317 DUP7 DUP3 DUP8 ADD PUSH2 0x26F JUMP JUMPDEST SWAP3 POP POP PUSH1 0x40 DUP5 ADD CALLDATALOAD PUSH8 0xFFFFFFFFFFFFFFFF DUP2 GT ISZERO PUSH2 0x338 JUMPI PUSH2 0x337 PUSH2 0x54F JUMP JUMPDEST JUMPDEST PUSH2 0x344 DUP7 DUP3 DUP8 ADD PUSH2 0x284 JUMP JUMPDEST SWAP2 POP POP SWAP3 POP SWAP3 POP SWAP3 JUMP JUMPDEST PUSH2 0x357 DUP2 PUSH2 0x438 JUMP JUMPDEST DUP3 MSTORE POP POP JUMP JUMPDEST PUSH1 0x0 PUSH2 0x368 DUP3 PUSH2 0x41C JUMP JUMPDEST PUSH2 0x372 DUP2 DUP6 PUSH2 0x427 JUMP JUMPDEST SWAP4 POP PUSH2 0x382 DUP2 DUP6 PUSH1 0x20 DUP7 ADD PUSH2 0x451 JUMP JUMPDEST PUSH2 0x38B DUP2 PUSH2 0x559 JUMP JUMPDEST DUP5 ADD SWAP2 POP POP SWAP3 SWAP2 POP POP JUMP JUMPDEST PUSH1 0x0 PUSH1 0x40 DUP3 ADD SWAP1 POP PUSH2 0x3AB PUSH1 0x0 DUP4 ADD DUP6 PUSH2 0x34E JUMP JUMPDEST DUP2 DUP2 SUB PUSH1 0x20 DUP4 ADD MSTORE PUSH2 0x3BD DUP2 DUP5 PUSH2 0x35D JUMP JUMPDEST SWAP1 POP SWAP4 SWAP3 POP POP POP JUMP JUMPDEST PUSH1 0x0 PUSH2 0x3D0 PUSH2 0x3E1 JUMP JUMPDEST SWAP1 POP PUSH2 0x3DC DUP3 DUP3 PUSH2 0x4B6 JUMP JUMPDEST SWAP2 SWAP1 POP JUMP JUMPDEST PUSH1 0x0 PUSH1 0x40 MLOAD SWAP1 POP SWAP1 JUMP JUMPDEST PUSH1 0x0 PUSH8 0xFFFFFFFFFFFFFFFF DUP3 GT ISZERO PUSH2 0x406 JUMPI PUSH2 0x405 PUSH2 0x516 JUMP JUMPDEST JUMPDEST PUSH2 0x40F DUP3 PUSH2 0x559 JUMP JUMPDEST SWAP1 POP PUSH1 0x20 DUP2 ADD SWAP1 POP SWAP2 SWAP1 POP JUMP JUMPDEST PUSH1 0x0 DUP2 MLOAD SWAP1 POP SWAP2 SWAP1 POP JUMP JUMPDEST PUSH1 0x0 DUP3 DUP3 MSTORE PUSH1 0x20 DUP3 ADD SWAP1 POP SWAP3 SWAP2 POP POP JUMP JUMPDEST PUSH1 0x0 DUP2 SWAP1 POP SWAP2 SWAP1 POP JUMP JUMPDEST DUP3 DUP2 DUP4 CALLDATACOPY PUSH1 0x0 DUP4 DUP4 ADD MSTORE POP POP POP JUMP JUMPDEST PUSH1 0x0 JUMPDEST DUP4 DUP2 LT ISZERO PUSH2 0x46F JUMPI DUP1 DUP3 ADD MLOAD DUP2 DUP5 ADD MSTORE PUSH1 0x20 DUP2 ADD SWAP1 POP PUSH2 0x454 JUMP JUMPDEST DUP4 DUP2 GT ISZERO PUSH2 0x47E JUMPI PUSH1 0x0 DUP5 DUP5 ADD MSTORE JUMPDEST POP POP POP POP JUMP JUMPDEST PUSH1 0x0 PUSH1 0x2 DUP3 DIV SWAP1 POP PUSH1 0x1 DUP3 AND DUP1 PUSH2 0x49C JUMPI PUSH1 0x7F DUP3 AND SWAP2 POP JUMPDEST PUSH1 0x20 DUP3 LT DUP2 EQ ISZERO PUSH2 0x4B0 JUMPI PUSH2 0x4AF PUSH2 0x4E7 JUMP JUMPDEST JUMPDEST POP SWAP2 SWAP1 POP JUMP JUMPDEST PUSH2 0x4BF DUP3 PUSH2 0x559 JUMP JUMPDEST DUP2 ADD DUP2 DUP2 LT PUSH8 0xFFFFFFFFFFFFFFFF DUP3 GT OR ISZERO PUSH2 0x4DE JUMPI PUSH2 0x4DD PUSH2 0x516 JUMP JUMPDEST JUMPDEST DUP1 PUSH1 0x40 MSTORE POP POP POP JUMP JUMPDEST PUSH32 0x4E487B7100000000000000000000000000000000000000000000000000000000 PUSH1 0x0 MSTORE PUSH1 0x22 PUSH1 0x4 MSTORE PUSH1 0x24 PUSH1 0x0 REVERT JUMPDEST PUSH32 0x4E487B7100000000000000000000000000000000000000000000000000000000 PUSH1 0x0 MSTORE PUSH1 0x41 PUSH1 0x4 MSTORE PUSH1 0x24 PUSH1 0x0 REVERT JUMPDEST PUSH1 0x0 DUP1 REVERT JUMPDEST PUSH1 0x0 DUP1 REVERT JUMPDEST PUSH1 0x0 DUP1 REVERT JUMPDEST PUSH1 0x0 DUP1 REVERT JUMPDEST PUSH1 0x0 PUSH1 0x1F NOT PUSH1 0x1F DUP4 ADD AND SWAP1 POP SWAP2 SWAP1 POP JUMP JUMPDEST PUSH2 0x573 DUP2 PUSH2 0x438 JUMP JUMPDEST DUP2 EQ PUSH2 0x57E JUMPI PUSH1 0x0 DUP1 REVERT JUMPDEST POP JUMP INVALID LOG2 PUSH5 0x6970667358 0x22 SLT KECCAK256 PUSH17 0x3E1CFFB28CC0FE44687726E605D287C81B SWAP16 MSTORE8 DIFFICULTY 0xDE EXTCODEHASH PUSH6 0x8B2D227F2A63 PUSH32 0x3464736F6C634300080700330000000000000000000000000000000000000000 "
				},
				"gasEstimates": {
					"creation": {
						"codeDepositCost": "292600",
						"executionCost": "331",
						"totalCost": "292931"
					},
					"external": {
						"human_info(int256)": "infinite",
						"setter(int256,int256,string)": "infinite"
					}
				},
				"methodIdentifiers": {
					"human_info(int256)": "a705b0e6",
					"setter(int256,int256,string)": "998b6548"
				}
			},
			"storageLayout": {
				"storage": [
					{
						"astId": 11,
						"contract": "struct_map.sol:map",
						"label": "human_info",
						"offset": 0,
						"slot": "0",
						"type": "t_mapping(t_int256,t_struct(Human)6_storage)"
					}
				],
				"types": {
					"t_int256": {
						"encoding": "inplace",
						"label": "int256",
						"numberOfBytes": "32"
					},
					"t_mapping(t_int256,t_struct(Human)6_storage)": {
						"encoding": "mapping",
						"key": "t_int256",
						"label": "mapping(int256 => struct map.Human)",
						"numberOfBytes": "32",
						"value": "t_struct(Human)6_storage"
					},
					"t_string_storage": {
						"encoding": "bytes",
						"label": "string",
						"numberOfBytes": "32"
					},
					"t_struct(Human)6_storage": {
						"encoding": "inplace",
						"label": "struct map.Human",
						"members": [
							{
								"astId": 3,
								"contract": "struct_map.sol:map",
								"label": "roll",
								"offset": 0,
								"slot": "0",
								"type": "t_int256"
							},
							{
								"astId": 5,
								"contract": "struct_map.sol:map",
								"label": "name",
								"offset": 0,
								"slot": "1",
								"type": "t_string_storage"
							}
						],
						"numberOfBytes": "64"
					}
				}
			},
			"userdoc": {
				"kind": "user",
				"methods": {},
				"version": 1
			}
		}
	}
}