{
	"stuct.sol": {
		"structure": {
			"abi": [
				{
					"inputs": [],
					"name": "s1",
					"outputs": [
						{
							"internalType": "int256",
							"name": "roll",
							"type": "int256"
						},
						{
							"internalType": "string",
							"name": "name",
							"type": "string"
						}
					],
					"stateMutability": "view",
					"type": "function"
				}
			],
			"devdoc": {
				"kind": "dev",
				"methods": {},
				"version": 1
			},
			"evm": {
				"assembly": "    /* \"stuct.sol\":131:183  contract structure{\r... */\n  mstore(0x40, 0x80)\n  callvalue\n  dup1\n  iszero\n  tag_1\n  jumpi\n  0x00\n  dup1\n  revert\ntag_1:\n  pop\n  dataSize(sub_0)\n  dup1\n  dataOffset(sub_0)\n  0x00\n  codecopy\n  0x00\n  return\nstop\n\nsub_0: assembly {\n        /* \"stuct.sol\":131:183  contract structure{\r... */\n      mstore(0x40, 0x80)\n      callvalue\n      dup1\n      iszero\n      tag_1\n      jumpi\n      0x00\n      dup1\n      revert\n    tag_1:\n      pop\n      jumpi(tag_2, lt(calldatasize, 0x04))\n      shr(0xe0, calldataload(0x00))\n      dup1\n      0x6cc014de\n      eq\n      tag_3\n      jumpi\n    tag_2:\n      0x00\n      dup1\n      revert\n        /* \"stuct.sol\":156:173  Student public s1 */\n    tag_3:\n      tag_4\n      tag_5\n      jump\t// in\n    tag_4:\n      mload(0x40)\n      tag_6\n      swap3\n      swap2\n      swap1\n      tag_7\n      jump\t// in\n    tag_6:\n      mload(0x40)\n      dup1\n      swap2\n      sub\n      swap1\n      return\n    tag_5:\n      0x00\n      dup1\n      0x00\n      add\n      sload\n      swap1\n      dup1\n      0x01\n      add\n      dup1\n      sload\n      tag_8\n      swap1\n      tag_9\n      jump\t// in\n    tag_8:\n      dup1\n      0x1f\n      add\n      0x20\n      dup1\n      swap2\n      div\n      mul\n      0x20\n      add\n      mload(0x40)\n      swap1\n      dup2\n      add\n      0x40\n      mstore\n      dup1\n      swap3\n      swap2\n      swap1\n      dup2\n      dup2\n      mstore\n      0x20\n      add\n      dup3\n      dup1\n      sload\n      tag_10\n      swap1\n      tag_9\n      jump\t// in\n    tag_10:\n      dup1\n      iszero\n      tag_11\n      jumpi\n      dup1\n      0x1f\n      lt\n      tag_12\n      jumpi\n      0x0100\n      dup1\n      dup4\n      sload\n      div\n      mul\n      dup4\n      mstore\n      swap2\n      0x20\n      add\n      swap2\n      jump(tag_11)\n    tag_12:\n      dup3\n      add\n      swap2\n      swap1\n      0x00\n      mstore\n      keccak256(0x00, 0x20)\n      swap1\n    tag_13:\n      dup2\n      sload\n      dup2\n      mstore\n      swap1\n      0x01\n      add\n      swap1\n      0x20\n      add\n      dup1\n      dup4\n      gt\n      tag_13\n      jumpi\n      dup3\n      swap1\n      sub\n      0x1f\n      and\n      dup3\n      add\n      swap2\n    tag_11:\n      pop\n      pop\n      pop\n      pop\n      pop\n      swap1\n      pop\n      dup3\n      jump\t// out\n        /* \"#utility.yul\":7:122   */\n    tag_15:\n        /* \"#utility.yul\":92:115   */\n      tag_17\n        /* \"#utility.yul\":109:114   */\n      dup2\n        /* \"#utility.yul\":92:115   */\n      tag_18\n      jump\t// in\n    tag_17:\n        /* \"#utility.yul\":87:90   */\n      dup3\n        /* \"#utility.yul\":80:116   */\n      mstore\n        /* \"#utility.yul\":7:122   */\n      pop\n      pop\n      jump\t// out\n        /* \"#utility.yul\":128:492   */\n    tag_19:\n        /* \"#utility.yul\":216:219   */\n      0x00\n        /* \"#utility.yul\":244:283   */\n      tag_21\n        /* \"#utility.yul\":277:282   */\n      dup3\n        /* \"#utility.yul\":244:283   */\n      tag_22\n      jump\t// in\n    tag_21:\n        /* \"#utility.yul\":299:370   */\n      tag_23\n        /* \"#utility.yul\":363:369   */\n      dup2\n        /* \"#utility.yul\":358:361   */\n      dup6\n        /* \"#utility.yul\":299:370   */\n      tag_24\n      jump\t// in\n    tag_23:\n        /* \"#utility.yul\":292:370   */\n      swap4\n      pop\n        /* \"#utility.yul\":379:431   */\n      tag_25\n        /* \"#utility.yul\":424:430   */\n      dup2\n        /* \"#utility.yul\":419:422   */\n      dup6\n        /* \"#utility.yul\":412:416   */\n      0x20\n        /* \"#utility.yul\":405:410   */\n      dup7\n        /* \"#utility.yul\":401:417   */\n      add\n        /* \"#utility.yul\":379:431   */\n      tag_26\n      jump\t// in\n    tag_25:\n        /* \"#utility.yul\":456:485   */\n      tag_27\n        /* \"#utility.yul\":478:484   */\n      dup2\n        /* \"#utility.yul\":456:485   */\n      tag_28\n      jump\t// in\n    tag_27:\n        /* \"#utility.yul\":451:454   */\n      dup5\n        /* \"#utility.yul\":447:486   */\n      add\n        /* \"#utility.yul\":440:486   */\n      swap2\n      pop\n        /* \"#utility.yul\":220:492   */\n      pop\n        /* \"#utility.yul\":128:492   */\n      swap3\n      swap2\n      pop\n      pop\n      jump\t// out\n        /* \"#utility.yul\":498:917   */\n    tag_7:\n        /* \"#utility.yul\":637:641   */\n      0x00\n        /* \"#utility.yul\":675:677   */\n      0x40\n        /* \"#utility.yul\":664:673   */\n      dup3\n        /* \"#utility.yul\":660:678   */\n      add\n        /* \"#utility.yul\":652:678   */\n      swap1\n      pop\n        /* \"#utility.yul\":688:757   */\n      tag_30\n        /* \"#utility.yul\":754:755   */\n      0x00\n        /* \"#utility.yul\":743:752   */\n      dup4\n        /* \"#utility.yul\":739:756   */\n      add\n        /* \"#utility.yul\":730:736   */\n      dup6\n        /* \"#utility.yul\":688:757   */\n      tag_15\n      jump\t// in\n    tag_30:\n        /* \"#utility.yul\":804:813   */\n      dup2\n        /* \"#utility.yul\":798:802   */\n      dup2\n        /* \"#utility.yul\":794:814   */\n      sub\n        /* \"#utility.yul\":789:791   */\n      0x20\n        /* \"#utility.yul\":778:787   */\n      dup4\n        /* \"#utility.yul\":774:792   */\n      add\n        /* \"#utility.yul\":767:815   */\n      mstore\n        /* \"#utility.yul\":832:910   */\n      tag_31\n        /* \"#utility.yul\":905:909   */\n      dup2\n        /* \"#utility.yul\":896:902   */\n      dup5\n        /* \"#utility.yul\":832:910   */\n      tag_19\n      jump\t// in\n    tag_31:\n        /* \"#utility.yul\":824:910   */\n      swap1\n      pop\n        /* \"#utility.yul\":498:917   */\n      swap4\n      swap3\n      pop\n      pop\n      pop\n      jump\t// out\n        /* \"#utility.yul\":923:1022   */\n    tag_22:\n        /* \"#utility.yul\":975:981   */\n      0x00\n        /* \"#utility.yul\":1009:1014   */\n      dup2\n        /* \"#utility.yul\":1003:1015   */\n      mload\n        /* \"#utility.yul\":993:1015   */\n      swap1\n      pop\n        /* \"#utility.yul\":923:1022   */\n      swap2\n      swap1\n      pop\n      jump\t// out\n        /* \"#utility.yul\":1028:1197   */\n    tag_24:\n        /* \"#utility.yul\":1112:1123   */\n      0x00\n        /* \"#utility.yul\":1146:1152   */\n      dup3\n        /* \"#utility.yul\":1141:1144   */\n      dup3\n        /* \"#utility.yul\":1134:1153   */\n      mstore\n        /* \"#utility.yul\":1186:1190   */\n      0x20\n        /* \"#utility.yul\":1181:1184   */\n      dup3\n        /* \"#utility.yul\":1177:1191   */\n      add\n        /* \"#utility.yul\":1162:1191   */\n      swap1\n      pop\n        /* \"#utility.yul\":1028:1197   */\n      swap3\n      swap2\n      pop\n      pop\n      jump\t// out\n        /* \"#utility.yul\":1203:1279   */\n    tag_18:\n        /* \"#utility.yul\":1239:1246   */\n      0x00\n        /* \"#utility.yul\":1268:1273   */\n      dup2\n        /* \"#utility.yul\":1257:1273   */\n      swap1\n      pop\n        /* \"#utility.yul\":1203:1279   */\n      swap2\n      swap1\n      pop\n      jump\t// out\n        /* \"#utility.yul\":1285:1592   */\n    tag_26:\n        /* \"#utility.yul\":1353:1354   */\n      0x00\n        /* \"#utility.yul\":1363:1476   */\n    tag_36:\n        /* \"#utility.yul\":1377:1383   */\n      dup4\n        /* \"#utility.yul\":1374:1375   */\n      dup2\n        /* \"#utility.yul\":1371:1384   */\n      lt\n        /* \"#utility.yul\":1363:1476   */\n      iszero\n      tag_38\n      jumpi\n        /* \"#utility.yul\":1462:1463   */\n      dup1\n        /* \"#utility.yul\":1457:1460   */\n      dup3\n        /* \"#utility.yul\":1453:1464   */\n      add\n        /* \"#utility.yul\":1447:1465   */\n      mload\n        /* \"#utility.yul\":1443:1444   */\n      dup2\n        /* \"#utility.yul\":1438:1441   */\n      dup5\n        /* \"#utility.yul\":1434:1445   */\n      add\n        /* \"#utility.yul\":1427:1466   */\n      mstore\n        /* \"#utility.yul\":1399:1401   */\n      0x20\n        /* \"#utility.yul\":1396:1397   */\n      dup2\n        /* \"#utility.yul\":1392:1402   */\n      add\n        /* \"#utility.yul\":1387:1402   */\n      swap1\n      pop\n        /* \"#utility.yul\":1363:1476   */\n      jump(tag_36)\n    tag_38:\n        /* \"#utility.yul\":1494:1500   */\n      dup4\n        /* \"#utility.yul\":1491:1492   */\n      dup2\n        /* \"#utility.yul\":1488:1501   */\n      gt\n        /* \"#utility.yul\":1485:1586   */\n      iszero\n      tag_39\n      jumpi\n        /* \"#utility.yul\":1574:1575   */\n      0x00\n        /* \"#utility.yul\":1565:1571   */\n      dup5\n        /* \"#utility.yul\":1560:1563   */\n      dup5\n        /* \"#utility.yul\":1556:1572   */\n      add\n        /* \"#utility.yul\":1549:1576   */\n      mstore\n        /* \"#utility.yul\":1485:1586   */\n    tag_39:\n        /* \"#utility.yul\":1334:1592   */\n      pop\n        /* \"#utility.yul\":1285:1592   */\n      pop\n      pop\n      pop\n      jump\t// out\n        /* \"#utility.yul\":1598:1918   */\n    tag_9:\n        /* \"#utility.yul\":1642:1648   */\n      0x00\n        /* \"#utility.yul\":1679:1680   */\n      0x02\n        /* \"#utility.yul\":1673:1677   */\n      dup3\n        /* \"#utility.yul\":1669:1681   */\n      div\n        /* \"#utility.yul\":1659:1681   */\n      swap1\n      pop\n        /* \"#utility.yul\":1726:1727   */\n      0x01\n        /* \"#utility.yul\":1720:1724   */\n      dup3\n        /* \"#utility.yul\":1716:1728   */\n      and\n        /* \"#utility.yul\":1747:1765   */\n      dup1\n        /* \"#utility.yul\":1737:1818   */\n      tag_41\n      jumpi\n        /* \"#utility.yul\":1803:1807   */\n      0x7f\n        /* \"#utility.yul\":1795:1801   */\n      dup3\n        /* \"#utility.yul\":1791:1808   */\n      and\n        /* \"#utility.yul\":1781:1808   */\n      swap2\n      pop\n        /* \"#utility.yul\":1737:1818   */\n    tag_41:\n        /* \"#utility.yul\":1865:1867   */\n      0x20\n        /* \"#utility.yul\":1857:1863   */\n      dup3\n        /* \"#utility.yul\":1854:1868   */\n      lt\n        /* \"#utility.yul\":1834:1852   */\n      dup2\n        /* \"#utility.yul\":1831:1869   */\n      eq\n        /* \"#utility.yul\":1828:1912   */\n      iszero\n      tag_42\n      jumpi\n        /* \"#utility.yul\":1884:1902   */\n      tag_43\n      tag_44\n      jump\t// in\n    tag_43:\n        /* \"#utility.yul\":1828:1912   */\n    tag_42:\n        /* \"#utility.yul\":1649:1918   */\n      pop\n        /* \"#utility.yul\":1598:1918   */\n      swap2\n      swap1\n      pop\n      jump\t// out\n        /* \"#utility.yul\":1924:2104   */\n    tag_44:\n        /* \"#utility.yul\":1972:2049   */\n      0x4e487b7100000000000000000000000000000000000000000000000000000000\n        /* \"#utility.yul\":1969:1970   */\n      0x00\n        /* \"#utility.yul\":1962:2050   */\n      mstore\n        /* \"#utility.yul\":2069:2073   */\n      0x22\n        /* \"#utility.yul\":2066:2067   */\n      0x04\n        /* \"#utility.yul\":2059:2074   */\n      mstore\n        /* \"#utility.yul\":2093:2097   */\n      0x24\n        /* \"#utility.yul\":2090:2091   */\n      0x00\n        /* \"#utility.yul\":2083:2098   */\n      revert\n        /* \"#utility.yul\":2110:2212   */\n    tag_28:\n        /* \"#utility.yul\":2151:2157   */\n      0x00\n        /* \"#utility.yul\":2202:2204   */\n      0x1f\n        /* \"#utility.yul\":2198:2205   */\n      not\n        /* \"#utility.yul\":2193:2195   */\n      0x1f\n        /* \"#utility.yul\":2186:2191   */\n      dup4\n        /* \"#utility.yul\":2182:2196   */\n      add\n        /* \"#utility.yul\":2178:2206   */\n      and\n        /* \"#utility.yul\":2168:2206   */\n      swap1\n      pop\n        /* \"#utility.yul\":2110:2212   */\n      swap2\n      swap1\n      pop\n      jump\t// out\n\n    auxdata: 0xa26469706673582212201c0cdf384f1228fcacd250df9cee93a87c99351036cb844418565b5b3a6d9f4264736f6c63430008070033\n}\n",
				"bytecode": {
					"linkReferences": {},
					"object": "608060405234801561001057600080fd5b50610262806100206000396000f3fe608060405234801561001057600080fd5b506004361061002b5760003560e01c80636cc014de14610030575b600080fd5b61003861004f565b604051610046929190610131565b60405180910390f35b6000806000015490806001018054610066906101ba565b80601f0160208091040260200160405190810160405280929190818152602001828054610092906101ba565b80156100df5780601f106100b4576101008083540402835291602001916100df565b820191906000526020600020905b8154815290600101906020018083116100c257829003601f168201915b5050505050905082565b6100f28161017d565b82525050565b600061010382610161565b61010d818561016c565b935061011d818560208601610187565b6101268161021b565b840191505092915050565b600060408201905061014660008301856100e9565b818103602083015261015881846100f8565b90509392505050565b600081519050919050565b600082825260208201905092915050565b6000819050919050565b60005b838110156101a557808201518184015260208101905061018a565b838111156101b4576000848401525b50505050565b600060028204905060018216806101d257607f821691505b602082108114156101e6576101e56101ec565b5b50919050565b7f4e487b7100000000000000000000000000000000000000000000000000000000600052602260045260246000fd5b6000601f19601f830116905091905056fea26469706673582212201c0cdf384f1228fcacd250df9cee93a87c99351036cb844418565b5b3a6d9f4264736f6c63430008070033",
					"opcodes": "PUSH1 0x80 PUSH1 0x40 MSTORE CALLVALUE DUP1 ISZERO PUSH2 0x10 JUMPI PUSH1 0x0 DUP1 REVERT JUMPDEST POP PUSH2 0x262 DUP1 PUSH2 0x20 PUSH1 0x0 CODECOPY PUSH1 0x0 RETURN INVALID PUSH1 0x80 PUSH1 0x40 MSTORE CALLVALUE DUP1 ISZERO PUSH2 0x10 JUMPI PUSH1 0x0 DUP1 REVERT JUMPDEST POP PUSH1 0x4 CALLDATASIZE LT PUSH2 0x2B JUMPI PUSH1 0x0 CALLDATALOAD PUSH1 0xE0 SHR DUP1 PUSH4 0x6CC014DE EQ PUSH2 0x30 JUMPI JUMPDEST PUSH1 0x0 DUP1 REVERT JUMPDEST PUSH2 0x38 PUSH2 0x4F JUMP JUMPDEST PUSH1 0x40 MLOAD PUSH2 0x46 SWAP3 SWAP2 SWAP1 PUSH2 0x131 JUMP JUMPDEST PUSH1 0x40 MLOAD DUP1 SWAP2 SUB SWAP1 RETURN JUMPDEST PUSH1 0x0 DUP1 PUSH1 0x0 ADD SLOAD SWAP1 DUP1 PUSH1 0x1 ADD DUP1 SLOAD PUSH2 0x66 SWAP1 PUSH2 0x1BA JUMP JUMPDEST DUP1 PUSH1 0x1F ADD PUSH1 0x20 DUP1 SWAP2 DIV MUL PUSH1 0x20 ADD PUSH1 0x40 MLOAD SWAP1 DUP2 ADD PUSH1 0x40 MSTORE DUP1 SWAP3 SWAP2 SWAP1 DUP2 DUP2 MSTORE PUSH1 0x20 ADD DUP3 DUP1 SLOAD PUSH2 0x92 SWAP1 PUSH2 0x1BA JUMP JUMPDEST DUP1 ISZERO PUSH2 0xDF JUMPI DUP1 PUSH1 0x1F LT PUSH2 0xB4 JUMPI PUSH2 0x100 DUP1 DUP4 SLOAD DIV MUL DUP4 MSTORE SWAP2 PUSH1 0x20 ADD SWAP2 PUSH2 0xDF JUMP JUMPDEST DUP3 ADD SWAP2 SWAP1 PUSH1 0x0 MSTORE PUSH1 0x20 PUSH1 0x0 KECCAK256 SWAP1 JUMPDEST DUP2 SLOAD DUP2 MSTORE SWAP1 PUSH1 0x1 ADD SWAP1 PUSH1 0x20 ADD DUP1 DUP4 GT PUSH2 0xC2 JUMPI DUP3 SWAP1 SUB PUSH1 0x1F AND DUP3 ADD SWAP2 JUMPDEST POP POP POP POP POP SWAP1 POP DUP3 JUMP JUMPDEST PUSH2 0xF2 DUP2 PUSH2 0x17D JUMP JUMPDEST DUP3 MSTORE POP POP JUMP JUMPDEST PUSH1 0x0 PUSH2 0x103 DUP3 PUSH2 0x161 JUMP JUMPDEST PUSH2 0x10D DUP2 DUP6 PUSH2 0x16C JUMP JUMPDEST SWAP4 POP PUSH2 0x11D DUP2 DUP6 PUSH1 0x20 DUP7 ADD PUSH2 0x187 JUMP JUMPDEST PUSH2 0x126 DUP2 PUSH2 0x21B JUMP JUMPDEST DUP5 ADD SWAP2 POP POP SWAP3 SWAP2 POP POP JUMP JUMPDEST PUSH1 0x0 PUSH1 0x40 DUP3 ADD SWAP1 POP PUSH2 0x146 PUSH1 0x0 DUP4 ADD DUP6 PUSH2 0xE9 JUMP JUMPDEST DUP2 DUP2 SUB PUSH1 0x20 DUP4 ADD MSTORE PUSH2 0x158 DUP2 DUP5 PUSH2 0xF8 JUMP JUMPDEST SWAP1 POP SWAP4 SWAP3 POP POP POP JUMP JUMPDEST PUSH1 0x0 DUP2 MLOAD SWAP1 POP SWAP2 SWAP1 POP JUMP JUMPDEST PUSH1 0x0 DUP3 DUP3 MSTORE PUSH1 0x20 DUP3 ADD SWAP1 POP SWAP3 SWAP2 POP POP JUMP JUMPDEST PUSH1 0x0 DUP2 SWAP1 POP SWAP2 SWAP1 POP JUMP JUMPDEST PUSH1 0x0 JUMPDEST DUP4 DUP2 LT ISZERO PUSH2 0x1A5 JUMPI DUP1 DUP3 ADD MLOAD DUP2 DUP5 ADD MSTORE PUSH1 0x20 DUP2 ADD SWAP1 POP PUSH2 0x18A JUMP JUMPDEST DUP4 DUP2 GT ISZERO PUSH2 0x1B4 JUMPI PUSH1 0x0 DUP5 DUP5 ADD MSTORE JUMPDEST POP POP POP POP JUMP JUMPDEST PUSH1 0x0 PUSH1 0x2 DUP3 DIV SWAP1 POP PUSH1 0x1 DUP3 AND DUP1 PUSH2 0x1D2 JUMPI PUSH1 0x7F DUP3 AND SWAP2 POP JUMPDEST PUSH1 0x20 DUP3 LT DUP2 EQ ISZERO PUSH2 0x1E6 JUMPI PUSH2 0x1E5 PUSH2 0x1EC JUMP JUMPDEST JUMPDEST POP SWAP2 SWAP1 POP JUMP JUMPDEST PUSH32 0x4E487B7100000000000000000000000000000000000000000000000000000000 PUSH1 0x0 MSTORE PUSH1 0x22 PUSH1 0x4 MSTORE PUSH1 0x24 PUSH1 0x0 REVERT JUMPDEST PUSH1 0x0 PUSH1 0x1F NOT PUSH1 0x1F DUP4 ADD AND SWAP1 POP SWAP2 SWAP1 POP JUMP INVALID LOG2 PUSH5 0x6970667358 0x22 SLT KECCAK256 SHR 0xC 0xDF CODESIZE 0x4F SLT 0x28 0xFC 0xAC 0xD2 POP 0xDF SWAP13 0xEE SWAP4 0xA8 PUSH29 0x99351036CB844418565B5B3A6D9F4264736F6C63430008070033000000 "
				},
				"gasEstimates": {
					"creation": {
						"codeDepositCost": "122000",
						"executionCost": "171",
						"totalCost": "122171"
					},
					"external": {
						"s1()": "infinite"
					}
				},
				"methodIdentifiers": {
					"s1()": "6cc014de"
				}
			},
			"storageLayout": {
				"storage": [
					{
						"astId": 9,
						"contract": "stuct.sol:structure",
						"label": "s1",
						"offset": 0,
						"slot": "0",
						"type": "t_struct(Student)6_storage"
					}
				],
				"types": {
					"t_int256": {
						"encoding": "inplace",
						"label": "int256",
						"numberOfBytes": "32"
					},
					"t_string_storage": {
						"encoding": "bytes",
						"label": "string",
						"numberOfBytes": "32"
					},
					"t_struct(Student)6_storage": {
						"encoding": "inplace",
						"label": "struct Student",
						"members": [
							{
								"astId": 3,
								"contract": "stuct.sol:structure",
								"label": "roll",
								"offset": 0,
								"slot": "0",
								"type": "t_int256"
							},
							{
								"astId": 5,
								"contract": "stuct.sol:structure",
								"label": "name",
								"offset": 0,
								"slot": "1",
								"type": "t_string_storage"
							}
						],
						"numberOfBytes": "64"
					}
				}
			},
			"userdoc": {
				"kind": "user",
				"methods": {},
				"version": 1
			}
		}
	}
}