{
	"dynamic_bytes_array.sol": {
		"local": {
			"abi": [
				{
					"inputs": [],
					"name": "a",
					"outputs": [
						{
							"internalType": "int256",
							"name": "",
							"type": "int256"
						}
					],
					"stateMutability": "view",
					"type": "function"
				},
				{
					"inputs": [],
					"name": "getA",
					"outputs": [
						{
							"internalType": "bool",
							"name": "",
							"type": "bool"
						}
					],
					"stateMutability": "view",
					"type": "function"
				}
			],
			"devdoc": {
				"kind": "dev",
				"methods": {},
				"version": 1
			},
			"evm": {
				"assembly": "    /* \"dynamic_bytes_array.sol\":75:328  contract local{\r... */\n  mstore(0x40, 0x80)\n  callvalue\n  dup1\n  iszero\n  tag_1\n  jumpi\n  0x00\n  dup1\n  revert\ntag_1:\n  pop\n  dataSize(sub_0)\n  dup1\n  dataOffset(sub_0)\n  0x00\n  codecopy\n  0x00\n  return\nstop\n\nsub_0: assembly {\n        /* \"dynamic_bytes_array.sol\":75:328  contract local{\r... */\n      mstore(0x40, 0x80)\n      callvalue\n      dup1\n      iszero\n      tag_1\n      jumpi\n      0x00\n      dup1\n      revert\n    tag_1:\n      pop\n      jumpi(tag_2, lt(calldatasize, 0x04))\n      shr(0xe0, calldataload(0x00))\n      dup1\n      0x0dbe671f\n      eq\n      tag_3\n      jumpi\n      dup1\n      0xd46300fd\n      eq\n      tag_4\n      jumpi\n    tag_2:\n      0x00\n      dup1\n      revert\n        /* \"dynamic_bytes_array.sol\":96:108  int public a */\n    tag_3:\n      tag_5\n      tag_6\n      jump\t// in\n    tag_5:\n      mload(0x40)\n      tag_7\n      swap2\n      swap1\n      tag_8\n      jump\t// in\n    tag_7:\n      mload(0x40)\n      dup1\n      swap2\n      sub\n      swap1\n      return\n        /* \"dynamic_bytes_array.sol\":114:325  function getA()  public view returns(bool){ \r... */\n    tag_4:\n      tag_9\n      tag_10\n      jump\t// in\n    tag_9:\n      mload(0x40)\n      tag_11\n      swap2\n      swap1\n      tag_12\n      jump\t// in\n    tag_11:\n      mload(0x40)\n      dup1\n      swap2\n      sub\n      swap1\n      return\n        /* \"dynamic_bytes_array.sol\":96:108  int public a */\n    tag_6:\n      sload(0x00)\n      dup2\n      jump\t// out\n        /* \"dynamic_bytes_array.sol\":114:325  function getA()  public view returns(bool){ \r... */\n    tag_10:\n        /* \"dynamic_bytes_array.sol\":151:155  bool */\n      0x00\n        /* \"dynamic_bytes_array.sol\":167:173  bool b */\n      dup1\n        /* \"dynamic_bytes_array.sol\":183:189  bool c */\n      0x00\n        /* \"dynamic_bytes_array.sol\":199:205  bool g */\n      dup1\n        /* \"dynamic_bytes_array.sol\":215:221  bool h */\n      0x00\n        /* \"dynamic_bytes_array.sol\":239:240  2 */\n      0x02\n        /* \"dynamic_bytes_array.sol\":235:236  a */\n      sload(0x00)\n        /* \"dynamic_bytes_array.sol\":235:240  a < 2 */\n      slt\n        /* \"dynamic_bytes_array.sol\":231:240  b = a < 2 */\n      swap4\n      pop\n        /* \"dynamic_bytes_array.sol\":259:260  4 */\n      0x04\n        /* \"dynamic_bytes_array.sol\":254:255  4 */\n      dup1\n        /* \"dynamic_bytes_array.sol\":254:260  4 <= 4 */\n      gt\n      iszero\n        /* \"dynamic_bytes_array.sol\":250:260  c = 4 <= 4 */\n      swap3\n      pop\n        /* \"dynamic_bytes_array.sol\":279:280  7 */\n      0x07\n        /* \"dynamic_bytes_array.sol\":274:275  4 */\n      0x04\n        /* \"dynamic_bytes_array.sol\":274:280  4 != 7 */\n      eq\n      iszero\n        /* \"dynamic_bytes_array.sol\":270:280  g = 4 != 7 */\n      swap2\n      pop\n        /* \"dynamic_bytes_array.sol\":299:300  5 */\n      0x05\n        /* \"dynamic_bytes_array.sol\":294:295  4 */\n      0x04\n        /* \"dynamic_bytes_array.sol\":294:300  4 >= 5 */\n      lt\n      iszero\n        /* \"dynamic_bytes_array.sol\":290:300  h = 4 >= 5 */\n      swap1\n      pop\n        /* \"dynamic_bytes_array.sol\":317:318  h */\n      dup1\n        /* \"dynamic_bytes_array.sol\":310:318  return h */\n      swap5\n      pop\n      pop\n      pop\n      pop\n      pop\n        /* \"dynamic_bytes_array.sol\":114:325  function getA()  public view returns(bool){ \r... */\n      swap1\n      jump\t// out\n        /* \"#utility.yul\":7:116   */\n    tag_15:\n        /* \"#utility.yul\":88:109   */\n      tag_17\n        /* \"#utility.yul\":103:108   */\n      dup2\n        /* \"#utility.yul\":88:109   */\n      tag_18\n      jump\t// in\n    tag_17:\n        /* \"#utility.yul\":83:86   */\n      dup3\n        /* \"#utility.yul\":76:110   */\n      mstore\n        /* \"#utility.yul\":7:116   */\n      pop\n      pop\n      jump\t// out\n        /* \"#utility.yul\":122:237   */\n    tag_19:\n        /* \"#utility.yul\":207:230   */\n      tag_21\n        /* \"#utility.yul\":224:229   */\n      dup2\n        /* \"#utility.yul\":207:230   */\n      tag_22\n      jump\t// in\n    tag_21:\n        /* \"#utility.yul\":202:205   */\n      dup3\n        /* \"#utility.yul\":195:231   */\n      mstore\n        /* \"#utility.yul\":122:237   */\n      pop\n      pop\n      jump\t// out\n        /* \"#utility.yul\":243:453   */\n    tag_12:\n        /* \"#utility.yul\":330:334   */\n      0x00\n        /* \"#utility.yul\":368:370   */\n      0x20\n        /* \"#utility.yul\":357:366   */\n      dup3\n        /* \"#utility.yul\":353:371   */\n      add\n        /* \"#utility.yul\":345:371   */\n      swap1\n      pop\n        /* \"#utility.yul\":381:446   */\n      tag_24\n        /* \"#utility.yul\":443:444   */\n      0x00\n        /* \"#utility.yul\":432:441   */\n      dup4\n        /* \"#utility.yul\":428:445   */\n      add\n        /* \"#utility.yul\":419:425   */\n      dup5\n        /* \"#utility.yul\":381:446   */\n      tag_15\n      jump\t// in\n    tag_24:\n        /* \"#utility.yul\":243:453   */\n      swap3\n      swap2\n      pop\n      pop\n      jump\t// out\n        /* \"#utility.yul\":459:677   */\n    tag_8:\n        /* \"#utility.yul\":550:554   */\n      0x00\n        /* \"#utility.yul\":588:590   */\n      0x20\n        /* \"#utility.yul\":577:586   */\n      dup3\n        /* \"#utility.yul\":573:591   */\n      add\n        /* \"#utility.yul\":565:591   */\n      swap1\n      pop\n        /* \"#utility.yul\":601:670   */\n      tag_26\n        /* \"#utility.yul\":667:668   */\n      0x00\n        /* \"#utility.yul\":656:665   */\n      dup4\n        /* \"#utility.yul\":652:669   */\n      add\n        /* \"#utility.yul\":643:649   */\n      dup5\n        /* \"#utility.yul\":601:670   */\n      tag_19\n      jump\t// in\n    tag_26:\n        /* \"#utility.yul\":459:677   */\n      swap3\n      swap2\n      pop\n      pop\n      jump\t// out\n        /* \"#utility.yul\":683:773   */\n    tag_18:\n        /* \"#utility.yul\":717:724   */\n      0x00\n        /* \"#utility.yul\":760:765   */\n      dup2\n        /* \"#utility.yul\":753:766   */\n      iszero\n        /* \"#utility.yul\":746:767   */\n      iszero\n        /* \"#utility.yul\":735:767   */\n      swap1\n      pop\n        /* \"#utility.yul\":683:773   */\n      swap2\n      swap1\n      pop\n      jump\t// out\n        /* \"#utility.yul\":779:855   */\n    tag_22:\n        /* \"#utility.yul\":815:822   */\n      0x00\n        /* \"#utility.yul\":844:849   */\n      dup2\n        /* \"#utility.yul\":833:849   */\n      swap1\n      pop\n        /* \"#utility.yul\":779:855   */\n      swap2\n      swap1\n      pop\n      jump\t// out\n\n    auxdata: 0xa2646970667358221220e55411c16a43c7c6ffbbcb55f9c995e858d7f689b57336df332eb962ae2fc60264736f6c63430008070033\n}\n",
				"bytecode": {
					"linkReferences": {},
					"object": "608060405234801561001057600080fd5b5061014e806100206000396000f3fe608060405234801561001057600080fd5b50600436106100365760003560e01c80630dbe671f1461003b578063d46300fd14610059575b600080fd5b610043610077565b60405161005091906100e7565b60405180910390f35b61006161007d565b60405161006e91906100cc565b60405180910390f35b60005481565b6000806000806000600260005412935060048011159250600760041415915060056004101590508094505050505090565b6100b781610102565b82525050565b6100c68161010e565b82525050565b60006020820190506100e160008301846100ae565b92915050565b60006020820190506100fc60008301846100bd565b92915050565b60008115159050919050565b600081905091905056fea2646970667358221220e55411c16a43c7c6ffbbcb55f9c995e858d7f689b57336df332eb962ae2fc60264736f6c63430008070033",
					"opcodes": "PUSH1 0x80 PUSH1 0x40 MSTORE CALLVALUE DUP1 ISZERO PUSH2 0x10 JUMPI PUSH1 0x0 DUP1 REVERT JUMPDEST POP PUSH2 0x14E DUP1 PUSH2 0x20 PUSH1 0x0 CODECOPY PUSH1 0x0 RETURN INVALID PUSH1 0x80 PUSH1 0x40 MSTORE CALLVALUE DUP1 ISZERO PUSH2 0x10 JUMPI PUSH1 0x0 DUP1 REVERT JUMPDEST POP PUSH1 0x4 CALLDATASIZE LT PUSH2 0x36 JUMPI PUSH1 0x0 CALLDATALOAD PUSH1 0xE0 SHR DUP1 PUSH4 0xDBE671F EQ PUSH2 0x3B JUMPI DUP1 PUSH4 0xD46300FD EQ PUSH2 0x59 JUMPI JUMPDEST PUSH1 0x0 DUP1 REVERT JUMPDEST PUSH2 0x43 PUSH2 0x77 JUMP JUMPDEST PUSH1 0x40 MLOAD PUSH2 0x50 SWAP2 SWAP1 PUSH2 0xE7 JUMP JUMPDEST PUSH1 0x40 MLOAD DUP1 SWAP2 SUB SWAP1 RETURN JUMPDEST PUSH2 0x61 PUSH2 0x7D JUMP JUMPDEST PUSH1 0x40 MLOAD PUSH2 0x6E SWAP2 SWAP1 PUSH2 0xCC JUMP JUMPDEST PUSH1 0x40 MLOAD DUP1 SWAP2 SUB SWAP1 RETURN JUMPDEST PUSH1 0x0 SLOAD DUP2 JUMP JUMPDEST PUSH1 0x0 DUP1 PUSH1 0x0 DUP1 PUSH1 0x0 PUSH1 0x2 PUSH1 0x0 SLOAD SLT SWAP4 POP PUSH1 0x4 DUP1 GT ISZERO SWAP3 POP PUSH1 0x7 PUSH1 0x4 EQ ISZERO SWAP2 POP PUSH1 0x5 PUSH1 0x4 LT ISZERO SWAP1 POP DUP1 SWAP5 POP POP POP POP POP SWAP1 JUMP JUMPDEST PUSH2 0xB7 DUP2 PUSH2 0x102 JUMP JUMPDEST DUP3 MSTORE POP POP JUMP JUMPDEST PUSH2 0xC6 DUP2 PUSH2 0x10E JUMP JUMPDEST DUP3 MSTORE POP POP JUMP JUMPDEST PUSH1 0x0 PUSH1 0x20 DUP3 ADD SWAP1 POP PUSH2 0xE1 PUSH1 0x0 DUP4 ADD DUP5 PUSH2 0xAE JUMP JUMPDEST SWAP3 SWAP2 POP POP JUMP JUMPDEST PUSH1 0x0 PUSH1 0x20 DUP3 ADD SWAP1 POP PUSH2 0xFC PUSH1 0x0 DUP4 ADD DUP5 PUSH2 0xBD JUMP JUMPDEST SWAP3 SWAP2 POP POP JUMP JUMPDEST PUSH1 0x0 DUP2 ISZERO ISZERO SWAP1 POP SWAP2 SWAP1 POP JUMP JUMPDEST PUSH1 0x0 DUP2 SWAP1 POP SWAP2 SWAP1 POP JUMP INVALID LOG2 PUSH5 0x6970667358 0x22 SLT KECCAK256 0xE5 SLOAD GT 0xC1 PUSH11 0x43C7C6FFBBCB55F9C995E8 PC 0xD7 0xF6 DUP10 0xB5 PUSH20 0x36DF332EB962AE2FC60264736F6C634300080700 CALLER "
				},
				"gasEstimates": {
					"creation": {
						"codeDepositCost": "66800",
						"executionCost": "117",
						"totalCost": "66917"
					},
					"external": {
						"a()": "2407",
						"getA()": "2528"
					}
				},
				"methodIdentifiers": {
					"a()": "0dbe671f",
					"getA()": "d46300fd"
				}
			},
			"storageLayout": {
				"storage": [
					{
						"astId": 3,
						"contract": "dynamic_bytes_array.sol:local",
						"label": "a",
						"offset": 0,
						"slot": "0",
						"type": "t_int256"
					}
				],
				"types": {
					"t_int256": {
						"encoding": "inplace",
						"label": "int256",
						"numberOfBytes": "32"
					}
				}
			},
			"userdoc": {
				"kind": "user",
				"methods": {},
				"version": 1
			}
		}
	}
}